:1000000000400020750D0000A90D000097020000BF
:10001000E1020000E50200002D030000B10E000027
:10002000B10E0000B10E0000B10E0000750300001B
:1000300079030000B10E00007D030000351F0000B1
:10004000ED1E0000DD160000E9160000F5160000A8
:10005000011700000D1700001917000025170000F8
:10006000311700003D170000B50D00009517000086
:10007000A517000019160000B11B0000F1180000C0
:1000800011190000C10D0000CD0D0000D90D0000B8
:10009000691900007D1900002119000031190000C4
:1000A0004119000055190000E50D0000F10D000098
:1000B000FD0D0000090E0000150E00008112000069
:1000C000AD1200006D140000210E00002D0E000086
:1000D000390E0000450E0000510E00005D0E0000BC
:1000E000B51700002916000001190000690E000074
:1000F000B10E0000A1130000750E000049170000AA
:1001000055170000B10E00009D0F00005D100000AB
:10011000D9100000D1110000311400003916000080
:10012000810E00008D0E0000C5170000990E000022
:10013000A50E0000004000208D0200009302000088
:1001400097020000E1020000E50200002D0300001C
:10015000000000000000000000000000000000009F
:100160007503000079030000000000007D0300001B
:10017000351F00009103000000B583B000F09CFB28
:10018000304B314A1360314A1360314B314A3249A6
:100190008B4204D21168196004330432F7E72A4B0A
:1001A0001A682E4B9A4200D0FEE7284B1A682C4B57
:1001B0009A42F9D1234B2B4A13602B4A13602B4BE5
:1001C00002E000221A600433294A9342F9D3254BF6
:1001D0001B6813B9244B1B6803B1FEE700F078FBE2
:1001E000694601A800F044FB224C234BE41AA410FA
:1001F0000025AC4214DC214C214BE41AA41000254C
:10020000AC4213DC0099019801F0A0FE05461D4C9C
:100210001D4BE41AA410002C0EDC284600F004FB51
:10022000154B53F8253098470135E2E7144B53F846
:10023000253098470135E3E7013C134B53F8243050
:100240009847E8E7BABADECA00000020FC000020A8
:1002500000000020B82A0000000100207856341267
:100260003254769800010020FC0A00200001002092
:10027000000B0020280800002808000028080000C3
:1002800028080000280800002808000008B5FFF72B
:1002900073FF00BEFEE71EF0040F0CBFEFF30880F3
:1002A000EFF309807146374A10472DE9F04182B0DB
:1002B00004468846084B5E6B9F6B9D6A074800F0BA
:1002C000DFFACDF800803B4632462946204600F052
:1002D00003FB00BEFEE700BF00ED00E09029000038
:1002E00000BEFEE71EF0040F0CBFEFF30880EFF333
:1002F00009807146244A10472DE9F04182B0044636
:100300008846084B5E6B9F6B9D6A074800F0B8FA01
:10031000CDF800803B4632462946204600F0DCFA04
:1003200000BEFEE700ED00E0A02900001EF0040F73
:100330000CBFEFF30880EFF309807146134A1047B2
:100340002DE9F04182B004468846084B5E6B9F6BF6
:100350009D6A074800F094FACDF800803B4632468B
:100360002946204600F0B8FA00BEFEE700ED00E0A6
:10037000AC29000000BEFEE700BEFEE700BEFEE7BF
:1003800070470000AB020000F902000041030000CA
:02039000FEE786
:10080000B82A00000000002000010020940300002E
:10081000000000100000001000010020000B00206C
:080820000000001000000010B0
:10082800FEE7000008B503460C4A12685AB10B4AA5
:100838001068033323F003030344094A934206D89C
:10084800064A136008BD054A06491160EFE701F042
:10085800DBFB0C2303604FF0FF30F3E704010020BB
:10086800003C0020000B002001230360014B0B60BB
:10087800704700BF040000200FB400B583B004AB7C
:1008880053F8042B01938021064801F0FBFB002854
:1008980003DD0146034800F007F803B05DF804EBF8
:1008A80004B070470C0100204FF0FF307047000083
:1008B80008B500F021F9024A024B9A6008BD00BF52
:1008C8000000000000ED00E008B500F07BF808BD6E
:1008D800F8B504460D4617461E462748FFF7CCFFD5
:1008E80021682648FFF7C8FF61682548FFF7C4FF5D
:1008F800A1682448FFF7C0FFE1682348FFF7BCFF61
:1009080021692248FFF7B8FF61692148FFF7B4FF62
:10091800A1692048FFF7B0FFE1691F48FFF7ACFF66
:100928001E48FFF7A9FF29461D48FFF7A5FF1D4CE4
:10093800E16A1D48FFF7A0FF216B1C48FFF79CFFE9
:10094800E16B1B48FFF798FF15F0800F0AD115F4EB
:10095800004F0CD11748FFF78FFF06991648FFF78D
:100968008BFFF8BD39461548FFF786FFEFE731469C
:100978001348FFF781FFEDE7742800008428000082
:1009880094280000A4280000B4280000C42800000F
:10099800D4280000E4280000F428000004290000FE
:1009A8001029000000ED00E0202900003029000097
:1009B8004029000070290000782900005029000013
:1009C80060290000184B1B8803F00303032B2AD867
:1009D800DFE803F002060A25144B154A1A6070472F
:1009E800124B134A1A6070470F4A1388938903F011
:1009F8003F010F4B03FB01F3928902F0C002402A2A
:100A08000BD0802A00D19B08074A928912F4807F74
:100A180000D05B08054A136070475B08F4E7054B94
:100A28001A68024B1A60704700800240900100204B
:100A38000024F4008C01002010B514284ED8DFE8FB
:100A480000F04A0B0F13171A1D202326292C2F32CA
:100A580035383B3E414447004FF400631C463DE0B7
:100A680000234FF4807439E04FF480731C4635E05E
:100A78000023F02432E01023F0242FE02023F02478
:100A88002CE03023F02429E04023F02426E05023F2
:100A9800F02423E06023F02420E07023F0241DE0FC
:100AA8008023F0241AE09023F02417E0A023F024F8
:100AB80014E0B023F02411E0C023F0240EE000235A
:100AC80003240BE00123032408E00223032405E0A8
:100AD80003231C4602E000234FF4006472B6054964
:100AE8000A8822EA040213439BB20B8062B6FFF71E
:100AF80069FF10BD0080024008B572B61D4B1E4A42
:100B08009A604FF4E0225A62BFF36F8FBFF34F8FA2
:100B180062B61A4B4CF614329A811A8A42F00302D2
:100B28001A82164B1B8A13F4007FFAD0144B1A88CA
:100B380092B222F0030292B21A8000221A8041F285
:100B480010029A8088229A818F221A824FF4C072EA
:100B58009A820120FFF770FF084A4CF614339381FC
:100B6800138A9BB223F008039BB21382FFF72AFF74
:100B780008BD00BF00ED00E00000000000240040B8
:100B88000080024070B50546FFF71CFF0F2D20D8E6
:100B9800DFE805F008081919191919192222222263
:100BA80022222222124B9B8803F03F03012B1AD0EA
:100BB8000F4B9C8804F03F049B8813F0800F15D0DE
:100BC800A4080C4E05E00C4B1E68094B9C88C4F326
:100BD8000524B6FBF4F070BD074B1E68044B9C88D7
:100BE80004F03F04F5E70124024EF2E7014EF0E776
:100BF800008002400087930390010020072815D841
:100C0800DFE800F0120406080A0C0E1080230DE03D
:100C180020230BE0102309E0082307E0042305E064
:100C2800022303E0012301E04FF4807372B639B95F
:100C3800064A918A0B439BB2938262B600207047A2
:100C480002498A8A22EA03038B82F6E7008002407F
:100C580010B50F280BD8DFE800F00808171717178A
:100C680017171B1B1B1B1B1B1B1BCB01802472B6DE
:100C780009498A8822EA040213439BB28B8062B630
:100C8800FFF7A0FE002010BD0B024FF47C54EEE7E6
:100C98008BB23F24EBE700BF0080024070B439B14B
:100CA8000C460021032806D8DFE800F0410B0B07AB
:100CB8000221204CF6E7002604E041F0040100265A
:100CC80000E0042672B61C4D44F65903AB804FF27F
:100CD8007B23AB802B881BB223F0030303439BB217
:100CE8002B80164B1869014321EA06011961EFF3BD
:100CF8001181520182F311880AE0114B1B8B03F01A
:100D08000E03002BF9D1BFF34F8F30BF62B672B616
:100D18002378002BF1D00023237081F31188074A30
:100D2800136923F002031361BFF34F8F62B60020EB
:100D380070BC7047940100200024004000ED00E0E2
:100D480080250040034610B101221A70704772B620
:100D5800044A136923F002031361BFF34F8F62B68D
:100D6800014BF1E700ED00E094010020684620F017
:100D780007018D4681B400AF074B1B6883F30888D1
:100D8800064B44F659029A804FF27B229A801A88C1
:100D980042F400421A80FEE70000000000240040F0
:100DA800684620F007018D4601B4FEE7684620F04A
:100DB80007018D4601B4FEE7684620F007018D461D
:100DC80001B4FEE7684620F007018D4601B4FEE74E
:100DD800684620F007018D4601B4FEE7684620F01A
:100DE80007018D4601B4FEE7684620F007018D46ED
:100DF80001B4FEE7684620F007018D4601B4FEE71E
:100E0800684620F007018D4601B4FEE7684620F0E9
:100E180007018D4601B4FEE7684620F007018D46BC
:100E280001B4FEE7684620F007018D4601B4FEE7ED
:100E3800684620F007018D4601B4FEE7684620F0B9
:100E480007018D4601B4FEE7684620F007018D468C
:100E580001B4FEE7684620F007018D4601B4FEE7BD
:100E6800684620F007018D4601B4FEE7684620F089
:100E780007018D4601B4FEE7684620F007018D465C
:100E880001B4FEE7684620F007018D4601B4FEE78D
:100E9800684620F007018D4601B4FEE7684620F059
:100EA80007018D4601B4FEE7684620F007018D462C
:100EB80001B4FEE738B50446806C69B11546C160D7
:100EC800426000F0F7FA08B141F20B50A4F8545010
:100ED800002384F84D3038BD00F072FB0028F7D0AD
:100EE80041F20B50F4E7000010B4013903290ED881
:100EF800DFE801F00B0205083320144C07E034202A
:100F0800134C04E03520134C01E03220124C7BB91D
:100F1800236823EA020222602368A3B900F01F02B3
:100F280040090123934020300C4A42F820300AE05F
:100F380023681A43226000F01F02400901239340EE
:100F4800064A42F82030002010BC70479000084044
:100F580094000840980008408C00084000E100E038
:100F68000139032906D8DFE801F002070B0F084B07
:100F7800C3F8A02000207047054BC3F8A420F9E768
:100F8800034BC3F8A820F5E7014BC3F8AC20F1E701
:100F98000000084070B52E4BDA68D2F8A030D2F8BD
:100FA8008C2013F0010F04D012F0010F22D100247D
:100FB80000E0002413F0020F04D012F0020F01D059
:100FC80044F0020413F0040F04D012F0040F01D00F
:100FD80044F0040413F0080F04D012F0080F01D0F5
:100FE80044F0080413F0100F06D012F0100F2DD1A2
:100FF800002502E00124DDE7002513F0200F04D0CE
:1010080012F0200F01D045F0200513F0400F04D056
:1010180012F0400F01D045F040050D4B5B6A43B11B
:1010280044EA05010A4A926A114202D0002208489D
:101038009847074E00232A4601213046FFF754FF00
:10104800224601213046FFF78BFF70BD1025D4E7FB
:10105800B804002010B51D4BDA68D2F8A430D2F8D5
:10106800902013F0010F04D012F0010F2BD10024AF
:1010780000E0002413F0020F04D012F0020F01D098
:1010880044F0020413F0040F04D012F0040F01D04E
:1010980044F0040413F0080F04D012F0080F01D034
:1010A80044F00804094BDB6A3BB1084A126B224240
:1010B80003D00022214605489847224602210348CA
:1010C800FFF74EFF10BD0124D4E700BFB80400208D
:1010D80070B53B4BDA68D2F8A830D2F8942013F0F8
:1010E800010F06D012F0010F1FD001243449CC7132
:1010F80000E0002413F0020F04D012F0020F01D018
:1011080044F0020413F0040F04D012F0040F01D0CD
:1011180044F0040413F0080F09D012F0080F4DD062
:10112800274901208871082502E00024E2E700250C
:1011380013F0100F04D012F0100F01D045F0100575
:1011480013F0200F04D012F0200F01D045F0200535
:1011580013F0400F08D012F0400F05D044F04004BF
:10116800174941F20850888013F0800F08D012F018
:10117800800F05D044F08004114B41F207529A8049
:10118800104E3046FFF7DEFDF36953B144EA05011E
:10119800A6F11802926B114203D00022A6F11800A2
:1011A8009847074E00232A4603213046FFF79CFE46
:1011B800224603213046FFF7D3FE70BD0025B7E76E
:1011C800B8040020D004002070B52A4BDA68D2F8A1
:1011D800AC30D2F8982013F0010F04D012F0010FB0
:1011E8001ED1002400E0002413F0020F04D012F0F6
:1011F800020F01D044F0020413F0040F04D012F0DF
:10120800040F01D044F0040413F0080F0AD012F0C0
:10121800080F2DD0174941F20A508880082502E0AE
:101228000124E1E7002513F0100F08D012F0100F89
:1012380005D045F010050F4B41F209529A800D4B2D
:10124800DB6B43B145EA04010A4A126C114202D031
:10125800002208489847074E0023224604213046BA
:10126800FFF742FE2A4604213046FFF779FE70BD9B
:101278000025D8E7B804002008B5084B4FF0004215
:10128800C3F88020064B012283F84C209A71DB6951
:101298001BB1002211460248984708BD00E100E052
:1012A800B804002070B5314BB3F85460B3F8562039
:1012B800002A48D0B3F85C305BB32C4B196DB3F8F7
:1012C800583001EB43052A4801609A421BD8274B46
:1012D8000021A3F85610254B0021A3F85C10244BDD
:1012E80019682248FFF7E6FD224B01221A70224CAA
:1012F8002046FFF727FDA36823B12A463146A4F10B
:101308001800984770BDD21A1849A1F856201A46F5
:10131800E1E7164B1D6DB3F8581005EB4101144871
:101328000160B3F85A309A4207D810490020A1F852
:1013380056000E49A1F85C30D1E7D21A0B49A1F842
:1013480056201A46F5E70B4B1B7863B1084B1D680E
:1013580001230A4AC2F88430044A82F84D30054B0A
:1013680000221A70C3E7014B1D6DF1E7B804002095
:101378009801002095010020D004002000E100E041
:1013880072B64268908801F47C431BB203439BB257
:10139800938062B60020704710B5224B1B78002B53
:1013A80037D0204BDB68002B33D072B61D4B5A6800
:1013B800918813880B4003F47C4262B612F4004F04
:1013C8002CD1002413F4804F02D044F48044A4B2FA
:1013D80013F4005F02D044F40054A4B213F4805F05
:1013E80002D044F48054A4B213F4006F02D044F441
:1013F8000064A4B213F4806F02D044F48064A4B2F1
:10140800084B1B8A234204D00648C36800222146A1
:10141800984721460348FFF7B3FF10BD4FF4004437
:10142800D0E700BF9C01002008B50D4B01221A72BD
:101438005A68516B1B785BB1CAB2094BDB683BB188
:101448000748007C104203D00022C9B204489847DC
:10145800034B5B681A6B5A63BFF34F8F08BD00BF1D
:10146800B001002038B5114B1C694CB972B6104A4E
:101478000023936053600D4A1372D36062B638BD7F
:10148800B4F5806F28BF4FF480641D46DB680848B8
:10149800836044600123037500F00CF8EB6803EBEC
:1014A8008403EB602B691B1B2B61E8E71805002000
:1014B8003005002010B443788BB903783C4A02EB1E
:1014C800031283681360C368536072B6037C062BEB
:1014D80011D8DFE803F00909091019191900037870
:1014E800344A02EB0312ECE714684168013901FA47
:1014F80003F323441360437C062B15D8DFE803F07D
:101508000D0D0D1442424200146841680139043B34
:1015180001FA03F3E31A1360EDE7546841680139EF
:1015280001FA03F32344536062B6417C037C9B06B3
:1015380043EA8173817843EA0163C17C43EA8133DA
:101548004168013943EA0113017D0B439360027836
:1015580001239340027C032A1DD9174AC2F8103888
:10156800427C032A1BD9144AC2F81838134A9268D5
:101578001A4218D1104AC2F804380F4A9362002060
:1015880010BC7047546841680139043B01FA03F301
:10159800E31A5360C8E7084AC2F81438E0E7064A75
:1015A800C2F81C38E2E7044AC2F80038E5E700BF91
:1015B800D0010020D002002000000140C40100201A
:1015C80030B403780B4901EB031101249C4072B637
:1015D8008A6822F47F5222F03F0243685D1E037D31
:1015E80043EA051313438B6062B6034B9C620020E9
:1015F80030BC7047D00100200000014008B54368A6
:101608001B889BB283611C30FFF79CFB08BD000060
:1016180008B50248FFF7F2FF08BD00BF0C00002024
:1016280008B50248FFF7EAFF08BD00BF2C000020FC
:1016380008B50248FFF7E2FF08BD00BF4C000020D4
:10164800431E0120984080B2014B18860020704745
:1016580000240040018300207047818300207047E8
:10166800F0B587B007460C4601AD184E0FCE0FC532
:1016780033682B60164B03EBC7035B6833B1144820
:1016880000EBC7000022214680689847A4F12F0389
:10169800012B15D8002203E00B8D9BB20BE0013221
:1016A800042A10D806AB03EB820353F8141C2F2C22
:1016B800F2D08B8D9BB2088E0340F0D00B86EEE7FC
:1016C8002046FFF7BDFF07B0F0BD00BFBC290000F2
:1016D800D003002008B501210020FFF7C1FF08BD95
:1016E80008B502210120FFF7BBFF08BD08B503219B
:1016F8000220FFF7B5FF08BD08B504210320FFF756
:10170800AFFF08BD08B505210420FFF7A9FF08BDF4
:1017180008B506210520FFF7A3FF08BD08B5072176
:101728000620FFF79DFF08BD08B508210720FFF731
:1017380097FF08BD08B509210820FFF791FF08BDEC
:1017480008B52F210920FFF78BFF08BD08B5302108
:101758000A20FFF785FF08BD38B5C3689D8B0122B5
:101768009A81436883B1ADB2044615F0010F03D0E6
:10177800002201218068984715F0020F04D06368A1
:1017880000220221A068984738BD000008B5024829
:10179800FFF7E2FF08BD00BF2C04002008B502488F
:1017A800FFF7DAFF08BD00BF3C04002008B5024877
:1017B800FFF7D2FF08BD00BF4C040020104B1B7878
:1017C800E3B10F4BDB68CBB110B572B60C4B5B685D
:1017D8001B8903F0010362B673B90024084B1B6927
:1017E800234204D00648C368002221469847044B88
:1017F8005B68A4B21C8110BD0124EFE7704700BFED
:101808005C04002008B5837CB3B90A460346C06867
:10181800198A012A07D0FFF71DFF003018BF0120E1
:1018280038B9002009E0FFF718FF003018BF012081
:10183800F6E740F6054000E0002008BD10B5044674
:1018480043681A8892B2C2F34201C1F1040189B215
:10185800C2F3022200E019464B1E9BB281B1616AB5
:101868000029F8D0A06961680078088194F8200000
:10187800A1690144A161616A01396162EBE71A4615
:10188800531E9BB27AB1A26A002AF8D06268918886
:10189800E269117094F82110E2690A44E261A26ACF
:1018A800013AA262EBE7A36A83B9636A73B90123B9
:1018B80084F82C302378022B0BD0637A012B0DD0BF
:1018C800236C1BB100221146606C984763681B8823
:1018D80010BD00212046FFF795FFEEE704F1150043
:1018E800FFF730FAECE7000008B50248FFF7A6FF5B
:1018F80008BD00BF4805002008B50248FFF79EFF55
:1019080008BD00BF9C05002008B50248FFF796FFF8
:1019180008BD00BFF005002008B5024BDB6B0220B4
:10192800984708BD4805002008B5024BDB6B03202B
:10193800984708BD4805002008B5034BD3F89030F8
:101948000420984708BD00BF4805002008B5034B90
:10195800D3F890300520984708BD00BF48050020FF
:1019680008B5034BD3F8E4300020984708BD00BF02
:101978004805002008B5034BD3F8E4300120984708
:1019880008BD00BF4805002001F00E01C172704774
:101998002DE9F04105460E469046837A002B3FD04C
:1019A800828B438BD21A12B24245A8BF424600230B
:1019B80008E06869698B4C1C6C83415C31700133A9
:1019C8001BB201369342F4DB904510DDA8EB02030D
:1019D8001BB200226A8308E06869698B4C1C6C831F
:1019E800415C3170013212B201369A42F4DB95F94A
:1019F800003003F01F015B09012202FA01F11748C8
:101A0800203340F82310EB8BA3EB08039BB2EB8346
:101A180095F9003003F01F015B098A4040F8232044
:101A2800AB7ABBB9002713E014F0010F0AD16B6839
:101A38009C8AE4B214F00E0FF6D021462846FFF730
:101A4800A3FFF1E76B681B88337001373FB201369B
:101A58004745ECDB0020BDE8F08100BF00E100E075
:101A6800F0B4837A002B42D0048D838CE41A24B21C
:101A78009442A8BF1446002308E0066A858C6F1CB0
:101A880087840F78775501331BB20131A342F4DB09
:101A9800A2420FDD131B1BB20024848408E0066AEF
:101AA800858C6F1C87840F787755013424B20131F7
:101AB8009C42F4DB90F9003003F01F065B09012417
:101AC80004FA06F6134D203345F82360438D9B1A1C
:101AD8009BB243854668B38843F00203B38090F90C
:101AE800003003F01F065B09B44045F82340837AB1
:101AF80063B9002508E043689C8A14F0200FFAD0E7
:101B08000C781C8001350131AA42F4DC0020F0BCBD
:101B1800704700BF00E100E0F8B5044615461E46D0
:101B2800837A5BB35EB100F11407237AC3B13A89B3
:101B3800B5F900309A420BDA40F6085012E000F18D
:101B48002007F2E7002204F111010120FFF7A6F8AF
:101B58007B899BB2B5F900209342F3DB002001E0BA
:101B68004FF45060237A5BB97B891AB2B5F900301B
:101B78009342A8BF13462B80002001E04FF4506029
:101B8800A37A53B9237A03B1002033B936B1636815
:101B98009B8A03F001032B800020F8BD63689B8AB1
:101BA800C3F34013F7E700002B4B5A681389DBB2E5
:101BB80013F0010F4ED110B503F00603042B10D01B
:101BC800062B05D0022B26D02448FFF7BBF810BD02
:101BD800918AC9B211F00E0FF6D01F48FFF7D4FE54
:101BE800F2E71D49CB8B9BB2898B8B4212D01A4BE3
:101BF8001B8B994202D1184B002119831088164B70
:101C080059691A8B541C1C838854DA8B013292B29E
:101C1800DA83D9E7FEE7104BD88C198D884201D3B7
:101C28000020D8840C4B5B8D9BB299420BD90A4B90
:101C3800186AD98C4C1CDC84415C11805A8D0132A5
:101C480092B25A85C0E793889BB223F002039BB2F5
:101C58009380B9E7704700BF6C0000207D0000202A
:101C680070B504460D4616460023FFF755FF034698
:101C780008B1184670BDB6F9002029462046FFF77E
:101C8800EFFE0346F5E770B504460D4616460123F8
:101C9800FFF742FF034608B1184670BDB6F90020A9
:101CA80029462046FFF774FE0346F5E730B597B09E
:101CB80005460C465422174901A800F0ABF9042048
:101CC800FEF760FF144B98421AD0144B98421DD16E
:101CD80004EB440462002A3201AB1A446B68118891
:101CE8001985B2F90430528843EAC2236A686FEA58
:101CF80043436FEA53439BB29384002017B030BD2F
:101D080004EB4404620001AB1A44E7E740F60450D0
:101D1800F4E700BFD02900000024F40040420F007F
:101D28002DE9F047894600230B60244B4FF02C081F
:101D380008FB003892B11146002288F811200A6881
:101D4800C8F814208A88A8F81C208A68C8F82020B7
:101D5800CA88A8F82820012288F80A20DFF85CA0A1
:101D68002C2707FB00F70AEB07040025658325836A
:101D7800E583E584A584238D638501266670217C2F
:101D88004046FFF793FF6368A2899A816368E289F6
:101D98001A82C9F8008031460320FEF72FFF6368D6
:101DA80083F830601AF9073003F01F025B09964088
:101DB800034A42F823602846BDE8F0876C000020FB
:101DC80000E100E001290ED021B1022919D040F626
:101DD80004507047426893899BB223F038039BB242
:101DE800938100207047426893899BB223F03003A7
:101DF8009BB293814268938943F008039381002042
:101E080070474268938943F03803938100207047F4
:101E180003290AD8426893899BB223F003039BB233
:101E2800938143689A89114399810020704708B5C6
:101E38000A4661B9416891F8303043F0010381F8EE
:101E4800303011460320FEF7D9FE002008BD416856
:101E580091F8303003F0FE0381F83030F1E78172F9
:101E680069B9426893889BB223F001039BB29380BF
:101E78004268938843F004039380002070474268C7
:101E8800938843F001039380F2E7017200207047C2
:101E980070B506460C460978FFF708FF054608B1F5
:101EA800284670BDA1783046FFF7B2FF05460028E6
:101EB800F6D161783046FFF785FF05460028EFD157
:101EC800E1783046FFF7E1FF05460028E8D121799F
:101ED8003046FFF7C4FFE3E7436801F01F011986A6
:101EE8000020704710B50B4A51688B8D03F01F0313
:101EF800098D0B40147C1C40137833B1D36823B18F
:101F08001CB1002221460348984721460148FFF7A3
:101F1800E3FF10BD70040020034B1B681BB1024A8D
:101F28001368013B136070474406002008B5FFF7AB
:101F3800F3FF08BD024B4FF420421A60002070479F
:101F48000000024030B589B0FEF7D6FD2A4AD368B2
:101F580023F4E0631B041B0C43F0BF6343F4013319
:101F6800D36001210920FEF773FE01210420FEF74A
:101F78006FFEFFF7DFFF214B05931423ADF81830F0
:101F88001F4A0792ADF81A301E4C0DEB030221468A
:101F98000020FFF7C5FE04238DF8083001258DF8D1
:101FA8000B508DF80C5000238DF8093003228DF862
:101FB8000A208DF80D3002A92068FFF769FF29462D
:101FC8002068FFF734FF06E00D490B7001AA0D4B9E
:101FD8001868FFF745FE0123ADF80630ADF8043068
:101FE800064C0DF106022146064B1868FFF74BFE1A
:101FF8002378452BEFD0E7E700ED00E084040020CC
:1020080098040020F80A0020014B1868704700BFA8
:102018009800002010B5431E0A44914200D110BD1B
:1020280011F8014B03F8014FF7E730B5141E0546C8
:102038009BB0184605DA8B234FF0FF302B601BB09E
:1020480030BD4FF40273ADF80C300CBF234604F1D9
:10205800FF33029305934FF6FF7300910491ADF897
:102068000E3002461E9B6946284600F0CDF8431CF8
:10207800BCBF8B232B60002CE1D00022009B1A7080
:10208800DDE7000007B5009313460A4601460348FA
:102098000068FFF7CAFF03B05DF804FB9800002052
:1020A80070B5CD1C25F0030508350C2D38BF0C255F
:1020B800002D064601DBA94203D90C23336000201A
:1020C80070BD00F056FB214A1468214691B9204C96
:1020D80023681BB9304600F015FB206029463046BE
:1020E80000F010FB431C24D10C233046336000F071
:1020F80041FBE4E70B685B1B18D40B2B0FD90B6073
:10210800CC18CD50304600F035FB04F10B00231DF0
:1021180020F00700C31AD3D05A42E250D0E74B68E8
:102128008C4216BF636013600C46EBE70C464968A7
:10213800CCE7C41C24F00304A04205D0211A304681
:1021480000F0E0FA0130CFD02560DBE7AC040020D6
:10215800B00400202DE9F0478E6882469E420C4666
:102168009046994637D88A8912F4906F31D0022365
:10217800256809696F1A656905EB450595FBF3F54F
:1021880009F101033B449D4238BF1D46530530D534
:102198002946FFF785FF064650B90C234FF0FF305C
:1021A800CAF80030A38943F04003A381BDE8F08753
:1021B8003A462169FFF72EFFA38923F4906343F081
:1021C8008003A38126613E4426604E466561ED1B6F
:1021D800A5604E4500D94E4632464146206800F07B
:1021E800AFFAA36800209B1BA36023681E442660E7
:1021F800DCE72A4600F00CFB06460028E2D12169FC
:10220800504600F0B9FAC8E72DE9F04F9DB00393A6
:102218008B8980461D060C4616460FD50B696BB98F
:102228004021FFF73DFF2060206128B90C23C8F842
:1022380000304FF0FF30C7E040236361002309936B
:1022480020238DF8293030234FF0010B8DF82A30E8
:1022580037463D4615F8013B0BB1252B3ED1B7EB70
:10226800060A0BD05346324621464046FFF772FF16
:10227800013000F0A480099B534409933B78002B5C
:1022880000F09D8000234FF0FF32CDE90523049331
:1022980007938DF853301A932F46052217F8011B20
:1022A8004F4800F03FFA049BD0B9D90644BF20221A
:1022B8008DF853201A0744BF2B228DF853202A7813
:1022C8002A2A15D02F4600200A25079A394611F8E0
:1022D800013B303B092B4DD9B8B10FE02F46B8E789
:1022E8003F4A3D46801A0BFA00F018430490D3E7A2
:1022F800039A111D12680391002A01DB079204E07A
:10230800524243F00203079204933B782E2B0CD1E0
:102318007B782A2B33D1039B02371A1D1B68039243
:10232800002BB8BF4FF0FF3305932E4D03223978A9
:10233800284600F0F7F938B14023401B03FA00F0B3
:10234800049B0137034304933978062226487E1CF0
:102358008DF8281000F0E6F9002838D0234B13BB7D
:10236800039B073323F0070308330393099B4B446C
:1023780009936DE705FB023201200F46A6E700230B
:102388000A25194601370593384610F8012B303ACB
:10239800092A03D9002BC8D00591C6E705FB0121FE
:1023A80001230746F0E703AB00932246104B04A92C
:1023B8004046AFF30080B0F1FF3F8146D6D1A389F4
:1023C8005B063FF536AF09981DB0BDE8F08F03AB4B
:1023D80000932246064B04A9404600F081F8EAE73C
:1023E800842A00008A2A00008E2A000000000000CB
:1023F8005D2100002DE9F04791461F468A680B6968
:1024080006469342B8BF1346C9F8003091F84320F6
:102418000C46DDF8208012B10133C9F8003023687A
:10242800990642BFD9F800300233C9F80030256850
:1024380015F0060507D104F1190AE368D9F8002058
:102448009B1AAB4229DC94F843302268003318BF4A
:10245800012392062ED404F1430239463046C04780
:10246800013021D02368E56803F00603042B18BF68
:102478000025D9F800204FF0000908BFAD1AA3685D
:10248800226908BF25EAE5759342C4BF9B1AED1877
:102498001A344D451AD1002008E001235246394626
:1024A8003046C047013003D14FF0FF30BDE8F08718
:1024B8000135C2E73020E11881F843005A1C94F82E
:1024C80045102244023382F84310C4E70123224610
:1024D80039463046C0470130E6D009F10109D8E74E
:1024E8002DE9F04301F1430C0C46097E85B06E29B5
:1024F8001746064698460C9A00F0B38022D86329FE
:1025080036D00AD8002900F0B980582900F0838015
:1025180004F1420584F8421032E0642901D06929A7
:10252800F6D120681368050603F104012AD51B6853
:102538001160002B03DA2D225B4284F843206F4898
:102548000A2239E0732900F09D8008D86F2920D02D
:102558007029DDD1236843F02003236003E0752947
:1025680017D07829D4D17823654884F8453055E0C8
:10257800136804F14205191D1B68116084F8423084
:1025880001238CE01B6810F0400F116018BF1BB2CC
:10259800CFE713682568181D1060280601D51B6849
:1025A80002E06806FBD51B886F2914BF0A2208229F
:1025B8005248002184F843106568002DA560C0F2D8
:1025C8009580216821F004012160002B3DD1002D68
:1025D80040F08E806546082A0BD12368DB0708D5B2
:1025E800236962689A42DEBF302305F8013C05F191
:1025F800FF35ACEB05032361CDF800803B4603AA09
:1026080021463046FFF7F6FE01304DD14FF0FF303E
:1026180005B0BDE8F083394884F84510136821688F
:102628001D1D1B6815600A060BD5CA0744BF41F07B
:10263800200121601BB9226822F0200222601022AA
:10264800B7E74D0648BF9BB2EFE76546B3FBF2F12B
:1026580002FB1133C35C05F8013D0B460029F5D197
:10266800B9E713682568181D6169106028061B689A
:1026780001D5196002E06A06FBD51980002365467A
:102688002361B9E71368191D11601D68626800218C
:10269800284600F047F808B1401B60606368236172
:1026A800002384F84330A7E723692A463946304691
:1026B800C0470130AAD023689B0713D4E068039B66
:1026C8009842B8BF1846A3E701234A463946304620
:1026D800C04701309AD00135E368039A9B1AAB4290
:1026E800F2DCEBE7002504F11909F5E7002BACD182
:1026F800037804F1420584F842306CE7952A00001B
:10270800A62A000038B50023054C05460846236074
:10271800FEF788F8431C02D1236803B12B6038BD4B
:10272800B404002010B5C9B202449042034601D156
:10273800002303E01C7801308C42F6D1184610BD06
:10274800884210B501EB020307D8421E99420AD00D
:1027580011F8014B02F8014FF8E78342F5D98118C7
:10276800D21AD34200D110BD13F8014D01F8014D22
:10277800F7E770477047000038B50546002943D091
:1027880051F8043C0C1F002BB8BFE418FFF7F1FF09
:102798001E4A1368104633B9636014602846BDE8C2
:1027A8003840FFF7E7BFA3420BD92168621893426C
:1027B80001BF1A685B685218226063600460EDE725
:1027C80013465A680AB1A242FAD919685818A042A1
:1027D8000BD120680144581882421960DED1106874
:1027E8005268014419605A60D8E702D90C232B605B
:1027F800D4E7206821188A4201BF11685268091875
:10280800216062605C60C9E738BD00BFAC0400208D
:10281800F8B5074614460E4621B9BDE8F8401146FA
:10282800FFF73EBC22B9FFF7A7FF25462846F8BDAB
:1028380000F014F8A0420FD221463846FFF730FCCA
:1028480005460028F2D031462246FFF7E3FB314621
:102858003846FFF791FFE9E73546E7E751F8043CCA
:10286800181F002BBCBF0B58C01870475374616306
:102878006B206672616D653A0A00000020523020B4
:102888003D2020253038580A000000002052312011
:102898003D2020253038580A000000002052322000
:1028A8003D2020253038580A0000000020523320EF
:1028B8003D2020253038580A0000000020523132CF
:1028C800203D20253038580A00000000204C5220B6
:1028D8003D2020253038580A0000000020504320B1
:1028E8003D2020253038580A00000000205053525F
:1028F800203D20253038580A000000004653522F4A
:102908004641523A0A0000002043465352203D20D7
:1029180020253038580A00002048465352203D20D0
:1029280020253038580A00002044465352203D20C4
:1029380020253038580A00002041465352203D20B7
:1029480020253038580A0000204D4D464152203D80
:1029580020253038580A00002042464152203D20A8
:1029680020253038580A00004D6973630A000000BA
:10297800204C522F4558435F52455455524E3D20E6
:10298800253038580A0000005B486172644661755A
:102998006C745D0A000000005B4275734661756CDB
:1029A800745D0A005B55736167654661756C745D9B
:1029B8000A0000000000024040000240800002407F
:1029C800C0000240000102403100010081001300F4
:1029D8000100F702040003000B0208000100AE002A
:1029E80003000100930302000100AE000100010092
:1029F800AE00010003000B02010001000505010003
:102A080001000000010001000000010001000000B9
:102A180001000100000001000100000000000000AA
:102A2800000000000000000000000000000000009E
:102A3800000000000000000000000000000000008E
:102A4800000000000000000000000000000000007E
:102A5800000000000000000000000000000000006E
:102A6800000000000000000000000000000000005E
:102A7800000000000000000000000000232D302BA3
:102A88002000686C4C006566674546470030313267
:102A980033343536373839414243444546003031BE
:0F2AA8003233343536373839616263646566001E
:102AB80078563412080100200000000000000000D1
:102AC8000080014000000000000004000E000B0020
:102AD8000D000000000000000000000000000000E1
:102AE8000081014000000400000002000D000B00FE
:102AF80029000000000000000000000000000000A5
:102B080000C0014000000820004000000E0009003D
:102B18003700000000000000000000000E00000068
:102B28000050004001000000070000000000000005
:102B3800000000000000000000000000000000008D
:102B480000000000000000009C00002000000000C1
:102B5800442A0000642A0000242A00000000000023
:102B6800000000000000000000000000000000005D
:102B7800000000000000000000000000000000004D
:102B8800000000000000000000000000000000003D
:102B9800000000000000000000000000000000002D
:102BA8000000000000000000000000003254769889
:04000003000001797F
:00000001FF
