:100000000040002065170000511600009702000014
:10001000E1020000E50200002D0300005917000076
:100020005917000059170000591700007503000008
:1000300079030000591700007D0300007D300000A7
:10004000313000008928000095280000A128000018
:10005000AD280000B9280000C5280000D128000004
:10006000DD280000E92800005D1600004529000099
:10007000552900007D270000952C0000A12A0000D2
:10008000C12A0000691600007516000081160000E4
:10009000192B00002D2B0000D12A0000E12A0000BE
:1000A000F12A0000052B00008D16000099160000B3
:1000B000A5160000B1160000BD1600004920000082
:1000C00075200000E1240000C9160000D5160000CC
:1000D000E1160000ED160000F916000005170000FB
:1000E000652900008D270000B12A000011170000CB
:1000F00059170000152400001D170000F528000006
:100100000129000059170000591D00001D1E0000A4
:10011000991E0000951F0000A52400009D270000E7
:10012000291700003517000075290000411700004D
:100130004D170000004000208D02000093020000D7
:1001400097020000E1020000E50200002D0300001C
:10015000000000000000000000000000000000009F
:100160007503000079030000000000007D0300001B
:100170007D3000009103000000B583B000F09CFBCF
:10018000304B314A1360314A1360314B314A03E03E
:1001900011681960043304322F498B42F8D32A4B7B
:1001A0001A682E4B9A4200D0FEE7284B1A682C4B57
:1001B0009A42F9D1234B2B4A13602B4A13602B4BE5
:1001C00002E000221A600433294A9342F9D3254BF6
:1001D0001B6813B9244B1B6803B1FEE700F078FBE2
:1001E000694601A800F044FB224B234CE41AA410FA
:1001F0000025AC4214DC214B214CE41AA41000254C
:10020000AC4213DC0099019803F082F805461D4BBF
:100210001D4CE41AA410002C0EDC284600F004FB50
:10022000144B53F8253098470135E2E7134B53F848
:10023000253098470135E3E7013C124B53F8243051
:100240009847E8E7BABADECA00000020740300202D
:1002500000000020C45400007803002078563412B7
:100260003254769878030020D408002078030020C8
:10027000D8080020280800002808000028080000EE
:1002800028080000280800002808000008B5FFF72B
:1002900073FF00BEFEE71EF0040F0CBFEFF30880F3
:1002A000EFF309807146374A10472DE9F04182B0DB
:1002B00004468846084B5E6B9F6B9D6A074800F0BA
:1002C000DFFACDF800803B4632462946204600F052
:1002D00003FB00BEFEE700BF00ED00E0744F00002E
:1002E00000BEFEE71EF0040F0CBFEFF30880EFF333
:1002F00009807146244A10472DE9F04182B0044636
:100300008846084B5E6B9F6B9D6A074800F0B8FA01
:10031000CDF800803B4632462946204600F0DCFA04
:1003200000BEFEE700ED00E0844F00001EF0040F69
:100330000CBFEFF30880EFF309807146134A1047B2
:100340002DE9F04182B004468846084B5E6B9F6BF6
:100350009D6A074800F094FACDF800803B4632468B
:100360002946204600F0B8FA00BEFEE700ED00E0A6
:10037000904F000000BEFEE700BEFEE700BEFEE7B5
:1003800070470000AB020000F902000041030000CA
:02039000FEE786
:080394006039000001000000C7
:10080000C454000000000020780300209C03000076
:10081000000000100000001078030020D80800201D
:080820000000001000000010B0
:10082800FEE7000008B503460C4A12685AB10B4AA5
:100838001068033323F003030344094A934206D89C
:10084800064A136008BD0749044A1160EFE703F040
:10085800BDFB0C2303604FF0FF3008BD7C03002074
:10086800003C0020D808002001230360014B0B60E6
:10087800704700BF040000200FB400B583B004AB7C
:1008880053F8042B01938021064803F03DFD00280E
:1008980003DD0146034800F007F803B05DF804EBF8
:1008A80004B07047840300204FF0FF307047000009
:1008B80008B500F06BF9024B024A9A6008BD00BF08
:1008C80000ED00E00000000008B500F0C3F808BD26
:1008D800F8B504460D4617461E462748FFF7CCFFD5
:1008E80021682648FFF7C8FF61682548FFF7C4FF5D
:1008F800A1682448FFF7C0FFE1682348FFF7BCFF61
:1009080021692248FFF7B8FF61692148FFF7B4FF62
:10091800A1692048FFF7B0FFE1691F48FFF7ACFF66
:100928001E48FFF7A9FF29461D48FFF7A5FF1D4CE4
:10093800E16A1D48FFF7A0FF216B1C48FFF79CFFE9
:10094800E16B1B48FFF798FF15F0800F0AD115F4EB
:10095800004F0CD11748FFF78FFF06991648FFF78D
:100968008BFFF8BD39461548FFF786FFEFE731469C
:100978001348FFF781FFEDE7584E0000684E00006E
:10098800784E0000884E0000984E0000A84E0000E7
:10099800B84E0000C84E0000D84E0000E84E0000D7
:1009A800F44E000000ED00E0044F0000144F00007A
:1009B800244F0000544F00005C4F0000344F0000EB
:1009C800444F0000114B9B6813F0006F04D00F4B8D
:1009D8001B6813F0010F12D10D4B1B8813F4807F95
:1009E8000FD10C4B1B8913F0200F0CD10A4B1B881D
:1009F80013F0010F01D1002070470120704701203A
:100A08007047012070470120704700BF0040084030
:100A1800005C0040802500400080004069B10C4B1C
:100A28009B8803F03F030278934206DB084B9B88C0
:100A3800C3F305234278934209DA037803F03F03AE
:100A48004278120202F47C521343014A93807047A1
:100A580000800240184B1B8803F00303032B2AD89D
:100A6800DFE803F002060A25144A154B1A6070479E
:100A7800124A134B1A6070470F4A1388938903F080
:100A88003F010E4B03FB01F3928902F0C002402A9A
:100A98000BD0802A00D19B08074A928912F4807FE4
:100AA80000D05B08064A136070475B08F4E7054B03
:100AB8001A68034B1A607047008002400024F40053
:100AC8000C0400200804002010B514284ED8DFE8D4
:100AD80000F04A0B0F13171A1D202326292C2F323A
:100AE80035383B3E414447004FF400631C463DE027
:100AF80000234FF4807439E04FF480731C4635E0CE
:100B08000023F02432E01023F0242FE02023F024E7
:100B18002CE03023F02429E04023F02426E0502361
:100B2800F02423E06023F02420E07023F0241DE06B
:100B38008023F0241AE09023F02417E0A023F02467
:100B480014E0B023F02411E0C023F0240EE00023C9
:100B580003240BE00123032408E00223032405E017
:100B680003231C4602E000234FF4006472B60649D2
:100B78000A8892B222EA040213439BB20B8062B63F
:100B8800FFF768FF10BD00BF0080024008B572B6CD
:100B98001D4B1E4A9A604FF4E0225A62BFF36F8FD2
:100BA800BFF34F8F62B61A4A4CF614339381138AF7
:100BB8009BB243F003031382154B1B8A13F4007F87
:100BC800FAD0144B1A8892B222F0030292B21A8019
:100BD80000221A8041F210029A8088229A818F227C
:100BE8001A824FF4C0729A820120FFF76DFF084AFB
:100BF8004CF614339381138A9BB223F008039BB2FB
:100C08001382FFF727FF08BD00ED00E00000000099
:100C1800002400400080024010B4032814D8DFE804
:100C280000F00F02070B022208244FF480730BE038
:100C380004221446F02307E011220024032303E0D2
:100C480000220B244FF400630449088880B218403E
:100C5800204180B21044C0B210BC704700800240EE
:100C680070B50546FFF7F6FE0F2D20D8DFE805F032
:100C780008081919191919192222222222222222B6
:100C8800124B9B8803F03F03012B1AD00F4B9C8813
:100C980004F03F049B8813F0800F15D0A4080C4E75
:100CA80005E00C4B1E68094B9C88C4F30524B6FB71
:100CB800F4F070BD074B1E68044B9C8804F03F0499
:100CC800F5E70124024EF2E7014EF0E7008002400A
:100CD800008793030C04002010B504460920FFF791
:100CE800BFFF000D02D004FB00F010BD204610BD70
:100CF800072815D8DFE800F0120406080A0C0E10C1
:100D080080230DE020230BE0102309E0082307E0EF
:100D1800042305E0022303E0012301E04FF480737C
:100D280072B641B907498A8A92B213439BB28B8241
:100D380062B60020704703498A8A92B222EA030306
:100D48008B82F5E70080024010B50F280BD8DFE84A
:100D580000F008081818181818181C1C1C1C1C1C53
:100D68001C1CCA01802472B609498B889BB223EAED
:100D7800040313439BB28B8062B6FFF76BFE00201F
:100D880010BD0A024FF47C54EDE78AB23F24EAE72B
:100D98000080024030B583B006283DD8DFE800F077
:100DA800040B1219392024004CF61432334B9A8163
:100DB800334C082530E04CF61432304B9A81304CD5
:100DC800042529E04CF614322C4B9A812C4C022530
:100DD80022E04CF61432294B9A81294C01251BE05C
:100DE800284C4FF4007517E000224FF400612648A4
:100DF80001F0F1FC10B140F2113018E001224FF47B
:100E08000061214801F0D8FC002834D040F21130AC
:100E18000DE01E4C4FF4007572B651B123889BB299
:100E28002B439BB2238062B6012808D0002003B070
:100E380030BD23889BB223EA05032380F3E709B179
:100E48000020F4E70920FFF747FF0023019302E0A1
:100E5800019B01330193019B9842F9D872B64CF675
:100E68001432064B9A8123889BB223EA0505258014
:100E780062B60020DBE70020D9E700BF002400406D
:100E88001024004010800240000002400C80024004
:100E980010B50446062800F2F980DFE810F00700D4
:100EA80068001C00AF005C006200EE000320FFF742
:100EB800B3FE122802D140F2093010BD0020FFF71E
:100EC800ABFE01284DD10320FFF7A6FE132848D119
:100ED80040F20A3010BD0320FFF79EFE112802D110
:100EE80040F2093010BD0020FFF796FED0B14FF058
:100EF80080431B8903F06003202B1BD0694B1B899F
:100F080003F06003202B1ED0674B1B8903F060039E
:100F1800202B26D1644B1B8913F0100F21D040F2EF
:100F28000B3010BD0320FFF777FE1328DFD140F206
:100F38000A3010BD4FF080431B8913F0100FDDD02D
:100F480040F20B3010BD574B1B8913F0100FDBD04C
:100F580040F20B3010BD0320FFF75EFE132800F0AF
:100F6800988000212046FFF715FF002010BD0120C2
:100F7800FFF752FE032807D04C4B1B6813F0010FF4
:100F880009D040F20D3010BDFFF71CFD0028F3D04A
:100F980040F20E3010BD464B1B8903F4D063B3F505
:100FA800207F79D04FF080431B8903F06003602BCA
:100FB80013D03C4B1B8903F06003602B16D03A4BCF
:100FC8001B8903F06003602BCBD1374B1B8913F0CF
:100FD800100FC6D040F20B3010BD4FF080431B8974
:100FE80013F0100FE5D040F20B3010BD2D4B1B89CC
:100FF80013F0100FE3D040F20B3010BD0120FFF7C3
:101008000BFE022821D02A4B1B8903F4D063B3F5C9
:10101800906F44D04FF080431B8903F06003402B4E
:101028001AD0204B1B8903F06003402B1DD01E4BA8
:101038001B8903F06003402B93D11B4B1B8913F0D2
:10104800100F8ED040F20B3010BDFFF7BBFC00280C
:10105800D9D040F20E3010BD4FF080431B8913F0F9
:10106800100FDED040F20B3010BD0E4B1B8913F071
:10107800100FDCD040F20B3010BD0320FFF7CCFD81
:1010880014287FF46EAF40F2093010BD40F20230F0
:1010980010BD40F2093010BD4FF4437010BD4FF43D
:1010A800437010BD000400400008004000260040C6
:1010B8000025004008B50020FFF7AEFD012814D038
:1010C8001120FFF701FD00210A48FFF7A7FC0021C6
:1010D8000120FFF739FE0520FFF7DAFE0420FFF7AD
:1010E800D7FEFFF7B7FC002008BD1220FFF7ECFC85
:1010F800E9E700BF1600002008B5374B1B8A9BB2F2
:1011080006284FD8DFE800F0141C040C36422400EF
:1011180013F0020F48D013F4007F47D0022008BD17
:1011280013F0010F44D013F4807F43D0022008BD90
:1011380013F0080F40D013F4006F3FD0022008BD11
:1011480013F0040F3CD013F4806F3BD0022008BD8D
:10115800224801F04FFB10F4006F01D0002008BDB9
:101168001E4801F04AFB10F4006F01D1022008BDAF
:10117800002008BD1A4B9B8913F4007F24D0184B1C
:101188001B8B13F0010F21D0022008BD144B1B8AC2
:1011980013F4007F1CD0124B1B8B13F0100F19D0C7
:1011A800022008BD032008BD002008BD012008BD9D
:1011B800002008BD012008BD002008BD012008BD91
:1011C800002008BD012008BD002008BD012008BD81
:1011D800002008BD012008BD002400400000024096
:1011E8000080024070B505460C46FFF785FF0228CF
:1011F8003BD0052D0CD001212846FFF7CBFD002C54
:1012080035D0012C21D02046FFF766FD044620E0AA
:1012180072B6184A138A9BB203F03F0643F40F7361
:1012280043F00303138262B62220FFF755FD00E066
:1012380001380028FCD172B60E4A138A9BB223F0FB
:101248003F033343138262B6D9E743F69920DBE7BD
:10125800013C24B12846FFF74FFF0228F8D114B902
:101268004FF4427070BD002070BD002070BD00209A
:1012780070BD00BF0080024010B501210220FFF7B9
:10128800B1FF044608B1204610BD1120FFF71CFC31
:1012980000210948FFF7C2FB00210120FFF754FD98
:1012A8000520FFF7F5FD0420FFF7F2FD0020FFF70A
:1012B800EFFDFFF7CFFBE6E70E00002070B504282E
:1012C80004D005280FD040F2023070BD1C461546E8
:1012D8000E460320FFF7A0FC132810D044EA0603AB
:1012E8002B43084902E00B431343074972B60A88A7
:1012F80002F47E4213430B8062B6002070BD4FF4A7
:10130800447070BD0C8002401080024010B500206F
:10131800FFF782FC012807D001210220FFF762FFB6
:1013280004463CB1204610BD01210020FFF75AFFBA
:101338000446F6E70320FFF76FFC132834D04FF478
:101348008073102280210420FFF7B8FF01210420B8
:10135800FFF748FF04460028E4D1284C0121204625
:10136800FFF75CFB1320FFF7AFFB00212046FFF7D8
:1013780055FB01210846FFF7E7FC00230F228021D7
:101388000520FFF79BFF01210520FFF72BFF0446EF
:101398000028C7D1FFF740FC01282BD00020FFF719
:1013A80077FDFFF757FBBDE7154B9B8903F0C0039B
:1013B800802B0FD00020FFF72FFC012816D011201A
:1013C800FFF782FB4FF48073102280210420FFF77F
:1013D80075FFBBE70A4B9B8903F03F03102BE9D14C
:1013E800074B9B8913F4807FB0D1E3E71220FFF706
:1013F8006BFBE7E70220FFF74BFDD2E71200002066
:101408000080024038B50020FFF706FC012807D00D
:1014180001210220FFF7E6FE04463CB1204638BD14
:1014280001210020FFF7DEFE0446F6E70320FFF760
:10143800F3FB13282BD04FF4807310228021042053
:10144800FFF73CFF01210420FFF7CCFE04460028EB
:10145800E4D1244D01212846FFF7E0FA1320FFF7D5
:1014680033FB00212846FFF7D9FA0520FFF710FDC6
:101478000020FFF7D1FB01282FD00020FFF708FD3F
:1014880000210120FFF760FCFFF7E4FAC6E7164BDE
:101498009B8903F0C003802B0FD00020FFF7BCFB13
:1014A800012816D01120FFF70FFB4FF4807310228C
:1014B80080210420FFF702FFC4E70B4B9B8903F050
:1014C8003F03102BE9D1084B9B8913F4807FB9D1D6
:1014D800E3E71220FFF7F8FAE7E70220FFF7D8FC66
:1014E800CEE700BF100000200080024070B439B180
:1014F8000C460021032806D8DFE800F0410B0B0753
:101508000221204CF6E7002604E041F00401002601
:1015180000E0042672B61C4D44F65903AB804FF226
:101528007B23AB802B881BB223F0030303439BB2BE
:101538002B80164803690B4323EA06030361EFF384
:101548001181520182F311880AE0114B1B8B03F0C1
:101558000E03002BF9D1BFF34F8F30BF62B672B6BE
:101568002378002BF1D00023237081F31188074AD8
:10157800136923F002031361BFF34F8F62B6002093
:1015880070BC7047100400200024004000ED00E00B
:1015980080250040034610B101221A70704772B6C8
:1015A800044A136923F002031361BFF34F8F62B635
:1015B800014BF1E700ED00E01004002038B50446C7
:1015C8001F4B1B7813B10025002108E0FFF754FEDC
:1015D800054628BB01221A4B1A70F5E70531182970
:1015E80008D8184B13F83120154B1B789A42F5D1BF
:1015F8000B4600E00B464A1D93420BDA114A02EBF8
:10160800C3025278A24201D00133F4E70D4C04EB37
:10161800C30400E000247CB1A3781BB940F2133561
:10162800284638BD63680BB198470546002DF7D1A9
:10163800A278034B1A70F3E740F21335F0E700BFC6
:1016480004040020A04F0000684620F007018D46E2
:1016580001B4FEE7684620F007018D4601B4FEE7B5
:10166800684620F007018D4601B4FEE7684620F081
:1016780007018D4601B4FEE7684620F007018D4654
:1016880001B4FEE7684620F007018D4601B4FEE785
:10169800684620F007018D4601B4FEE7684620F051
:1016A80007018D4601B4FEE7684620F007018D4624
:1016B80001B4FEE7684620F007018D4601B4FEE755
:1016C800684620F007018D4601B4FEE7684620F021
:1016D80007018D4601B4FEE7684620F007018D46F4
:1016E80001B4FEE7684620F007018D4601B4FEE725
:1016F800684620F007018D4601B4FEE7684620F0F1
:1017080007018D4601B4FEE7684620F007018D46C3
:1017180001B4FEE7684620F007018D4601B4FEE7F4
:10172800684620F007018D4601B4FEE7684620F0C0
:1017380007018D4601B4FEE7684620F007018D4693
:1017480001B4FEE7684620F007018D4601B4FEE7C4
:10175800684620F007018D4601B4FEE7684620F090
:1017680007018D4689B500AF0A4B1B6883F30888CB
:10177800094A44F6590393804FF27B2393801388D8
:101788006FEA43436FEA53439BB2138001F0BCFDF9
:10179800FEE700BF000000000024004000221F2ACE
:1017A80016D810B406E05B00037049000132D2B2CB
:1017B8001F2A0BD8037883EA116414F0800FF2D043
:1017C8005B00DBB283F007030370EEE710BC7047E1
:1017D800704770B582B006460D4601238DF8073074
:1017E800002406E056F824100DF10700FFF7D6FF95
:1017F8000134AC42F6D39DF8070002B070BD70B555
:10180800426C836C0B25157000215170022696706E
:10181800C4687034D4601674032656749174D174F5
:10182800012414750C221A7059709C70C2686C32AD
:101838009A605C741E749974D9741C75284600F0FB
:1018480073FE18B9002424B1204670BD41F20B5430
:10185800F9E700210C2000F067FE0028F4D041F2DF
:101868000B54F1E708B50B2000F0B4FE10B141F2BB
:101878000B5008BD0C2000F0ADFE10B141F20B502A
:1018880008BD08BDC368D9600020704710B472B69F
:10189800C368054CC3F800410A60C3680020C3F858
:1018A800000162B610BC7047AFA587DE10B50446CC
:1018B800406C51B18160426000F0AEFE08B141F267
:1018C8000B50002384F84C3010BD00F02BFF00288B
:1018D800F7D041F20B50F4E738B50446806C69B193
:1018E8001546C160426000F097FE08B141F20B5006
:1018F800A4F85450002384F84D3038BD00F012FF8E
:101908000028F7D041F20B50F4E7C3790B700020A0
:101918007047437833B190F84D300BB9002302E09B
:10192800012300E001230B700020704772B6C268E3
:10193800536843F00103536062B600207047C368E0
:101948005B6813F0010F16D1002343B972B6C16862
:101958008A6822F4006222F008028A6062B643B9FB
:1019680072B6C1688A6822F4805222F010028A6036
:1019780062B61846704741F20F53E6E7C2685368EB
:1019880023F00103536072B6C268936823F480534E
:1019980023F01003936062B6C268136823F4F0332F
:1019A80023F4807313600020704738B504460D4651
:1019B800037A3BB90878E3681A6E824207D041F28D
:1019C800105038BD4988281DFFF703FFF3E75A6E0A
:1019D8006B889A4202D041F2105038BD002038BDC1
:1019E80001720020704703690B600020704743694B
:1019F8000B6000207047000070B5064600250560A2
:101A08001E4C4FF47A73236141F64C5363611C4BAF
:101A1800E36001210846FFF76BF91A4B4FF4802267
:101A28005A604FF400225A604FF480125A604FF403
:101A380000125A60144B6364144BA3644FF4806320
:101A4800A4F85830A4F85A50A4F856502565A4F8BC
:101A580054502572A57001236372E56125626562A1
:101A6800E5626563E56325762046FFF7C8FE034611
:101A780010B9012121703460184670BD4407002058
:101A88000000084000E100E02C04002014040020BD
:101A980038B50546114B4FF48022C3F884204FF423
:101AA8000022C3F884204FF48012C3F884204FF436
:101AB8000012C3F88420002444648464FFF7D2FE33
:101AC800AC70EC612C626C62EC626C63EC632C7041
:101AD80021460120FFF70CF9204638BD00E100E05F
:101AE80010B5013903290ED8DFE801F00B0205080B
:101AF8003320154C07E03420144C04E03520144CF6
:101B080001E03220134C83B9236823EA02022260E1
:101B18002368B3B9430900F01F00012202FA00F05C
:101B280020330D4A42F823000BE023681A43226051
:101B3800420900F01F00012303FA00F0064B43F8A6
:101B48002200002010BD00BF90000840940008400B
:101B5800980008408C00084000E100E001390329A2
:101B680006D8DFE801F002070B0F084BC3F8A020E6
:101B780000207047054BC3F8A420F9E7034BC3F8CE
:101B8800A820F5E7014BC3F8AC20F1E700000840B6
:101B980070B504460D46002B54D011461E4601234D
:101BA80043702265B0F85820964240D83246FFF775
:101BB80093FE0023A4F856300122284B5A60294688
:101BC80051F8042B120C2046FFF770FE4FF000422C
:101BD800224B1A600023A371E371A380E268536665
:101BE80072B66378002B33D04FF4006343F00803D8
:101BF800E26891680B43936062B672B663784BBB38
:101C0800002343F01003E26891680B43936062B6C7
:101C180072B6892203212046FFF7A0FF01238922FB
:101C280003212046FFF75CFF62B6002070BDFFF776
:101C380053FEB4F85830F61AA4F856600023A4F8F6
:101C48005C30B9E700234370012380F84D30B6E7D4
:101C58000023CBE74FF48053D3E700BF00E100E057
:101C680070B582B004460D46FFF792FFC0B9012354
:101C7800A370A3791BB9A3889BB2002BF9D0A388C2
:101C88009BB293B90223A370002323762046FFF763
:101C98004DFE064688B90323A370637A03BB09E0A7
:101CA80006462046FFF76AFE04E02046FFF766FE78
:101CB800A688B6B2304602B070BD2046FFF75EFE79
:101CC800F8E70DF107012046FFF71FFE03461BE06A
:101CD80062B60BBB9DF80730F3B9A3889BB2DBB99A
:101CE800002204F118010120FFF700FC72B602A9D6
:101CF800002301F8013D2046FFF70BFE034618B903
:101D08009DF80720002ADCD1002BE1D19DF807209F
:101D1800002ADDD12276DBE70423A370A3889BB2D7
:101D280063B92046FFF70BFE064668B90023A37087
:101D380029462046FFF739FE0646BBE72046FFF74F
:101D48001DFEA688B6B2B5E72046FFF717FEB1E735
:101D580070B52F4BDA68D2F8A030D2F88C2013F087
:101D6800010F04D012F0010F22D1002400E000245A
:101D780013F0020F04D012F0020F01D044F0020455
:101D880013F0040F04D012F0040F01D044F004043F
:101D980013F0080F04D012F0080F01D044F0080423
:101DA80013F0100F06D012F0100F2AD1002502E010
:101DB8000124DDE7002513F0200F04D012F0200FD6
:101DC80001D045F0200513F0400F04D012F0400F69
:101DD80001D045F040050E4B5B6A2BB144EA050182
:101DE8000B4A926A11420ED1094E00232A4601215C
:101DF8003046FFF775FE224601213046FFF7AEFE5A
:101E080070BD1025D7E7002201489847ECE700BFCE
:101E18004407002010B51D4BDA68D2F8A430D2F878
:101E2800902013F0010F04D012F0010F27D10024E5
:101E380000E0002413F0020F04D012F0020F01D0CA
:101E480044F0020413F0040F04D012F0040F01D080
:101E580044F0040413F0080F04D012F0080F01D066
:101E680044F00804094BDB6A1BB1084A126B1442A0
:101E780007D1224602210548FFF770FE10BD012454
:101E8800D8E70022214601489847F2E74407002096
:101E980070B53C4BDA68D2F8A830D2F8942013F029
:101EA800010F06D012F0010F1FD001243549CC7163
:101EB80000E0002413F0020F04D012F0020F01D04A
:101EC80044F0020413F0040F04D012F0040F01D000
:101ED80044F0040413F0080F09D012F0080F49D099
:101EE800012028498871082502E00024E2E700253E
:101EF80013F0100F04D012F0100F01D045F01005A8
:101F080013F0200F04D012F0200F01D045F0200567
:101F180013F0400F08D012F0400F05D044F04004F1
:101F280041F208501749888013F0800F08D012F04A
:101F3800800F05D044F0800441F20752114B9A807B
:101F4800114E3046FFF726FBF36933B144EA050129
:101F5800A6F11802926B11420ED10A4E00232A46AE
:101F680003213046FFF7BCFD224603213046FFF728
:101F7800F5FD70BD0025BBE70022A6F118009847C3
:101F8800EBE700BF440700205C07002070B52B4B2F
:101F9800DA68D2F8AC30D2F8982013F0010F04D0E8
:101FA80012F0010F1ED1002400E0002413F0020FEC
:101FB80004D012F0020F01D044F0020413F0040F11
:101FC80004D012F0040F01D044F0040413F0080FF9
:101FD8000AD012F0080F2AD041F20A501749888017
:101FE800082502E00124E1E7002513F0100F08D0CE
:101FF80012F0100F05D045F0100541F209520F4BB1
:102008009A800E4BDB6B2BB145EA04010B4A126C2C
:1020180011420ED1094E0023224604213046FFF713
:102028005FFD2A4604213046FFF798FD70BD002564
:10203800DBE7002201489847ECE700BF440700208F
:1020480008B54FF00042074BC3F88020064B012229
:1020580083F84C209A71DB691BB1002211460248B3
:10206800984708BD00E100E04407002070B5314BF7
:10207800B3F85460B3F85620002A48D0B3F85C305F
:102088005BB32C4B196DB3F8583001EB43052A4864
:1020980001609A421BD80021264BA3F85610002154
:1020A800244BA3F85C10244B19682248FFF714FC52
:1020B8000122224B1A70224C2046FFF76BFAA368C4
:1020C80023B12A463146A4F11800984770BDD21AA8
:1020D8001849A1F856201A46E1E7164B1D6DB3F8CA
:1020E800581005EB410114480160B3F85A309A4280
:1020F80007D800200F49A1F856000E49A1F85C3016
:10210800D1E7D21A0B49A1F856201A46F5E70B4B2E
:102118001B7863B1084B1D6801230A4AC2F8843052
:10212800044A82F84D300022044B1A70C3E7014B71
:102138001D6DF1E74407002044040020110400202D
:102148005C07002000E100E008B500231A460249B8
:10215800FFF786FD08BD00BFBC50000008B500238E
:102168001A460249FFF77CFD08BD00BFAC500000CD
:1021780070B504464FF420621A49FFF787FB002325
:102188001A4619492046FFF76BFD054608B128464F
:1021980070BD164BD3F88060B6B24FF4C0621149D7
:1021A8002046FFF773FB00231A4611492046FFF724
:1021B80057FD05460028EAD10C4BD3F8801089B2A8
:1021C800C6F5004202EB420253029A008E1B92FBB4
:1021D800F6F2A2F6FF32521002492046FFF756FBEC
:1021E800D5E700BF240108406850000000000840FF
:1021F8009050000010B50A4C236923F001032361B5
:102208000021FFF73FFB236C23F02003236423689E
:1022180023F4033323F43C732360002010BD00BF74
:102228000000084030B583B005460C4601A9FFF709
:10223800DAFB024610B1104603B030BD69462846A5
:10224800FFF7D5FB02460028F5D14FF4D863019972
:1022580003FB01F35B000099B3FBF1F301335B0867
:1022680003F500632360E6E72DE9F0418CB00546ED
:1022780002A9FFF7B8FB044618B120460CB0BDE828
:10228800F08101A92846FFF7B2FB04460028F4D1E3
:1022980069462846FFF7C6FF04460028EDD14FF4EB
:1022A80080424A492846FFF7F1FA00224849284661
:1022B800FFF7ECFA002308E0464A52F823100CAA6C
:1022C80002EB830242F8241C0133082BF4D9009B4B
:1022D80003F12A43059301212846FFF781FB0023D8
:1022E8001A4603A92846FFF7BBFC044600212846E6
:1022F800FFF776FBF4B184B3002C43D0002C4ED00A
:10230800002CBAD1344BD3F88020C2F50042019B8F
:102318009B030299B3FBF1F303FB08F898FBF2F86F
:1023280006FB08F606F50052920B28492846FFF7E7
:10233800ADFAA2E7284BD3F88070C7F50047BF0075
:102348003A4623492846FFF7A1FA00231A462349AB
:102358002846FFF785FC0446CDE71F4BD3F88030AD
:10236800A3F500431E4EB6FBF3F63246174928463E
:10237800FFF78CFA00231A461A492846FFF770FC23
:102388000446B9E7144BD3F88030A3F5004800237E
:102398001A4615492846FFF763FC0446AEE70E4B7C
:1023A800D3F88020C2F50042BF03B7FBF6F707EB6E
:1023B800820207492846FFF769FA00231A460B49A3
:1023C8002846FFF74DFC04469AE700BF0401084081
:1023D80008010840E05000000000084004510000D7
:1023E8000080AA12245100004451000068510000E6
:1023F80072B6406883889AB201F47C431BB21343D7
:102408009BB2838062B600207047000010B5224B53
:102418001B78002B32D0204BDB687BB372B61E4B87
:102428005A68918813889BB20B4003F47C4262B6C9
:1024380012F4004F27D1002413F4804F02D044F443
:102448008044A4B213F4005F02D044F40054A4B250
:1024580013F4805F02D044F48054A4B213F4006FE4
:1024680002D044F40064A4B213F4806F02D044F4A0
:102478008064A4B2084B1B8A1C4207D12146064837
:10248800FFF7B6FF10BD4FF40044D5E70248C36814
:10249800002221469847F1E74804002008B50D4B73
:1024A80001221A725A68516B1B783BB1CAB2094BA8
:1024B800DB681BB10748007C024206D1054B5B680C
:1024C8001A6B5A63BFF34F8F08BD0022C9B2014887
:1024D8009847F3E75C04002038B5114B1C694CB9E8
:1024E80072B6104A0023936053600D4A1372D3608A
:1024F80062B638BDB4F5806F28BF4FF480641D46BE
:10250800DB680848836044600123037500F084F8A1
:10251800EB6803EB8403EB602B691B1B2B6138BD55
:10252800A4070020BC07002070B4012303FA00F0C0
:1025380072B6254A536843F00103536062B6234BD1
:102548001B78002B30D0002930D0012935D072B645
:102558001E4A53681843506062B6002070BC70472A
:102568002C011B4A1619002313517360B36002F53E
:102578008072161913517360B36001350F2DEFDDAA
:10258800114B134A9A6000221A625A629A62DA62FE
:102598001A635A639A634FF6FF72DA63FF22DA64AA
:1025A80001220A4B1A70CEE70025E7E772B6064A01
:1025B800D36B0343D36362B6C9E772B6024A936B1F
:1025C8000343936362B6C2E7000001407004002031
:1025D8007C0400200E4B5B68C34013F0010F02D14E
:1025E80041F20120704772B6012202FA00F0084B4E
:1025F8005A6822EA00025A6062B65B682BB900206A
:10260800044B5860024B187070470020704700BF99
:10261800700400200000014010B443788BB903789F
:102628003C4A02EB031283681360C368536072B6B6
:10263800037C062B11D8DFE803F0090909101919E2
:1026480019000378344A02EB0312ECE71468416876
:10265800013901FA03F323441360437C062B15D890
:10266800DFE803F00D0D0D14424242001468416882
:102678000139043B01FA03F3E31A1360EDE75468E8
:102688004168013901FA03F32344536062B6417C7F
:10269800037C9B0643EA8173817843EA0163C17C2A
:1026A80043EA81334168013943EA0113017D0B4351
:1026B8009360027801239340027C032A1DD9174AAC
:1026C800C2F81038427C032A1BD9144AC2F81838B9
:1026D800134A9268134218D1104AC2F804380F4AB4
:1026E8009362002010BC7047546841680139043B6C
:1026F80001FA03F3E31A5360C8E7084AC2F814382A
:10270800E0E7064AC2F81C38E2E7044AC2F8003893
:10271800E5E700BF7C0400207C05002000000140A4
:102728007004002010B403780B4A02EB0312012155
:10273800994072B6936823F47F5323F03F034468AB
:10274800013C007D40EA04100343936062B6034BEA
:102758009962002010BC70477C04002000000140F2
:1027680008B543681B889BB283611C30FEF712FFD3
:1027780008BD000008B50248FFF7F2FF08BD00BF1A
:102788001800002008B50248FFF7EAFF08BD00BF9F
:102798003800002008B50248FFF7E2FF08BD00BF77
:1027A80058000020431E0120984080B2014B188633
:1027B800002070470024004072B63AB983899BB262
:1027C80023EA0101818162B60020704783899BB2A8
:1027D80019438181F7E772B63AB903899BB223EAB4
:1027E8000101018162B60020704703899BB2194339
:1027F8000181F7E7808880B27047008980B270470E
:10280800018300207047818300207047F0B587B0AE
:1028180007460C4601AD184E0FCE0FC533682B6026
:10282800164B03EBC7035B6833B1144800EBC700D2
:102838000022214680689847A4F12F03012B15D860
:10284800002203E00B8D9BB20BE00132042A10D862
:1028580006AB03EB820353F8141C2F2CF2D08B8D9C
:102868009BB2088E0340F0D00B86EEE72046FFF7B8
:1028780099FF07B0F0BD00BF845100007C0600201E
:1028880008B501210020FFF7C1FF08BD08B50221E6
:102898000120FFF7BBFF08BD08B503210220FFF7A1
:1028A800B5FF08BD08B504210320FFF7AFFF08BD39
:1028B80008B505210420FFF7A9FF08BD08B50621C2
:1028C8000520FFF7A3FF08BD08B507210620FFF77D
:1028D8009DFF08BD08B508210720FFF797FF08BD31
:1028E80008B509210820FFF791FF08BD08B52F2179
:1028F8000920FFF78BFF08BD08B530210A20FFF734
:1029080085FF08BD38B5C3689D8B01229A8143684D
:102918003BB1ADB2044615F0010F03D115F0020F1B
:1029280005D138BD0022012180689847F6E7636821
:1029380000220221A0689847F3E7000008B5024882
:10294800FFF7E0FF08BD00BFD806002008B5024821
:10295800FFF7D8FF08BD00BFE806002008B5024809
:10296800FFF7D0FF08BD00BFF8060020104B1B780A
:10297800EBB10F4BDB68D3B110B572B60C4B5B688B
:102988001B8903F0010362B64BB90024084B1B698D
:10299800234206D1064B5B68A4B21C8110BD0124FA
:1029A800F4E70348C368002221469847F2E77047D6
:1029B8000807002008B5837CA3B90A460346C06807
:1029C800198A012A08D0FFF71BFF003018BF012021
:1029D80050B140F6054008BDFFF715FF003018BF9D
:1029E8000120F5E7002008BD002008BD10B5044609
:1029F80043681A8892B2C2F34201C1F1040189B254
:102A0800C2F3022200E019464B1E9BB281B1616AF3
:102A18000029F8D06168A0690078088194F820003E
:102A2800A1690144A161616A01396162EBE71A4653
:102A3800531E9BB27AB1A26A002AF8D0E269616893
:102A48008988117094F82110E2690A44E261A26A47
:102A5800013AA262EBE7A36A83B9636A73B90123F7
:102A680084F82C302378022B0BD0637A012B0DD0FD
:102A7800236C1BB100221146606C984763681B8861
:102A880010BD00212046FFF795FFEEE704F1150081
:102A9800FEF780FDECE7000008B50248FFF7A6FF47
:102AA80008BD00BFD407002008B50248FFF79EFF05
:102AB80008BD00BF2808002008B50248FFF796FFA8
:102AC80008BD00BF7C08002008B5024BDB6B022064
:102AD800984708BDD407002008B5024BDB6B0320DC
:102AE800984708BDD407002008B5034BD3F89030A9
:102AF8000420984708BD00BFD407002008B5034B41
:102B0800D3F890300520984708BD00BFD4070020AF
:102B180008B5034BD3F8E4300020984708BD00BF40
:102B2800D407002008B5034BD3F8E43001209847B8
:102B380008BD00BFD407002001F00E01C172704724
:102B4800F0B4837A002B44D0058D838CED1A2DB216
:102B58009542A8BF1546002308E0066A848C671CC6
:102B680087840F78375501331BB20131AB42F4DB50
:102B7800AA420FDD541B24B20023838408E0066AAE
:102B8800858C6F1C87840F78775501331BB2013110
:102B9800A342F4DB90F900305E0903F01F0301241F
:102BA80004FA03F3144D203645F82630438D9BB2C2
:102BB8009B1A9BB243854668B3889BB243F00203D5
:102BC800B38090F900305E0903F01F039C4045F87C
:102BD8002640837A63B9002508E043689C8A14F08C
:102BE800200FFAD00C781C80013501319542F4DBB6
:102BF8000020F0BC704700BF00E100E0F8B50446D3
:102C080015461F46837A5BB35FB100F11406237A39
:102C1800C3B13289B5F900309A420BDA40F6085050
:102C280012E000F12006F2E7002204F11101012070
:102C3800FEF75CFC73899BB2B5F900209342F3DB85
:102C4800002001E04FF45060237A5BB973891BB20E
:102C5800B5F900209342A8BF13462B80002001E05D
:102C68004FF45060A37A53B9237A03B1002033B9E3
:102C780037B163689B8A03F001032B800020F8BDFD
:102C880063689B8AC3F34013F7E700002C4B5A682C
:102C98001389DBB213F0010F51D110B503F006030D
:102CA800042B10D0062B05D0022B28D02548FEF780
:102CB80071FC10BD918AC9B211F00E0FF6D02048F0
:102CC800FFF73AFFF2E71E49CB8B9BB2898B8B4209
:102CD80010D01B4B1B8B99420DD01088184A516994
:102CE800138B5C1C1483C854D38B9BB201339BB2E7
:102CF800D383DBE7FEE70021114B1983EDE7104B87
:102D0800D88C198D884201D30020D8840C4B5B8D58
:102D18009BB299420CD90A49086ACB8C5C1CCC84BA
:102D2800C35C13804B8D9BB201339BB24B85BDE7CF
:102D380093889BB223F002039BB29380B6E7704757
:102D4800780000208900002010B5044690F9003072
:102D58005A0903F01F03012101FA03F3203208493D
:102D680041F8223000210320FDF7C2FF626892F883
:102D7800303043F0010382F830300020607010BD1D
:102D880000E100E070B504460D4616460023FFF743
:102D980035FF034608B1184670BDB6F9002029462C
:102DA8002046FFF7CDFE0346F5E7000030B597B0A3
:102DB80005460C465422174901A801F00DF90420D4
:102DC800FDF74EFF144B984206D0144B984219D089
:102DD80040F6045017B030BD04EB4404620001AB68
:102DE8001A446B68118819856968B2F904305288E9
:102DF80043EAC2236FEA43436FEA53439BB28B848F
:102E08000020E7E704EB440462002A3201AB1A44CD
:102E1800E7E700BF985100000024F40040420F008B
:102E28002DE9F047894600230B604FF02C08234B0F
:102E380008FB003892B11146002288F811200A6870
:102E4800C8F814208A88A8F81C208A68C8F82020A6
:102E5800CA88A8F82820012288F80A20DFF85CA090
:102E68002C2707FB00F70AEB070400256583258359
:102E7800E583E584A584238D638501266670217C1E
:102E88004046FFF793FF6368A2899A816368E289E5
:102E98001A82C9F8008031460320FDF729FF6368CC
:102EA80083F830601AF907305A0903F01F039E406F
:102EB800034B43F822602846BDE8F08778000020DD
:102EC80000E100E008B50A4661B9416891F8303080
:102ED80043F0010381F8303011460320FDF708FF65
:102EE800002008BD416891F8303003F0FE0381F8F6
:102EF8003030F1E790F901305A0903F01F0301213E
:102F080001FA03F32032044941F8223000234370C8
:102F180003701846704700BF00E100E0837883B172
:102F2800104B1B8B03F00E03002BF9D172B689B13D
:102F38000C4A13899BB243F06003138162B60020E8
:102F48007047084B1B8B03F00E03002BEED040F6A6
:102F580008107047034A13899BB223F020039BB2E1
:102F68001381EBE78025004083785BB10A4B1B8B0C
:102F780003F00E03002BF9D14CF6CC42064B9A8194
:102F880000207047044B1B8B03F00E03002BF3D07B
:102F980040F60810704700BF8025004070B5034612
:102FA8001A4C00EB4002A01800250D60012686701F
:102FB800A554174A128B12F0100F12D1144A128915
:102FC80012F0200F0DD1134D03FA06F21A4402FA3B
:102FD80006F42E192C5B0E4A148074881481002480
:102FE80014820A4A03EB4303D4180A2565704FF488
:102FF8008065094C25600124D4540860FFF7B4FFAC
:10300800034608B140F60513184670BD1C0700209A
:1030180080250040EC51000000E100E0436801F029
:103028001F0119860020704710B50C4B5A68948D03
:1030380004F01F04128D14401A7C14401B781BB135
:10304800064BDB6803B124B921460448FFF7E6FFC5
:1030580010BD0022214601489847F5E720070020C7
:10306800034B1B681BB1024A1368013B136070478E
:10307800D008002008B5FFF7F3FF08BD10B582B0EF
:10308800044601F0DDF802AA22F8020D2146034B9E
:103098001868FFF777FE02B010BD00BF34070020A4
:1030A80008B500220B491046FFF7BAFE034608B1DF
:1030B800184608BD0421074B1868FFF777FE03463A
:1030C8000028F5D10121034B1868FFF7FBFE0346E2
:1030D800EEE700BF340700204FF42042014B1A608E
:1030E8000020704700000240034628B9002900DB91
:1030F8007047A0F50040704730B583B0002819DB51
:10310800002500291CDD8B420ADB8CB29AB2A0187C
:1031180000B200281ADB131B1BB201460135EDB2C1
:10312800DB0393FBF1F1ADF806100023ADF8043092
:10313800042423E043421BB2494209B20425E0E7D4
:103148004A420235EDB2194613B2DCE7121B1944A4
:1031580041F34F0142F34E03E0E70D4B33F81430CF
:10316800BDF80420134402A820F8043D01230246B8
:103178000DF1060100F0D2FA013C64B2002CECDA41
:10318800680380B2BDF80430184400B203B030BD03
:10319800F451000070B50C461146002301E00133DC
:1031A8005BB21C2B12DC5E0030F91320093292B29C
:1031B800122AF4D89A000232855E092DEFDC15F147
:1031C800090FECDB002585538552E8E7002305E06D
:1031D80030F9132024F8132001335BB2392BF7DDC3
:1031E8003A22204600F0F6F970BDF8B531B30A4628
:1031F800C7177B01440143EAD065241A65EB07052C
:10320800AB0043EA9473A1000C1843EB0705EB00ED
:1032180043EA5473E1000C465901D317600141EAAF
:10322800D46100F013FD013041F1000149104FEA6B
:10323800300000220B46134303D1F8BD00200021C3
:10324800F7E76FF00040F8E70A1AD317901843EB36
:10325800030112184B41190141EA12711001801A39
:1032680061EB03018B0043EA9073820012F58060E2
:1032780043F10001C00A40EA4150704710B50029E7
:103288000ADB01F00F0340F2712202FB03F30A117B
:10329800154900F035FF10BDC1F303035B4203F08D
:1032A8000F03002263F3030241F31B1464F31F129C
:1032B80011F00F0F04D024F07044013464F31F128E
:1032C80032F00F0107D140F2712202FB03F20749E5
:1032D80000F016FF10BD40F2712101FB03F312113B
:1032E800014900F00DFF10BD10540000005400000B
:1032F80008B53A23FEF7B4FC00B908BD014800F050
:103308003EF9FAE7D453000070B5ADF5B86DFDF796
:103318003DFC0020FEF752F902210420FDF714FDC0
:1033280000F032F9FFF7D8FEFFF7BAFE002836D1D1
:103338007748FFF7A3FE0DF2BC50FEF75DFB90BB8C
:103348007448FFF79BFEDDF8BC05FEF7FDFE70BB79
:103358007148FFF793FEDDF8BC05FEF7FFFE50BB92
:103368006E48FFF78BFEDDF8BC05FEF77DFF30BB2E
:103378006B48FFF783FEDDF8BC05FEF7F9FE10BBCE
:103388006848FFF77BFE684B684ADA60684A1A614A
:103398000121DDF8BC05FEF723FB002588E0654820
:1033A80000F0EDF8C4E7644800F0E9F8C8E76348BE
:1033B80000F0E5F8CCE7624800F0E1F8D0E76148B2
:1033C80000F0DDF8D4E7604800F0D9F8D8E7DEABC4
:1033D800621C53F82210DE98FFF707FFB3AB43F8DF
:1033E8002400013464B21B2CF1DDBDF94815BDF988
:1033F8004A05FFF779FEADF83C0300241DE0661C82
:10340800730001330DF5B86202EB86020DF5B86161
:1034180001EB430332F9781C33F9780CFFF764FEAB
:103428000146CFAB23F81600BDF93C03FFF70CFFAC
:1034380097AB43F82400013464B21B2C0ADCB3AB0D
:1034480053F82430002BDAD1631C0021CFAA22F8CC
:103458001310F0E73D4A3E4901A800F051FE002450
:1034680009E03C4901A800F06DFE3B4901A800F0C5
:1034780069FE013464B21B2C0FDCB3AB53F8243063
:10348800002BEED0B3AB53F824104CA8FFF7F6FE90
:103498004CA901A800F056FEE7E7304901A800F062
:1034A80051FE01A8FFF7EAFD0135B5F57A7F14DA78
:1034B8000DF5A9621C49DDF8BC05FFF719FFFBAA49
:1034C8000DF2D4410DF5A960FFF764FE1D22DEA9B7
:1034D800FBA800F08BF8002485E7DDF8BC05FEF7B3
:1034E80089FE68B9DDF8BC05FEF7D2FA60B91C4B55
:1034F8001868FFF729FC00F03EF80DF5B86D70BDAF
:10350800184800F03CF8EDE7174800F038F8EEE707
:10351800205200004C5200007C520000B8520000BB
:10352800FC52000048530000A400002033330398E5
:103538001705009E005200002C520000585200004F
:1035480088520000D4520000185300006453000051
:10355800705300007C530000805300008453000027
:103568003407002088530000B053000008B500203D
:10357800FDF756F908BD08B5FFF7F8FF08BD08B50F
:10358800FFF7F4FF08BD000000B583B001A90020D3
:10359800FFF704FD58B900210198FFF7BFFC50B9A7
:1035A8000198FFF7A7FC50B903B05DF804FB064883
:1035B800FFF7E5FFEFE70548FFF7E1FFF0E704480D
:1035C800FFF7DDFFF0E700BF1C5400005454000073
:1035D8007054000042B1043930F9023B013A4FEA15
:1035E800034341F8043FF7D1704700BFC2B12DE94A
:1035F800F843914600F1080818E9500086FB066771
:1036080084FB0445781000EB65000C1D00F00AF8F7
:10361800B9F1010908F108082146EDD1BDE8F883A0
:10362800704700BF002871DD2DE9F047B0FA80F738
:1036380007F1FF3818F0010A16BFBE1E00FA08F697
:1036480000FA06F63046894600F036F94FF0405148
:1036580000F086F9431030484FF09D41C01A00F041
:103668007FF900F0CDFA80FB0023D40F711044EAF3
:10367800430484FB0145E30F43EA4503C3F1405388
:1036880080FB0323D40F44EA4304A00080FB0023FB
:10369800D20F42EA430281FB0223D40F44EA4304D7
:1036A800C4F1405480FB0445E20F42EA450293000E
:1036B80083FB0345E00F40EA450081FB0001C20F90
:1036C80042EA4102C2F1405283FB0223D00F40EA92
:1036D8004300800086FB0001C30F43EA41035B00FF
:1036E800BAF1000F09D0023F07EBD7777F103B41B3
:1036F800C9F800300020BDE8F0874FEA680843FAAF
:1037080008F3C9F800300020BDE8F08700230B60FB
:103718004FF0FF30704700BFDF59375F83B130B4D7
:10372800023A30F9025B31F9024B013B04FB05F424
:103738004FEAE43404F30F0422F8024FF1D130BC0D
:10374800704700BF80F0004002E000BF81F00041F8
:1037580042001FBF5FEA410392EA030F7FEA226C2F
:103768007FEA236C6AD04FEA1262D2EB1363C1BFBF
:10377800D218414048404140B8BF5B42192B88BF2E
:10378800704710F0004F40F4000020F07F4018BF51
:10379800404211F0004F41F4000121F07F4118BF71
:1037A800494292EA030F3FD0A2F1010241FA03FC19
:1037B80010EB0C00C3F1200301FA03F100F0004301
:1037C80002D5494260EB4000B0F5000F13D3B0F1C9
:1037D800807F06D340084FEA310102F10102FE2A38
:1037E80051D2B1F1004F40EBC25008BF20F00100A8
:1037F80040EA03007047490040EB000010F4000F56
:10380800A2F10102EDD1B0FA80FCACF1080CB2EBE8
:103818000C0200FA0CF0AABF00EBC2505242184347
:10382800BCBFD0401843704792F0000F81F40001EC
:1038380006BF80F400000132013BB5E74FEA4103BF
:103848007FEA226C18BF7FEA236C21D092EA030F2B
:1038580004D092F0000F08BF0846704790EA010FA5
:103868001CBF0020704712F07F4F04D1400028BFD2
:1038780040F00040704712F100723CBF00F50000B4
:10388800704700F0004343F0FE4040F400007047EA
:103898007FEA226216BF08467FEA23630146420296
:1038A80006BF5FEA412390EA010F40F480007047A9
:1038B8004FF0000304E000BF10F0004348BF40424F
:1038C8005FEA000C08BF704743F0964301464FF08B
:1038D80000001CE050EA010208BF70474FF00003E7
:1038E8000AE000BF50EA010208BF704711F0004328
:1038F80002D5404261EB41015FEA010C02BF8446F8
:103908000146002043F0B64308BFA3F18053A3F556
:103918000003BCFA8CF2083AA3EBC25310DB01FA9D
:1039280002FC634400FA02FCC2F12002BCF1004F21
:1039380020FA02F243EB020008BF20F001007047B2
:1039480002F1200201FA02FCC2F1200250EA4C0006
:1039580021FA02F243EB020008BF20EADC7070474C
:103968004FF0FF0C1CEAD0521EBF1CEAD15392EA5A
:103978000C0F93EA0C0F6FD01A4480EA010C400236
:1039880018BF5FEA41211ED04FF0006343EA501090
:1039980043EA5111A0FB01310CF00040B1F5000FD2
:1039A8003EBF490041EAD3715B0040EA010062F181
:1039B8007F02FD2A1DD8B3F1004F40EBC25008BF6B
:1039C80020F00100704790F0000F0CF0004C08BF89
:1039D80049024CEA502040EA51207F3AC2BFD2F156
:1039E800FF0340EAC250704740F400004FF0000364
:1039F800013A5DDC12F1190FDCBF00F0004070479E
:103A0800C2F10002410021FA02F1C2F1200200FADB
:103A180002FC5FEA310040F1000053EA4C0308BFA2
:103A280020EADC70704792F0000F00F0004C02BFF3
:103A3800400010F4000F013AF9D040EA0C0093F06E
:103A4800000F01F0004C02BF490011F4000F013BC8
:103A5800F9D041EA0C018FE70CEAD15392EA0C0F36
:103A680018BF93EA0C0F0AD030F0004C18BF31F0A1
:103A7800004CD8D180EA010000F00040704790F077
:103A8800000F17BF90F0004F084691F0000F91F01B
:103A9800004F14D092EA0C0F01D142020FD193EAE1
:103AA8000C0F03D14B0218BF084608D180EA010069
:103AB80000F0004040F0FE4040F40000704740F045
:103AC800FE4040F4400070474FF0FF0C1CEAD05213
:103AD8001EBF1CEAD15392EA0C0F93EA0C0F69D06F
:103AE800A2EB030280EA010C49024FEA402037D0DA
:103AF8004FF0805343EA111143EA10130CF00040D1
:103B08008B4238BF5B0042F17D024FF4000C8B42C0
:103B180024BF5B1A40EA0C00B3EB510F24BFA3EBA0
:103B2800510340EA5C00B3EB910F24BFA3EB910370
:103B380040EA9C00B3EBD10F24BFA3EBD10340EACA
:103B4800DC001B0118BF5FEA1C1CE0D1FD2A3FF610
:103B580050AF8B4240EBC25008BF20F001007047C5
:103B68000CF0004C4CEA50207F32C2BFD2F1FF0368
:103B780040EAC250704740F400004FF00003013A99
:103B880037E792F0000F00F0004C02BF400010F43D
:103B9800000F013AF9D040EA0C0093F0000F01F051
:103BA800004C02BF490011F4000F013BF9D041EA73
:103BB8000C0195E70CEAD15392EA0C0F08D14202A6
:103BC8007FF47DAF93EA0C0F7FF470AF084676E779
:103BD80093EA0C0F04D14B023FF44CAF08466EE752
:103BE80030F0004C18BF31F0004CCAD130F0004220
:103BF8007FF45CAF31F000437FF43CAF5FE700BF78
:103C08004FEA4002B2F1FE4F0FD34FF09E03B3EBE1
:103C180012620DD94FEA002343F0004310F0004F21
:103C280023FA02F018BF404270474FF00000704777
:103C380012F1610F01D1420205D110F0004008BF16
:103C48006FF0004070474FF0000070477BB972B9C1
:103C58000029BEBF00204FF0004106E008BF002841
:103C68001CBF6FF000414FF0FF3000F0ADB9ADF16F
:103C7800080C6DE904CE002909DB002B1ADB00F0E3
:103C880035F8DDF804E0DDE9022304B0704740426E
:103C980061EB4101002B1BDB00F028F8DDF804E0A4
:103CA800DDE9022304B0404261EB4101524263EB7B
:103CB80043037047524263EB430300F017F8DDF803
:103CC80004E0DDE9022304B0404261EB41017047A2
:103CD800524263EB430300F009F8DDF804E0DDE944
:103CE800022304B0524263EB430370472DE9F047C7
:103CF8008C460E460446089D002B50D18A42174632
:103D08006CD9B2FA82FEBEF1000F0BD0CEF1200CB6
:103D180001FA0EF620FA0CFC02FA0EF74CEA060C31
:103D280000FA0EF43A0CBCFBF2F9BBB202FB19CC58
:103D380009FB03FA4FEA144848EA0C46B2450AD987
:103D4800F61909F1FF3180F02581B24540F2228150
:103D5800A9F102093E44A6EB0A06B6FBF2F002FB03
:103D6800106600FB03F3A4B244EA0644A34209D94F
:103D7800E41900F1FF3280F00B81A34240F2088180
:103D880002383C440021E41A40EA0940002D62D080
:103D9800002324FA0EF42C606B60BDE8F0878B4298
:103DA80007D9002D55D0002185E841000846BDE817
:103DB800F087B3FA83F1002940F08F80B34202D331
:103DC800824200F2FC80841A66EB03060120B446A6
:103DD800002D40D085E81010BDE8F08712B9012702
:103DE800B7FBF2F7B7FA87FEBEF1000F35D1012114
:103DF800F61B4FEA174C1FFA87F8B6FBFCF20CFBD0
:103E0800126608FB02F0230C43EA0646B04207D9C3
:103E1800F61902F1FF3302D2B04200F2D2801A46FC
:103E2800361AB6FBFCF00CFB106608FB00F8A3B2D0
:103E380043EA0644A04507D9E41900F1FF3302D24A
:103E4800A04500F2B9801846A4EB080440EA0240F5
:103E58009CE729462846BDE8F08707FA0EF7CEF119
:103E6800200326FA03F24FEA174CB2FBFCF11FFAC3
:103E780087F80CFB112206FA0EF620FA03F301FB71
:103E880008F933431E0C46EA0246B14500FA0EF41F
:103E980009D9F61901F1FF3280F08C80B14540F262
:103EA800898002393E44A6EB0906B6FBFCF00CFB00
:103EB800106200FB08F99EB246EA0246B14507D9EE
:103EC800F61900F1FF3371D2B1456FD902383E447B
:103ED800A6EB090640EA01418FE7C1F1200722FA63
:103EE80007F88B4048EA030326FA07F44FEA134E13
:103EF800B4FBFEF91FFA83FC0EFB19448E4020FA2E
:103F080007F809FB0CFA48EA06084FEA184646EA99
:103F18000444A24502FA01F200FA01F608D9E418AD
:103F280009F1FF3044D2A24542D9A9F102091C4443
:103F3800A4EB0A04B4FBFEF00EFB104400FB0CFCDF
:103F48001FFA88F848EA0444A44507D9E41800F1A0
:103F5800FF3E29D2A44527D902381C4440EA09402B
:103F6800A0FB0289A4EB0C0CCC45C246CE4615D367
:103F780012D055B1B6EB0A036CEB0E0606FA07F73A
:103F8800CB401F43CE402F606E600021BDE8F08714
:103F98001046F7E68946DEE64645EAD2B8EB020A5D
:103FA80069EB030E0138E4E77046D7E718468FE758
:103FB8008146BDE7114676E702383C4444E70846A7
:103FC80006E7023A3E442BE7704700BF014B1868EA
:103FD800704700BF10030020844641EA000313F035
:103FE800030349D1403A23D30B6803604B6843600D
:103FF8008B688360CB68C3600B6903614B6943615D
:104008008B698361CB69C3610B6A03624B6A436244
:104018008B6A8362CB6AC3620B6B03634B6B43632C
:104028008B6B8363CB6BC36340304031403ADBD248
:1040380030320BD30B6803604B6843608B68836036
:10404800CB68C36010301031103AF3D20C3205D36C
:1040580051F8043B40F8043B043AF9D2043208D042
:10406800D2071CBF11F8013B00F8013B01D30B88B4
:1040780003806046704700BF082A13D38B07B1D06E
:1040880010F00303AED0C3F10403D21ADB071CBF40
:1040980011F8013B00F8013BA4D331F8023B20F8AA
:1040A800023B9FE7043AD9D3013A11F8013B00F8E3
:1040B800013BF9D20B7803704B7843708B7883708F
:1040C800604670470CB470B56FF000459CB020ACEA
:1040D80054F8042B094E02910691234602A9019433
:1040E8000795CDE9045600F0FBF90022029B1A70EF
:1040F8001CB0BDE8704002B0704700BF0802FFFF67
:104108000EB4034630B56FF000449CB01FA951F8B7
:10411800042B0A480A4D0293069301910B46006846
:1041280002A90794CDE9044500F0DAF90022029BC0
:104138001A701CB0BDE8304003B07047100300206F
:104148000802FFFF830710B5044610D10268A2F1E8
:10415800013323EA020313F0803F08D150F8042FFB
:10416800A2F1013323EA020313F0803FF6D003786B
:104178001BB110F8013F002BFBD100F003F82046DB
:1041880010BD00BF80EA0102844612F0030F4FD130
:1041980011F0030F32D14DF8044D11F0040F51F80E
:1041A800043B0BD0A3F101329A4312F0803F04BFC5
:1041B8004CF8043B51F8043B16D100BF51F8044BAE
:1041C800A3F101329A4312F0803FA4F101320BD1DE
:1041D8004CF8043BA24312F0803F04BF51F8043B63
:1041E8004CF8044BEAD023460CF8013B13F0FF0FC0
:1041F8004FEA3323F8D15DF8044B704711F0010FF3
:1042080006D011F8012B0CF8012B002A08BF7047C3
:1042180011F0020FBFD031F8022B12F0FF0F16BFBA
:104228002CF8022B8CF8002012F47F4FB3D1704782
:1042380011F8012B0CF8012B002AF9D1704700BFA7
:1042480020F0030110F00300C0F1000051F8043B16
:1042580000F1040C4FEACC0C6FF000021CBF22FAEC
:104268000CF213434FF0010C4CEA0C2C4CEA0C4CAA
:10427800A3EB0C0222EA030212EACC1204BF51F8A3
:10428800043B0430F4D0C2F1000102EA0102B2FAA0
:1042980082F2C2F11F0200EBD200704770B5141E03
:1042A8009AB005462ADB1A464FF40273009104912E
:1042B800ADF80C304FF6FF7611D0013C1E9B6946D5
:1042C80002940594ADF80E6000F00AF9421C01DA78
:1042D8008B232B600022009B1A701AB070BD1E9BA6
:1042E800694602940594ADF80E6000F0F9F8431C95
:1042F80001DB1AB070BD8B232B60FAE78B234FF0DC
:10430800FF302B60F5E700BF10B5064C82B0009374
:10431800246813460A4601462046FFF7BFFF02B04D
:1043280010BD00BF100300202DE9F0478E688046BD
:104338009E420C461D461746086828D8B1F80CC09E
:104348001CF4906F31D0D1E9041606EB460606EB53
:10435800D676A0EB0109013376104B44B3423246BE
:1043680084BF1E4632461CF4806F20D0114640465A
:1043780000F0C6FC824670B34A462169FFF72CFE5E
:10438800A38923F4906343F08003A38114E01E46BD
:104398002A46394600F0FEFB0020A2682368961BD7
:1043A8002B44A6602360BDE8F0873546F0E7404619
:1043B80000F00AFD824650B1A6EB09030AEB09009A
:1043C8006661C4F810A02060A3602E46E0E721696A
:1043D800404600F041FC0C23C8F80030A3894FF098
:1043E800FF3043F04003A381DDE700BF2DE9F04F24
:1043F800936883B09046002B6CD0176882460C46B1
:10440800086808378D6842E0A38913F4906F2DD0AF
:10441800D4E9041505EB4505A0EB010B05EBD575B3
:10442800701C6D105844A8422A4684BF05462A4687
:104438005B0536D51146504600F062FC00283AD09C
:104448005A4621690190FFF7C7FDA289019B22F412
:10445800906242F08002A281A5EB0B0203EB0B00F5
:104468006561B346354623612060A2605A464946D5
:1044780000F090FBD8F80830A2682068551B584413
:104488009E1BA5602060C8F808601EB3083757E96E
:104498000296AB46002EF9D0AE42B5D23546B346A9
:1044A800E4E7504600F090FC03460028D4D1216987
:1044B800504600F0D1FB0C2300224FF0FF30CAF821
:1044C8000030A38943F04003A381C8E9012203B067
:1044D800BDE8F08F0020C8F8040003B0BDE8F08FF5
:1044E8002DE9F04F884689899FB00D061446029041
:1044F80004D5D8F81020002A00F0178100202021C8
:1045080030220593237801260B908DF83110914DB8
:104518008DF83220002B00F09680252BA24603D17F
:1045280019E0252B00F0C2801AF8013F002BF8D1C2
:10453800BAEB040B00F0878022465B46414602989E
:10454800FFF7F2FE01307ED00B9B9AF800205B4407
:104558000B93002A77D000234FF0FF320AF1010AAB
:104568000693CDE908338DF85B301C93079206E07B
:10457800CA46069B401B06FA00F018430690D1462F
:10458800052219F8011B284600F0BEFACB46002880
:10459800EED1069BD80644BF20228DF85B20190770
:1045A80048BF2B229AF8001048BF8DF85B202A29B3
:1045B80053D0A1F13003092B00F2AC80099A02E034
:1045C800CA4609F1010999F8001002EB820203EBCF
:1045D8004202A1F13003092BCB46F1D90AF10209B5
:1045E80009922E2946D05C4C0322204600F08CFA12
:1045F800002858D04021001B069A01FA00F0024317
:10460800069209F1010499F8003006221946534828
:104618008DF8303000F078FA002859D0504B002B34
:1046280049D005AB009342464E4B06A90298AFF31A
:10463800008007467A1C06D00B9B3B440B932378DB
:10464800002B7FF46AAFB8F80C305B064CBF4FF014
:10465800FF300B981FB0BDE8F08F059A116804323F
:10466800002905922EDB09919AF801100AF1020936
:104678002E29B8D19BF801102A2933D1059B0BF1BB
:1046880002001A680433002A079205939BF8021067
:104698000BF1030940DB304C83460322204600F02F
:1046A80033FA0028A6D14C46D946ACE7BAEB040B3E
:1046B8003FF451AF40E7059B073323F00703083366
:1046C8000593B9E7494243F0020309910693CBE702
:1046D80005AB00934246234B06A9029800F0D2F896
:1046E8000746A7E70022A1F130000928079201D95F
:1046F80017E0D94699F8011002EB820200EB42025A
:10470800A1F13000092809F1010BF2D909F10209D8
:10471800079268E7D34664E74FF0FF328346079273
:1047280061E7CB4609F101095DE74021039300F0F9
:10473800E7FA039BC8F80000C8F8100018B1402237
:10474800C8F81420DAE60C23029A4FF0FF30136001
:1047580080E700BF88540000905400009454000083
:1047680000000000314300002DE9F0470C460969BC
:10477800A56891468D42B8BF0D46156094F8431060
:1047880006461F46DDF8208011B16A1CC9F80020D2
:10479800236899065FD5D9F800200232C9F80020AD
:1047A800236813F0060F19461DD1E1688A1A002AFA
:1047B800D8BF194617DD002504F1190A05E0E3689A
:1047C800D9F800209B1AAB420CDD0123524639462A
:1047D8003046C047013005F10105F0D14FF0FF30F8
:1047E800BDE8F087216894F84330003318BF0123EF
:1047F8008A060AD53021E21882F8431094F8451049
:104808005A1C224482F84310023304F14302394609
:104818003046C0470130E1D0D4E902202368D9F8F6
:10482800005003F00603042B21691AD08A421FDDC9
:104838004FF00009521A914400251A3401E04D4501
:1048480016D00123224639463046C047013005F1CB
:104858000105F4D1C2E713F0060F0CD1D9F80020F6
:10486800A3E7401B8A4220EAE079E3DC0028E3DC86
:104878000020BDE8F08794F84330003318BF0123C7
:10488800C3E700BF2DE9F0430C46097E85B06E29C9
:1048980006461746984604F1430C0C9D4AD00FD89B
:1048A800632900F0FE8000F2BE8000294ED058290E
:1048B80040F0E08084F845102268DFF844E212E016
:1048C800732900F0C5807AD86F2900F0DA80702942
:1048D80040F0D080206840F0200222607823DFF882
:1048E80024E284F845302B68191D1B6829601506D9
:1048F80002D4500648BF9BB2D10744BF42F0200201
:104908002260002B6CD1D4E9001284F84330002ACD
:1049180021F020032360A2607DDB21F024012160C7
:104928001021002A78D1654608294ED0ACEB050342
:1049380023610EE02B682268181D6169286015063E
:104948001B6802D4500600F1C68019600023654632
:104958002361CDF800803B4603AA21463046FFF785
:1049680003FF013020D02A46236939463046C04724
:10497800013019D0226803989207E36819D51A1AEA
:10498800002A16DD002504F1190904E0E3680398FC
:104998001A1AAA420DDD01234A4639463046C04755
:1049A800013005F10105F1D14FF0FF3005B0BDE848
:1049B800F0839842B8BF184605B0BDE8F083752962
:1049C8005FD0782956D1226888E72368DB07ADD500
:1049D800626823699A42A9DC3023013D2B70A5E760
:1049E8001021002284F843206268002AA2602CDB90
:1049F800206820F004002060002B92D06546B3FBAD
:104A0800F1F201FB12331EF80300134605F8010DFD
:104A1800002AF4D188E710219EF8003004F14205FD
:104A280084F8423080E7642901D0692922D12068BE
:104A38002B68010603F1040245D51B682A60002B88
:104A48004BDB0A21DFF8B8E0CEE7002BD6D1E3E74D
:104A58002B686268191D29601D680021284600F02E
:104A680053F8002845D0401B60602061002384F87B
:104A780043306EE7012384F84210236104F14205B4
:104A8800F4E720682B6810F0800F03F1040213D0BC
:104A98001B682A606F290CBF08210A21DFF860E033
:104AA8009FE701222B68191D1B68296004F1420544
:104AB80084F842302261D9E7400653BF1B682A6058
:104AC8001B882A60E6E7410653BF1B682A60B3F9D2
:104AD80000302A60B3E7198038E72D2162685B420D
:104AE800002A84F84310A26005DB0A21DFF810E0F1
:104AF8007FE76068B9E7DFF808E00A217EE700BFD2
:104B08009C540000B0540000830770B4CDB23DD06F
:104B1800541E0AB30378AB421FD0431C05E014F1BE
:104B2800FF3419D30278AA4217D013F0030F18469E
:104B380003F10103F3D1032C11D84CB30378AB4232
:104B48000BD00444431C02E00278AA4205D09C42E0
:104B5800184603F10103F7D1002070BC70470646E0
:104B68000A0292B22A4342EA02423368304653406C
:104B7800A3F1013121EA030313F0803F06F1040693
:104B8800DCD1043C032C3046EFD8D6E71446D2E7F4
:104B98002046E2E78842F0B40DD98B1883420AD93F
:104BA800841832B1224613F8014D994202F8014D9A
:104BB800F9D1F0BC70470F2A48D940EA01039B0796
:104BC80046D1A2F110031B0901F1200707EB0317D7
:104BD80001F1100400F1100554F8106C103445F878
:104BE800106C54F81C6C103545F81C6C54F8186C93
:104BF80045F8186C54F8146CBC4245F8146CEBD1A9
:104C0800013302F00F051B01032D1944034421D978
:104C18000F462C461E1F57F804CB043C032C46F8BD
:104C280004CFF8D82C1F24F003040434234421446F
:104C380002F00302002ABCD0013B0A4411F8014BE0
:104C4800914203F8014FF9D1F0BC70470346F1E7F0
:104C58000346F1E72A46EDE7002934D038B551F884
:104C6800043C0C1F002BB8BFE418054600F0E4F81C
:104C7800224B1A682AB1A2420DD9216860188242D3
:104C880035D0626028461C60BDE8384000F0D6B8D0
:104C9800A34203D81A465368002BF9D1116850185B
:104CA800A04218D010D821686018834203BFD3E906
:104CB80000030918C4E90013636054602846BDE87E
:104CC800384000F0BBB870470C2328462B60BDE87D
:104CD800384000F0B3B8206801445018834211608E
:104CE800ECD1D3E900030144C2E90013E6E7D2E9B5
:104CF80000020144C4E90012C4E700BF38070020DD
:104D0800F8B5CD1C25F0030508350C2D38BF0C254A
:104D1800002D06463ADBA94238D82A4F00F08CF815
:104D28003A6852B113685B1B04D433E023685B1BF9
:104D380025D522465468002CF8D1796800293BD043
:104D48002946304600F066F8431C2AD0C41C24F0DB
:104D58000304A04205D0211A304600F05BF8013068
:104D68001FD02560304600F069F804F10B0020F0F0
:104D78000700231DC31A01D05A42E250F8BD0B2B7D
:104D88000BD8A24215D063685360EBE70C230020D0
:104D98003360F8BD0B2B0BD9144623601C442560E7
:104DA800E0E70C233046336000F048F80020F8BDF7
:104DB80054683C601446D5E7304600F02BF878601C
:104DC800BEE700BF38070020E1B1F8B51446E2B1EC
:104DD80006460D4600F034F8A04202D32F46384666
:104DE800F8BD21463046FFF78BFF07460028F6D06E
:104DF80022462946FFF7F0F830462946FFF72CFFF0
:104E08003846F8BD1146FFF77BBFFFF725FF274659
:104E1800E5E700BF38B50023064C05460846236081
:104E2800FBF700FD431C00D038BD2368002BFBD0E6
:104E38002B6038BD40070020704700BF704700BF97
:104E480051F8043C181F002BBCBF0B58C018704702
:104E5800537461636B206672616D653A0A000000E5
:104E6800205230203D2020253038580A000000000C
:104E7800205231203D2020253038580A00000000FB
:104E8800205232203D2020253038580A00000000EA
:104E9800205233203D2020253038580A00000000D9
:104EA80020523132203D20253038580A00000000B9
:104EB800204C52203D2020253038580A00000000A0
:104EC800205043203D2020253038580A000000009B
:104ED80020505352203D20253038580A0000000049
:104EE8004653522F4641523A0A0000002043465387
:104EF80052203D2020253038580A000020484653CB
:104F080052203D2020253038580A000020444653BE
:104F180052203D2020253038580A000020414653B1
:104F280052203D2020253038580A0000204D4D469B
:104F38004152203D20253038580A00002042464181
:104F480052203D2020253038580A00004D697363EF
:104F58000A000000204C522F4558435F52455455D3
:104F6800524E3D20253038580A0000005B486172D7
:104F7800644661756C745D0A000000005B427573DD
:104F88004661756C745D0A005B55736167654661BF
:104F9800756C745D0A000000010002000D14000029
:104FA80001010000000000000102030015130000C9
:104FB80001030000000000000104000000000000E0
:104FC8000200000000000000020101008112000040
:104FD8000202040015130000020300000000000094
:104FE80002040000000000000300040000000000AC
:104FF80003010000000000000302000000000000A0
:10500800030301008112000003040500BD10000025
:10501800040000000000000004010300000000007C
:105028000402000000000000040302000D14000048
:10503800040402000D140000050002000D14000015
:105048000501000000000000050203001513000020
:1050580005030100811200000504000000000000A3
:10506800E8000900010F008811880086000800AADE
:10507800020000A03E060000F00F03807E08090031
:10508800F00E0280020000827C000600000800AAE0
:105098003E060000F00F03807E080900F00E028033
:1050A8000200008250000300F00E02803E0600005D
:1050B80002000082FC00080010000880FE7C00004E
:1050C80030000480FEE10400300002807E380100D8
:1050D800B000028002000082E80008001188008603
:1050E800E70800AA180000A03E060000F00F0380A1
:1050F8007E080900F00E02800200008226000700E8
:10510800000000A0190000A03E060000F00F038078
:105118007E080900F00E0280020000827400070079
:10512800000000A01E0000A03E060000F00F038053
:105138007E080900F00E02800200008222000800AA
:10514800000000A0020000A0003000863E0600001B
:10515800F00F03807E080900F00E02800200008232
:1051680070000600118800863E060000F00F0380DC
:105178007E080900F00E0280020000820000024052
:105188004000024080000240C0000240000102408E
:1051980031000100810013000100F7020400030040
:1051A8000B0208000100AE00030001009303020097
:1051B8000100AE0001000100AE00010003000B0277
:1051C80001000100050501000100000001000100C7
:1051D80000000100010000000100010000000100C2
:1051E800010000000010430000000000BD286D0011
:1051F8003EEFC608D4FE00002E2E2F7372632F6D6B
:1052080061696E2E633A3231343A20756172745F87
:10521800496E69740000000055415254207465734A
:10522800740A00002E2E2F7372632F6D61696E2E23
:10523800633A3232323A206164695F4146455F49D8
:105248006E697400414645204150490A000000003B
:105258002E2E2F7372632F6D61696E2E633A32336F
:10526800303A206164695F4146455F506F776572E7
:1052780055700000504F57455245442055500A007C
:105288002E2E2F7372632F6D61696E2E633A32333F
:10529800383A206164695F4146455F4578636974BF
:1052A800654368616E506F77657255700000000045
:1052B800504F574552454420455843495441544955
:1052C8004F4E204348414E4E454C0A002E2E2F7318
:1052D80072632F6D61696E2E633A3234363A2061FB
:1052E80064695F4146455F5469614368616E436123
:1052F8006C000000544941204348414E4E454C2023
:1053080043414C4942524154494F4E0A0000000063
:105318002E2E2F7372632F6D61696E2E633A3235AC
:10532800343A206164695F4146455F457863697432
:10533800654368616E43616C417474656E0000007A
:10534800524541445920544F205354415254204609
:105358004F52204C4F4F500A000000006D61676E9D
:105368006974756465730000202020202573203A35
:105378000000000020300000202C0000200D0A0052
:105388002E2E2F7372632F6D61696E2E633A33353B
:10539800313A206164695F4146455F506F776572B5
:1053A800446F776E000000002E2E2F7372632F6DEE
:1053B80061696E2E633A3335373A206164695F411B
:1053C80046455F556E496E69740000002E2E2F7396
:1053D80072632F6D61696E2E633A3734313A204912
:1053E8006D706564616E63655F4D65617375726547
:1053F8006D656E74000000002020202020202D30D4
:105408002E253034640000002538642E253034649D
:10541800000000006164695F5744545F496E697415
:10542800206661696C65642C20796F752772652028
:1054380070726F6261626C792063616C6C696E670F
:105448002069742074776963650000006164695F8E
:105458005744545F536574456E61626C652066619C
:10546800696C6564000000006164695F5744545FBB
:10547800556E496E6974206661696C656400000048
:10548800232D302B20000000686C4C0065666745B2
:1054980046470000303132333435363738394142E7
:1054A8004344454600000000303132333435363746
:0C54B80038396162636465660000000022
:1054C40078563412800300200000000010101010E1
:1054D40002200202020201100000000000800140CC
:1054E40000000000000004000E000B000D0000008E
:1054F40000000000000000000000000000810140E6
:1055040000000400000002000D000B002900000050
:1055140000000000000000000000000000C0014086
:1055240000000820004000000E00090037000000C1
:1055340000000000000000000E00000000500040C9
:10554400010000000700000000000000000000004F
:105554000000000000000000000000000000000047
:105564000000000043009A00185800843400008AA8
:10557400000000980000009E010F0088020000A0B7
:105584001188008640060000F04E0280800C000066
:10559400F0CF028040230300F04E028022110086E7
:1055A40040060000F0CF028040230300F04E02804A
:1055B4003311008640060000F0CF02804023030030
:1055C400F04E02804411008640060000F0CF0280B5
:1055D40040230300F04E028055110086400600006F
:1055E400F0CF028040230300F04E02806611008653
:1055F40040060000F0CF028040230300F04E0280FA
:105604007711008640060000F0CF0280402303009B
:10561400F04E02808811008640060000F0CF028020
:1056240040230300F04E028033220086400600002F
:10563400F0CF028040230300F04E02804422008613
:1056440040060000F0CF028040230300F04E0280A9
:105654005522008640060000F0CF0280402303005C
:10566400F04E02806622008640060000F0CF0280E1
:1056740040230300F04E028077220086400600009B
:10568400F0CF028040230300F04E0280882200867F
:1056940040060000F0CF028040230300F04E028059
:1056A4004433008640060000F0CF0280402303000C
:1056B400F04E02805533008640060000F0CF028091
:1056C40040230300F04E028066330086400600004B
:1056D400F0CF028040230300F04E0280773300862F
:1056E40040060000F0CF028040230300F04E028009
:1056F4008833008640060000F0CF02804023030078
:10570400F04E02805544008640060000F0CF02802F
:1057140040230300F04E02806644008640060000E9
:10572400F0CF028040230300F04E028077440086CD
:1057340040060000F0CF028040230300F04E0280B8
:105744008833008640060000F0CF02804023030027
:10575400F04E02806655008640060000F0CF0280BD
:1057640040230300F04E0280775500864006000077
:10577400F0CF028040230300F04E0280885500865B
:1057840040060000F0CF028040230300F04E028068
:105794007766008640060000F0CF028040230300B5
:1057A400F04E02808866008640060000F0CF02803A
:1057B40040230300F04E02808877008640060000F4
:1057C400F0CF028040230300F04E028002000082EA
:1057D400140300200000000000000000000000008E
:1057E40000000000000000000000000000000000B5
:1057F40000000000000000000000000000000000A5
:105804000000000000000000000000000000000094
:105814000000000000000000000000000000000084
:105824000000000000000000000000000000000074
:085834000000000032547698D8
:04000003000001797F
:00000001FF
