:1000000000400020210E0000190D0000F92C000016
:10001000E1020000092D00002D030000150E000074
:10002000150E0000150E0000150E000075030000EF
:1000300079030000150E00007D030000692D00000B
:1000400081230000C91C0000D51C0000E11C000039
:10005000ED1C0000F91C0000051D0000111D000032
:100060001D1D0000291D0000250D0000851D00003C
:10007000951D00003D170000891F0000E11E0000D3
:10008000011F0000310D00003D0D0000490D000072
:10009000591F00006D1F0000111F0000211F0000EC
:1000A000311F0000451F0000550D0000610D0000CC
:1000B0006D0D0000790D0000850D00003512000067
:1000C0006112000025140000910D00009D0D00003C
:1000D000A90D0000B50D0000C10D0000CD0D000000
:1000E000A51D00004D170000F11E0000D90D0000F5
:1000F000150E000059130000E50D0000351D00002D
:10010000411D0000150E0000450F00000910000001
:100110008510000081110000E91300005D17000048
:10012000F10D0000FD0D0000B51D0000090E0000DE
:10013000192D0000004000208D02000093020000F5
:10014000F92C0000E1020000092D00002D03000041
:10015000000000000000000000000000000000009F
:100160007503000079030000000000007D0300001B
:10017000692D00009103000000B583B000F0D2FBB0
:10018000304B314A1360314A1360314B314A03E03E
:1001900011681960043304322F498B42F8D32A4B7B
:1001A0001A682E4B9A4200D0FEE7284B1A682C4B57
:1001B0009A42F9D1234B2B4A13602B4A13602B4BE5
:1001C00002E000221A600433294A9342F9D3254BF6
:1001D0001B6813B9244B1B6803B1FEE700F0AEFBAC
:1001E000694601A800F04EFB224B234CE41AA410F0
:1001F0000025AC4214DC214B214CE41AA41000254C
:10020000AC4213DC0099019802F0C0FD05461D4B7D
:100210001D4CE41AA410002C0EDC284600F004FB50
:10022000144B53F8253098470135E2E7134B53F848
:10023000253098470135E3E7013C124B53F8243051
:100240009847E8E7BABADECA00000020080100209B
:1002500000000020D05900000C0100207856341214
:10026000325476980C010020F81700200C01002071
:10027000FC170020280800002808000028080000BB
:1002800028080000280800002808000008B5FFF72B
:1002900073FF00BEFEE71EF0040F0CBFEFF30880F3
:1002A000EFF309807146374A10472DE9F04182B0DB
:1002B00004468846084B5E6B9F6B9D6A074800F0BA
:1002C00005FBCDF800803B4632462946204600F02B
:1002D00039FB00BEFEE700BF00ED00E06C4D000002
:1002E00000BEFEE71EF0040F0CBFEFF30880EFF333
:1002F00009807146244A10472DE9F04182B0044636
:100300008846084B5E6B9F6B9D6A074800F0DEFADB
:10031000CDF800803B4632462946204600F012FBCD
:1003200000BEFEE700ED00E07C4D00001EF0040F73
:100330000CBFEFF30880EFF309807146134A1047B2
:100340002DE9F04182B004468846084B5E6B9F6BF6
:100350009D6A074800F0BAFACDF800803B46324665
:100360002946204600F0EEFA00BEFEE700ED00E070
:10037000884D000000BEFEE700BEFEE700BEFEE7BF
:1003800070470000AB020000F902000041030000CA
:02039000FEE786
:10080000D0590000000000200C01002094030000DB
:1008100000000010000000100C010020FC17002058
:080820000000001000000010B0
:10082800FEE7000008B5034800F064F80120FFF770
:10083800F7FF00BFFC4B000008B503460C4A1268DE
:100848005AB10B4A1068033323F003030344094ADF
:10085800934206D8064A136008BD0749044A116046
:10086800EFE702F061FB0C2303604FF0FF3008BD97
:1008780010010020003C0020FC1700200123036029
:10088800014B0B60704700BF0400002000B583B027
:100898000C461946134652B1074A53B101930092C8
:1008A80023460246054800F00DF8FFF7BBFF044A4F
:1008B800F3E7034BF2E700BF104C0000204C0000A8
:1008C800D45300000FB400B583B004AB53F8042B25
:1008D80001938021064802F0F9FC002803DD014657
:1008E800034800F017F803B05DF804EB04B0704754
:1008F8001801002010B5044602F084FC0146204689
:1009080000F008F80121024800F004F810BD00BF0B
:10091800E84C00004FF0FF307047000008B500F0C9
:1009280023F9024B024A9A6008BD00BF00ED00E0BF
:100938000000000008B500F07BF808BDF8B50446D3
:100948000D4617461E462748FFF7BCFF2168264874
:10095800FFF7B8FF61682548FFF7B4FFA16824488E
:10096800FFF7B0FFE1682348FFF7ACFF2169224891
:10097800FFF7A8FF61692148FFF7A4FFA169204894
:10098800FFF7A0FFE1691F48FFF79CFF1E48FFF72C
:1009980099FF29461D48FFF795FF1D4CE16A1D4840
:1009A800FFF790FF216B1C48FFF78CFFE16B1B489A
:1009B800FFF788FF15F0800F0AD115F4004F0CD10E
:1009C8001748FFF77FFF06991648FFF77BFFF8BD2A
:1009D80039461548FFF776FFEFE731461348FFF72A
:1009E80071FFEDE7504C0000604C0000704C0000B7
:1009F800804C0000904C0000A04C0000B04C00005F
:100A0800C04C0000D04C0000E04C0000EC4C000052
:100A180000ED00E0FC4C00000C4D00001C4D0000F7
:100A28004C4D0000544D00002C4D00003C4D000082
:100A3800184B1B8803F00303032B2AD8DFE803F0C5
:100A480002060A25144A154B1A607047124A134BBE
:100A58001A6070470F4A1388938903F03F010E4BC1
:100A680003FB01F3928902F0C002402A0BD0802ACE
:100A780000D19B08074A928912F4807F00D05B0856
:100A8800064A136070475B08F4E7054B1A68034B86
:100A98001A607047008002400024F4009C01002086
:100AA8009801002010B514284ED8DFE800F04A0B52
:100AB8000F13171A1D202326292C2F3235383B3EB9
:100AC800414447004FF400631C463DE000234FF4C7
:100AD800807439E04FF480731C4635E00023F0241D
:100AE80032E01023F0242FE02023F0242CE03023E0
:100AF800F02429E04023F02426E05023F02423E0CA
:100B08006023F02420E07023F0241DE08023F024EB
:100B18001AE09023F02417E0A023F02414E0B02377
:100B2800F02411E0C023F0240EE0002303240BE09E
:100B38000123032408E00223032405E003231C46C1
:100B480002E000234FF4006472B606490A8892B2A4
:100B580022EA040213439BB20B8062B6FFF768FFD8
:100B680010BD00BF0080024008B572B61D4B1E4A7A
:100B78009A604FF4E0225A62BFF36F8FBFF34F8F32
:100B880062B61A4A4CF614339381138A9BB243F027
:100B980003031382154B1B8A13F4007FFAD0144BFE
:100BA8001A8892B222F0030292B21A8000221A80A6
:100BB80041F210029A8088229A818F221A824FF479
:100BC800C0729A820120FFF76DFF084A4CF6143371
:100BD8009381138A9BB223F008039BB21382FFF719
:100BE80027FF08BD00ED00E00000000000240040E1
:100BF8000080024010B50F280BD8DFE800F0080885
:100C08001818181818181C1C1C1C1C1C1C1CCA01A1
:100C1800802472B609498B889BB223EA04031343E4
:100C28009BB28B8062B6FFF703FF002010BD0A025B
:100C38004FF47C54EDE78AB23F24EAE70080024093
:100C480070B439B10C460021032806D8DFE800F05B
:100C5800410B0B070221204CF6E7002604E041F087
:100C68000401002600E0042672B61C4D44F6590320
:100C7800AB804FF27B23AB802B881BB223F003039E
:100C880003439BB22B80164803690B4323EA0603F0
:100C98000361EFF31181520182F311880AE0114BCD
:100CA8001B8B03F00E03002BF9D1BFF34F8F30BF1E
:100CB80062B672B62378002BF1D00023237081F33B
:100CC8001188074A136923F002031361BFF34F8F9A
:100CD80062B6002070BC7047A001002000240040CC
:100CE80000ED00E080250040034610B101221A7093
:100CF800704772B6044A136923F002031361BFF305
:100D08004F8F62B6014BF1E700ED00E0A001002033
:100D1800684620F007018D4601B4FEE7684620F0DA
:100D280007018D4601B4FEE7684620F007018D46AD
:100D380001B4FEE7684620F007018D4601B4FEE7DE
:100D4800684620F007018D4601B4FEE7684620F0AA
:100D580007018D4601B4FEE7684620F007018D467D
:100D680001B4FEE7684620F007018D4601B4FEE7AE
:100D7800684620F007018D4601B4FEE7684620F07A
:100D880007018D4601B4FEE7684620F007018D464D
:100D980001B4FEE7684620F007018D4601B4FEE77E
:100DA800684620F007018D4601B4FEE7684620F04A
:100DB80007018D4601B4FEE7684620F007018D461D
:100DC80001B4FEE7684620F007018D4601B4FEE74E
:100DD800684620F007018D4601B4FEE7684620F01A
:100DE80007018D4601B4FEE7684620F007018D46ED
:100DF80001B4FEE7684620F007018D4601B4FEE71E
:100E0800684620F007018D4601B4FEE7684620F0E9
:100E180007018D4601B4FEE7684620F007018D46BC
:100E280089B500AF0A4B1B6883F30888094A44F662
:100E3800590393804FF27B23938013886FEA4343CF
:100E48006FEA53439BB2138001F09CFFFEE700BF9B
:100E5800000000000024004038B50446806C69B1E9
:100E68001546C160426000F089FB08B141F20B50A1
:100E7800A4F85450002384F84D3038BD00F004FC29
:100E88000028F7D041F20B50F4E7000010B5013903
:100E980003290ED8DFE801F00B0205083320154CB2
:100EA80007E03420144C04E03520144C01E03220D3
:100EB800134C83B9236823EA020222602368B3B97A
:100EC800430900F01F00012202FA00F020330D4A06
:100ED80042F823000BE023681A432260420900F01D
:100EE8001F00012303FA00F0064B43F822000020FC
:100EF80010BD00BF900008409400084098000840CA
:100F08008C00084000E100E00139032906D8DFE839
:100F180001F002070B0F084BC3F8A0200020704710
:100F2800054BC3F8A420F9E7034BC3F8A820F5E75D
:100F3800014BC3F8AC20F1E70000084070B52F4B17
:100F4800DA68D2F8A030D2F88C2013F0010F04D060
:100F580012F0010F22D1002400E0002413F0020F48
:100F680004D012F0020F01D044F0020413F0040F71
:100F780004D012F0040F01D044F0040413F0080F59
:100F880004D012F0080F01D044F0080413F0100F39
:100F980006D012F0100F2AD1002502E00124DDE767
:100FA800002513F0200F04D012F0200F01D045F0D7
:100FB800200513F0400F04D012F0400F01D045F087
:100FC80040050E4B5B6A2BB144EA05010B4A926A55
:100FD80011420ED1094E00232A4601213046FFF75F
:100FE80055FF224601213046FFF78EFF70BD1025C0
:100FF800D7E7002201489847ECE700BF6C160020AD
:1010080010B51D4BDA68D2F8A430D2F8902013F04E
:10101800010F04D012F0010F27D1002400E00024B2
:1010280013F0020F04D012F0020F01D044F00204B2
:1010380013F0040F04D012F0040F01D044F004049C
:1010480013F0080F04D012F0080F01D044F0080480
:10105800094BDB6A1BB1084A126B144207D12246BE
:1010680002210548FFF750FF10BD0124D8E70022F0
:10107800214601489847F2E76C16002070B53C4BB2
:10108800DA68D2F8A830D2F8942013F0010F06D00D
:1010980012F0010F1FD001243549CC7100E0002463
:1010A80013F0020F04D012F0020F01D044F0020432
:1010B80013F0040F04D012F0040F01D044F004041C
:1010C80013F0080F09D012F0080F49D00120284961
:1010D8008871082502E00024E2E7002513F0100FCC
:1010E80004D012F0100F01D045F0100513F0200FB6
:1010F80004D012F0200F01D045F0200513F0400F66
:1011080008D012F0400F05D044F0400441F20850D6
:101118001749888013F0800F08D012F0800F05D08F
:1011280044F0800441F20752114B9A80114E304628
:10113800FFF7DAFDF36933B144EA0501A6F11802B5
:10114800926B11420ED10A4E00232A4603213046E3
:10115800FFF79CFE224603213046FFF7D5FE70BDFF
:101168000025BBE70022A6F118009847EBE700BF6F
:101178006C1600208416002070B52B4BDA68D2F864
:10118800AC30D2F8982013F0010F04D012F0010F00
:101198001ED1002400E0002413F0020F04D012F046
:1011A800020F01D044F0020413F0040F04D012F02F
:1011B800040F01D044F0040413F0080F0AD012F011
:1011C800080F2AD041F20A5017498880082502E002
:1011D8000124E1E7002513F0100F08D012F0100FDA
:1011E80005D045F0100541F209520F4B9A800E4B7D
:1011F800DB6B2BB145EA04010B4A126C11420ED18C
:10120800094E0023224604213046FFF73FFE2A46B6
:1012180004213046FFF778FE70BD0025DBE7002289
:1012280001489847ECE700BF6C16002008B54FF05E
:101238000042074BC3F88020064B012283F84C205C
:101248009A71DB691BB1002211460248984708BD14
:1012580000E100E06C16002070B5314BB3F8546023
:10126800B3F85620002A48D0B3F85C305BB32C4B57
:10127800196DB3F8583001EB43052A4801609A42CA
:101288001BD80021264BA3F856100021244BA3F8A5
:101298005C10244B19682248FFF7DEFD0122224B1F
:1012A8001A70224C2046FFF71FFDA36823B12A4677
:1012B8003146A4F11800984770BDD21A1849A1F810
:1012C80056201A46E1E7164B1D6DB3F8581005EB8A
:1012D800410114480160B3F85A309A4207D80020F7
:1012E8000F49A1F856000E49A1F85C30D1E7D21A8F
:1012F8000B49A1F856201A46F5E70B4B1B7863B14A
:10130800084B1D6801230A4AC2F88430044A82F84F
:101318004D300022044B1A70C3E7014B1D6DF1E7F5
:101328006C160020A4010020A101002084160020D2
:1013380000E100E072B6406883889AB201F47C4309
:101348001BB213439BB2838062B600207047000033
:1013580010B5224B1B78002B32D0204BDB687BB3B7
:1013680072B61E4B5A68918813889BB20B4003F4DF
:101378007C4262B612F4004F27D1002413F4804F48
:1013880002D044F48044A4B213F4005F02D044F4C1
:101398000054A4B213F4805F02D044F48054A4B281
:1013A80013F4006F02D044F40064A4B213F4806F05
:1013B80002D044F48064A4B2084B1B8A1C4207D1B3
:1013C80021460648FFF7B6FF10BD4FF40044D5E7A5
:1013D8000248C368002221469847F1E7A801002087
:1013E80008B50D4B01221A725A68516B1B783BB134
:1013F800CAB2094BDB681BB10748007C024206D120
:10140800054B5B681A6B5A63BFF34F8F08BD002208
:10141800C9B201489847F3E7BC01002038B5114B21
:101428001C694CB972B6104A0023936053600D4A88
:101438001372D36062B638BDB4F5806F28BF4FF41D
:1014480080641D46DB680848836044600123037597
:1014580000F094F8EB6803EB8403EB602B691B1B2B
:101468002B6138BDCC160020E416002070B401238F
:1014780003FA00F072B6254A536843F0010353603B
:1014880062B6234B1B78002B30D0002930D00129BD
:1014980035D072B61E4A53681843506062B60020B1
:1014A80070BC70472C011B4A161900231351736036
:1014B800B36002F58072161913517360B360013579
:1014C8000F2DEFDD114B134A9A6000221A625A62FF
:1014D8009A62DA621A635A639A634FF6FF72DA63A2
:1014E800FF22DA6401220A4B1A70CEE70025E7E7EB
:1014F80072B6064AD36B0343D36362B6C9E772B6C2
:10150800024A936B0343936362B6C2E7000001404B
:10151800D0010020DC0100200E4B5B68C34013F0B3
:10152800010F02D141F20120704772B6012202FA7E
:1015380000F0084B5A6822EA00025A6062B65B68FB
:101548002BB90020044B5860024B187070470020DC
:10155800704700BFD00100200000014019B10129E7
:1015680005D0002070470022034B1A80F9E70122BA
:10157800014B1A80F5E700BF0081024010B44378A0
:101588008BB903783C4A02EB031283681360C36883
:10159800536072B6037C062B11D8DFE803F0090903
:1015A8000910191919000378344A02EB0312ECE701
:1015B80014684168013901FA03F323441360437C3A
:1015C800062B15D8DFE803F00D0D0D14424242003A
:1015D800146841680139043B01FA03F3E31A136004
:1015E800EDE754684168013901FA03F32344536075
:1015F80062B6417C037C9B0643EA8173817843EAA7
:101608000163C17C43EA81334168013943EA01132C
:10161800017D0B439360027801239340027C032AE7
:101628001DD9174AC2F81038427C032A1BD9144A1C
:10163800C2F81838134A9268134218D1104AC2F8EF
:1016480004380F4A9362002010BC70475468416800
:101658000139043B01FA03F3E31A5360C8E7084A67
:10166800C2F81438E0E7064AC2F81C38E2E7044A30
:10167800C2F80038E5E700BFDC010020DC020020EA
:1016880000000140D001002010B403780B4A02EB9F
:1016980003120121994072B6936823F47F5323F013
:1016A8003F034468013C007D40EA04100343936013
:1016B80062B6034B9962002010BC7047DC01002021
:1016C8000000014000F0300010280DD005D9202876
:1016D80008D0302804D10120704708B9002070478D
:1016E800022070470E2070470B20704708B54368EA
:1016F8001B889BB283611C30FFF7F6FA08BD10B552
:10170800044643684FF256421A8443684FF2231244
:101718001A84436801209880636889B2198100227D
:1017280004F11C01FFF78CFAA069636800229A8013
:1017380080B210BD08B50248FFF7D8FF08BD00BF4A
:101748000C00002008B50248FFF7D0FF08BD00BF15
:101758002C00002008B50248FFF7C8FF08BD00BFED
:101768004C000020F8B504460F461646334D05EBED
:101778004015002313606A68314B9A4249D02F4BB9
:1017880003EB441300221A7793F914104FEA511E01
:1017980001F01F01012000FA01F12A4840F82E103B
:1017A80059688A8059680A8159680A8259680A837F
:1017B80059680A845B68224A93420ED000229A82B2
:1017C8001E4B03EB441359688A835968A1F85020CB
:1017D8005B684FF6FF72A3F85420184B03EB4413D1
:1017E8005B68194A934223D0144B03EB44135B689C
:1017F8000022A3F87820A3F87C20A3F88020A3F87F
:101808008420C7B1012264010C4B1A5535600020B1
:10181800F8BD00210D20FFF729FE08B11020F8BD02
:1018280001210D20FFF79AFE0028A8D01020F8BD4E
:1018380000221A87D8E70222E5E700BF0C00002043
:1018480000C0014000E100E00081014010B50446FD
:101858004268104B9A420ED094F914305A0903F09A
:101868001F03012101FA03F320320B4941F822300A
:101878000020207010BD00210D20FFF76FFE08B179
:10188800102010BD0D20FFF747FE0028E4D01020DF
:1018980010BD00BF00C0014000E100E038B50446BB
:1018A800458A01FA05F541680B889BB20A8892B20D
:1018B800134313F0030FF7D16368AAB21A8263685F
:1018C8002A0C9A8201212046FFF719FF2378012B61
:1018D80003D100F03003302BEED0FFF7F3FE38BD14
:1018E80010B5044641680B889BB20A8892B213432C
:1018F80013F0030FF7D104212046FFF700FF2378E8
:10190800012B03D100F03003302BF4D0FFF7DAFEBF
:1019180010BDF8B50446012935D00227618A02FABC
:1019280001F603FA01F5AE4202D82B4635461E46AB
:101938006368198889B2188880B2014311F0030FCF
:10194800F7D16368AAB21A8263682A0C9A8263681C
:10195800B2B21A836368320C9A8339462046FFF77D
:10196800CEFE2378012B03D100F03003302BE8D0D2
:10197800FFF7A8FE6268918E138E9BB243EA01437B
:10198800069A1360F8BD0327C8E743684FF256422A
:101998001A8443684FF223121A84436805221A8175
:1019A800002070472DE9F04182B00446164698465B
:1019B80021F0030701F003034068028892B201880E
:1019C80089B20A4312F0020FF7D10522828000255E
:1019D80024E0317801AAD154013501330136032BB3
:1019E80001D84545F5D361680B889BB20A8892B245
:1019F800134313F0020FF7D1019B3B60002204F15F
:101A08001C010120FFF71CF9A3692278012A03D1E0
:101A180003F03003302BE6D004370023454503D2CA
:101A28004FF0FF320192DAE76268108880B21388BB
:101A38009BB2034313F0020FF7D100239380FFF703
:101A480041FE02B0BDE8F08130B587B045681C4C56
:101A5800A54202D00D2007B030BD04460D208DF8F8
:101A6800000000208DF8010002258DF80250EB409F
:101A78000193029203918DF810508DF811508DF852
:101A880012008DF8130001238DF814300D4B1A60E5
:101A98006846FFF773FD08B11020DCE763680E2283
:101AA8009A8094F914305A0903F01F0301219940D0
:101AB800054802F1200340F8231045600020CAE7DA
:101AC80000C00140DC03002000E100E030B583B035
:101AD8004FF47A7301934268164B9A4202D00D2054
:101AE80003B030BD0D460446002200F11C01012060
:101AF800FFF7A6F8A36910490223C1F8843094F9C6
:101B08001430580903F01F03012202FA03F341F8C5
:101B180020306268108880B213889BB2034313F0A8
:101B2800020FF7D100239380044B1B682B60FFF74B
:101B3800C9FDD5E700C0014000E100E0DC0300205A
:101B48008368C91AC368994201D307207047438A3A
:101B5800D9401160002070474368164A934226D046
:101B680001291CD019B1022917D00820704700227A
:101B7800A3F85020104BB3F8503013F0020F10D1D7
:101B88000E4BB3F8503013F0020F0AD14FF08052C9
:101B98000B4BC3F88420002070470322E8E701229A
:101BA800E6E74FF08052064B5A60002070470D2040
:101BB800704700BF00C00140008001400081014023
:101BC80000E100E010B40F290ED80C4643687833C2
:101BD8000ABB1A8892B2012101FA04F422EA04022B
:101BE8001A80002010BC70471F2904D843687C3332
:101BF800A1F11004ECE72F2904D843688033A1F140
:101C08002004E5E73F2901D90820EBE7436884333E
:101C1800A1F13004DCE71A8892B2012101FA04F438
:101C2800224392B21A800020DCE70000431E012004
:101C3800984080B2014B188600207047002400406D
:101C4800018300207047818300207047F0B587B07A
:101C580007460C4601AD184E0FCE0FC533682B60F2
:101C6800164B03EBC7035B6833B1144800EBC7009E
:101C78000022214680689847A4F12F03012B15D82C
:101C8800002203E00B8D9BB20BE00132042A10D82E
:101C980006AB03EB820353F8141C2F2CF2D08B8D68
:101CA8009BB2088E0340F0D00B86EEE72046FFF784
:101CB800BDFF07B0F0BD00BF984D0000E003002055
:101CC80008B501210020FFF7C1FF08BD08B50221B2
:101CD8000120FFF7BBFF08BD08B503210220FFF76D
:101CE800B5FF08BD08B504210320FFF7AFFF08BD05
:101CF80008B505210420FFF7A9FF08BD08B506218E
:101D08000520FFF7A3FF08BD08B507210620FFF748
:101D18009DFF08BD08B508210720FFF797FF08BDFC
:101D280008B509210820FFF791FF08BD08B52F2144
:101D38000920FFF78BFF08BD08B530210A20FFF7FF
:101D480085FF08BD38B5C3689D8B01229A81436819
:101D58003BB1ADB2044615F0010F03D115F0020FE7
:101D680005D138BD0022012180689847F6E76368ED
:101D780000220221A0689847F3E7000008B502484E
:101D8800FFF7E0FF08BD00BF3C04002008B502488B
:101D9800FFF7D8FF08BD00BF4C04002008B5024873
:101DA800FFF7D0FF08BD00BF5C040020104B1B7874
:101DB800EBB10F4BDB68D3B110B572B60C4B5B6857
:101DC8001B8903F0010362B64BB90024084B1B6959
:101DD800234206D1064B5B68A4B21C8110BD0124C6
:101DE800F4E70348C368002221469847F2E77047A2
:101DF8006C04002008B5837CA3B90A460346C06872
:101E0800198A012A08D0FFF71BFF003018BF0120EC
:101E180050B140F6054008BDFFF715FF003018BF68
:101E28000120F5E7002008BD002008BD10B50446D4
:101E380043681A8892B2C2F34201C1F1040189B21F
:101E4800C2F3022200E019464B1E9BB281B1616ABF
:101E58000029F8D06168A0690078088194F820000A
:101E6800A1690144A161616A01396162EBE71A461F
:101E7800531E9BB27AB1A26A002AF8D0E26961685F
:101E88008988117094F82110E2690A44E261A26A13
:101E9800013AA262EBE7A36A83B9636A73B90123C3
:101EA80084F82C302378022B0BD0637A012B0DD0C9
:101EB800236C1BB100221146606C984763681B882D
:101EC80010BD00212046FFF795FFEEE704F115004D
:101ED800FEF70AFFECE7000008B50248FFF7A6FF87
:101EE80008BD00BFFC16002008B50248FFF79EFF9A
:101EF80008BD00BF5017002008B50248FFF796FF3D
:101F080008BD00BFA417002008B5024BDB6B0220F8
:101F1800984708BDFC16002008B5024BDB6B032070
:101F2800984708BDFC16002008B5034BD3F890303D
:101F38000420984708BD00BFFC16002008B5034BD5
:101F4800D3F890300520984708BD00BFFC16002044
:101F580008B5034BD3F8E4300020984708BD00BF0C
:101F6800FC16002008B5034BD3F8E430012098474D
:101F780008BD00BFFC16002001F00E01C1727047B9
:101F88002C4B5A681389DBB213F0010F51D110B5ED
:101F980003F00603042B10D0062B05D0022B28D003
:101FA8002548FEF7A1FE10BD918AC9B211F00E0FA7
:101FB800F6D02048FFF7E0FFF2E71E49CB8B9BB233
:101FC800898B8B4210D01B4B1B8B99420DD01088EC
:101FD800184A5169138B5C1C1483C854D38B9BB269
:101FE80001339BB2D383DBE7FEE70021114B198352
:101FF800EDE7104BD88C198D884201D30020D88486
:102008000C4B5B8D9BB299420CD90A49086ACB8C60
:102018005C1CCC84C35C13804B8D9BB201339BB298
:102028004B85BDE793889BB223F002039BB2938054
:10203800B6E770476C0000207D00002090F9013061
:102048005A0903F01F03012101FA03F3203204495E
:1020580041F822300023437003701846704700BFD0
:1020680000E100E0837883B1104B1B8B03F00E0373
:10207800002BF9D172B689B10C4A13899BB243F08F
:102088006003138162B600207047084B1B8B03F076
:102098000E03002BEED040F608107047034A138950
:1020A8009BB223F020039BB21381EBE7802500400D
:1020B80083785BB10A4B1B8B03F00E03002BF9D11D
:1020C8004CF6CC42064B9A8100207047044B1B8B80
:1020D80003F00E03002BF3D040F60810704700BF42
:1020E8008025004070B503461A4C00EB4002A0184A
:1020F80000250D6001268670A554174A128B12F030
:10210800100F12D1144A128912F0200F0DD1134D5D
:1021180003FA06F21A4402FA06F42E192C5B0E4A48
:10212800148074881481002414820A4A03EB430340
:10213800D4180A2565704FF48065094C2560012480
:10214800D4540860FFF7B4FF034608B140F60513FE
:10215800184670BD8004002080250040AC4D00006A
:1021680000E100E02DE9F041DFF88CE0860032184C
:102178009300734400220A60DFF880C0C3F804C0EB
:10218800DFF87C8044000444E70008EB070538F8D2
:102198000740ACF808405C686F88A7815F686C6886
:1021A8004FEA144CA7F840C0A4B2BC87AC684FEA09
:1021B800144CA7F814C0A4B23C825C68EF684FEADC
:1021C800174CA4F81CC0BFB227832F694FEA174CDD
:1021D800A4F824C0BFB22784AD8A258522861A7246
:1021E800DA601A743044840001200EF804000B6091
:1021F8001046BDE8F08100BF84040020002500409F
:10220800B44D000072B6426813899BB223F4C063D0
:102218009BB21381426813899BB243EA412189B278
:10222800118162B60020704701F01F0172B642B9F1
:102238004268138D9BB223EA0101118562B6002022
:1022480070474268138D9BB219431185F6E701F078
:102258001F0143681B8D194214BF012000207047DD
:1022680072B6426813899BB223F003039BB21381B1
:10227800426813899BB21943118162B600207047E6
:1022880072B649B9426813899BB223F080039BB2A6
:10229800138162B600207047426813899BB243F0ED
:1022A80080031381F5E743681889C0F3C0107047AD
:1022B8002DE9F84305460E461746FFF7F4FF80461A
:1022C80000212846FFF7DCFF0446E8B114B3B4B98F
:1022D8003B0CBFB216F0020F03D06A6893826A689B
:1022E800178216F0040F03D06A6893836A6817830D
:1022F80016F0080F03D06A6893846B681F8484B152
:10230800B4B12046BDE8F88331462846FFF79FFF61
:102318008146DBE7002231462846FFF785FF044661
:10232800D5E74A4631462846FFF77EFF0446E7E7E9
:1023380041462846FFF7A4FF0446E2E772B649B1D2
:10234800426813899BB223F040039BB2138162B6A3
:1023580000207047426813899BB243F04003138101
:10236800F5E7436801F01F01198600207047C16036
:10237800027400207047000010B50C4B5A68948D09
:1023880004F01F04128D14401A7C14401B781BB1F2
:10239800064BDB6803B124B921460448FFF7E1FF87
:1023A80010BD0022214601489847F5E78404002023
:1023B800024600F0010001238B420AD210B45208F1
:1023C80002F0010444EA400001338B42F7D310BC09
:1023D8007047704710B409E011F8013B4340DBB285
:1023E800054A52F8233083EA10202246541E002A58
:1023F800F2D110BC704700BFCC4D0000054A1368ED
:1024080001331360044A138E9BB243F00203138610
:10241800704700BFAC150020002500402DE9F047AB
:1024280082B00F46164698469DF828900446002527
:1024380001E001340135B5421DD22378FF2BF8D0D5
:10244800DFF890A022462049504600F073FE50461F
:1024580000F03DFDEDE7013409F101011B4A82FB63
:1024680001320A44CB17C3EBE213C3EB0323CB1AA5
:102478005FFA83F9013506EB08039D4211D22378F0
:102488009945E8D0DFF84CA000934B462246104906
:10249800504600F04FFE504600F019FDDBE70134CE
:1024A8000135BD420CD22378FF2BF8D0094E2246C5
:1024B8000549304600F03EFE304600F008FDEEE7E4
:1024C80002B0BDE8F08700BFB0570000818080806F
:1024D800D0570000A4140020F8B50F460446002584
:1024E80001E004340435BD420DD22368B3F1FF3F47
:1024F800F7D0054E22460549304600F01BFE30460F
:1025080000F0E5FCEDE7F8BDA4140020FC5700003E
:1025180008B526490020FFF725FE50BB1F22244995
:10252800224B1868FFF723FF38BB0122214B1A60A2
:1025380000211E4B1868FFF765FE10BB02211B4BDC
:102548001868FFF78DFE00BB0121184B1868FFF7CC
:10255800F5FEF0B980220221144B1868FFF7A8FE97
:10256800D8B901220221114B1868FFF75DFEC0B9E6
:1025780008BD114800F0ABFCD0E7104800F0A7FCFC
:10258800D3E70F4800F0A3FCD8E70E4800F09FFC03
:10259800DAE70D4800F09BFCDCE70C4800F097FCFC
:1025A800DFE70B4800F093FCE2E700BF9C14002033
:1025B8000524000000E100E0E45100000C52000096
:1025C8004052000074520000A4520000D45200008F
:1025D80004530000F0B583B005460E460A44541E65
:1025E80001AAFFF7ADFA40B96A4621462846FFF727
:1025F800A7FA034660B9019C15E00346154F324619
:102608001549384600F096FD384600F060FCEBE7C7
:10261800104E22461049304600F08CFD304600F03E
:1026280056FCE8E70134009B9C4210D82146284616
:10263800FFF734F903460028F4D0064E224607492E
:10264800304600F077FD304600F041FCEAE703B081
:10265800F0BD00BFA41400204054000078540000CE
:102668002DE9F04182B0804617460C4600250BE064
:102678001B4E22461B49304600F05CFD304600F0F8
:1026880026FC0FE004340435BD4225D22368B3F19B
:10269800FF3FF7D001AA21464046FFF751FA03460B
:1026A8000028E5D10E4E2346019A0F49304600F026
:1026B80041FD304600F036FC01994046FFF7EEF840
:1026C80003460028DED0019A0849304600F032FD62
:1026D800304600F0FCFBD5E702B0BDE8F08100BF52
:1026E800A4140020405400007453000078540000E3
:1026F80070B582B005460A44541E01AA2146FFF768
:102708001FFA38B901992846FFF7C8F8034660B997
:1027180002B070BD03460A4E22460A49304600F010
:1027280009FD304600F0D3FBECE7054C019A064959
:10273800204600F0FFFC204600F0C9FBE8E700BF98
:10274800A41400204054000078540000F0B585B06F
:10275800044615461E46B9B90D200D2819D007287C
:1027680017D0082815D004A9002341F8043D2046B5
:10277800FFF7ACF90446039B0A9A9A4202D0104824
:1027880000F0A5FB0F4A0CE00A9A2946FFF75CF90E
:10279800E3E733460A9A29462046FFF703F9044639
:1027A800094A0CB905B0F0BD084F019400962B46B4
:1027B8000749384600F0BEFC384600F088FBF1E7D0
:1027C800485800002058000038580000A414002081
:1027D800785800002DE9F04387B081460D461E4623
:1027E80002F01F040E9F47EAD20790463B4800F0CC
:1027F80099FB05AA01214846FEF7B4FFF8B9F2088B
:1028080039460598FFF7E6FE02210598FFF7A4F977
:10281800C8B9334B1B780BB92A680392BBB10122A4
:10282800304BA3F8542000210598FFF795F990B98B
:102838004FF080522C4BC3F88421002530E02B4800
:1028480000F045FBDBE72A4800F041FBE1E72948B7
:1028580000F03DFBE7E7284800F039FBE8E703F024
:1028680001014A405B08002BF9D1A240049B5A4061
:1028780004920135013480461F2C07D8B54205D291
:1028880008F10400D8F800300122ECE704AB00930B
:1028980004233A4600210598FFF758FF043700241F
:1028A800B54203D24FF0FF330493E5E702210598C0
:1028B800FFF752F948B90598FEF7C8FF48B90F481D
:1028C80000F030FB07B0BDE8F083094800F0FFFADC
:1028D800F1E70B4800F0FBFAF1E700BFBC56000037
:1028E800A01400200080014000E100E0D456000060
:1028F800EC560000145700003057000074570000D1
:10290800585700002DE9F04387B004460F461D468E
:102918000023039301EB0208A8F1040605AAFFF7B8
:102928000FF9002834D104AA31462046FFF708F9E8
:102938000346002838D103AB0093049B059A294627
:102948002046FEF7E6FF0E2809D0284F049B059A7B
:102958002749384600F0EEFB384600F0B8FA012D5A
:102968002CD0042303AA31462046FFF71BF8034660
:1029780038BB03AB0093049B059A29462046FEF713
:10298800C8FF40BB0E9B039A1A6007B0BDE8F083EE
:102998000346DFF858903A461649484600F0CAFB05
:1029A800484600F094FABEE7104F324611493846BF
:1029B80000F0C0FB384600F08AFABCE7A8F1080628
:1029C800CFE70A4F32460C49384600F0B3FB384689
:1029D80000F07DFACDE7054C049B059A074920468F
:1029E80000F0A8FB204600F072FACBE7A414002000
:1029F8009C53000040540000D853000014540000B9
:102A080070B582B004460D4616464FF0FF30236875
:102A180093FAA3F302A941F8043D0422FFF7DAFC74
:102A2800AC4201D03444F2E72021FFF7C1FC02B0E8
:102A380070BD000008B5FEF753FF00B908BD024895
:102A480000F045FAFAE700BF685500002DE9F04F9D
:102A58008BB0894605920393DDF854B0149EB602F4
:102A6800002209E08D4BA3FB0213DB09C3EB032310
:102A7800D31A8B498B540132B2F5805FF2D300F040
:102A880051FA09AA01214846FEF76CFEA8B909982F
:102A9800844B186001220021FFF794F8034680B99F
:102AA8003246039C21460998FFF7DAFD3146204655
:102AB800FFF712FD4FF0010834E07B4800F007FAF9
:102AC800E5E77A4C4FF0FF327949204600F032FBB7
:102AD800204600F0FCF9E3E700F0C8FAB0FBFAF58D
:102AE8000AFB150500F0C2FA724A82FB0032C317CE
:102AF800C3EB620303EB43039A00831A25FA03F33B
:102B08005D1CB9F1020F21D0B4F5003F24D255B3B2
:102B1800B5F5805F2ED8684B1A6801321A6082BBFF
:102B280008F10108D84500F29C8000F09FFAA6F150
:102B38000807B0FBF7F407FB1404351BA5F1080AD6
:102B4800BAF5805FC8D340F6FF7AC5E724F00304DE
:102B58001D1D25F00305D7E7584B594A40F2DD21E2
:102B68005848FDF793FE584B554A40F2DE21554828
:102B7800FDF78CFE554B524A40F2DF215148FDF7D4
:102B880085FE039BE318DFF824A1009504935049C0
:102B9800504600F0CFFA504600F0C4F9404B00937D
:102BA8002B46049A05990998FFF7D0FD4FF0000AC3
:102BB800CDF800A02B4622463946039C2046FFF755
:102BC8002DFC08AB00935346324621460998FFF77F
:102BD80099FE204634190C3C4FF0FF3300933D4BCF
:102BE80004222146FFF70CFF089B984202D03A487E
:102BF80000F06DF907AB009301233246039F394675
:102C08000998FFF77FFE4FF0FF330093314B6FF0C9
:102C1800030239462046FFF7F3FE079B984202D08D
:102C28002E4800F054F9079B089A9A4211D0B9F13E
:102C3800000F12D12A4604990998FFF7CBFC3246B7
:102C480003990998FFF754FD31460398FFF744FCB0
:102C580066E7234800F03BF9E9E70998FFF7EAFE41
:102C6800F2E7B9F1000F0AD00998FEF7EFFD80B935
:102C78001C4800F057F900200BB0BDE8F08F022186
:102C88000998FEF769FF0028EED0174800F01FF9F1
:102C9800EAE7164800F01BF9EAE700BF8180808068
:102CA8009804002098140020D4560000A414002092
:102CB8007C550000ABAAAA2AA8150020AC55000034
:102CC80068530000C0550000D0550000DC550000D6
:102CD800EC550000B71DC1041C5600004C560000FE
:102CE8007C560000A8560000EC560000585700001B
:102CF80008B5024800F0EBF808BD00BFD851000045
:102D080008B5024800F0E3F808BD00BFCC51000048
:102D18000E4B1B7843B901220C4B1A704FF08052AE
:102D28000B4BC3F88420704710B50A4AB2F85830E4
:102D3800B2F85C20084C9BB292B20849204600F0D9
:102D4800F9F9204600F0C3F810BD00BFA014002018
:102D580000E100E000800140A41400203C53000082
:102D680008B5064B1B68052B02D00133034A1360D4
:102D7800034B186808B1FEF708FE08BDA41500202B
:102D88009814002070B582B001F008FEFDF7ECFE43
:102D980001210920FDF72EFF00286CD10121042014
:102DA800FDF728FF00286AD100F096F8384AD36862
:102DB80023F4E0631B041B0C43F0BF6343F40133AB
:102DC800D360344B34495960E02182F82310002144
:102DD800996007211960C02382F82330FFF798FB18
:102DE80001212E4B1868FFF74BFA00284BD14FF4FE
:102DF800783300934FF40043002211461046FFF742
:102E0800E9FC4FF4BE2300934FF4F8434FF48022BB
:102E180011460120FFF7DEFC002000F001F90A242A
:102E28000194782300934FF40033002211461C4884
:102E3800FFF70CFE0194802300934FF480230122B6
:102E480011461848FFF702FE174D01941026009608
:102E58002B46002202211548FFF7F8FD0194009641
:102E68002B46012202211248FFF7F0FD00F02BF853
:102E7800002002B070BD0F4800F029F88EE70D4819
:102E880000F025F890E70C4800F021F8AFE700BF04
:102E980000ED00E010E000E03F420F009C1400202D
:102EA800E8540000045500000000082020550000E8
:102EB80044550000A8540000C854000008B500207C
:102EC800FDF7AEFC08BD08B5FFF7F8FF08BD08B56B
:102ED800FFF7F4FF08BD000000B583B001A900208A
:102EE800FFF700F958B900210198FFF7BBF850B96E
:102EF8000198FFF7A3F850B903B05DF804FB064842
:102F0800FFF7E5FFEFE70548FFF7E1FFF0E70448C3
:102F1800FFF7DDFFF0E700BFA8580000E058000009
:102F2800FC58000070470000014B1868704700BF4C
:102F380098000020844641EA000313F0030349D1B6
:102F4800403A23D30B6803604B6843608B68836007
:102F5800CB68C3600B6903614B6943618B6983610B
:102F6800CB69C3610B6A03624B6A43628B6A8362F3
:102F7800CB6AC3620B6B03634B6B43638B6B8363DB
:102F8800CB6BC36340304031403ADBD230320BD395
:102F98000B6803604B6843608B688360CB68C360D1
:102FA80010301031103AF3D20C3205D351F8043BEB
:102FB80040F8043B043AF9D2043208D0D2071CBFC7
:102FC80011F8013B00F8013B01D30B8803806046F0
:102FD800704700BF082A13D38B07B1D010F0030342
:102FE800AED0C3F10403D21ADB071CBF11F8013BB2
:102FF80000F8013BA4D331F8023B20F8023B9FE7DD
:10300800043AD9D3013A11F8013B00F8013BF9D24F
:103018000B7803704B7843708B78837060467047E9
:10302800F8B50E4B05461C68A06B18B10023C0E923
:103038000453F8BD182000F0EBFA0B23A063012617
:103048000027838100230649064A074CC0E9046724
:1030580080E81600C0E90453F8BD00BF98000020BE
:103068000E33CDAB34126DE6ECDE05001C4B2DE9BA
:10307800F0481C68A16BA1B10A691A484B6900FBAA
:1030880002F0194C04FB0300A2FB0423034412F1D1
:10309800010B43F1000C2CF00040C1E904BCBDE871
:1030A800F088182000F0B4FA0FF22C0CDCE900BC10
:1030B8000146012600270B25A0630C4CC0E90467D4
:1030C8000B480C600B4C48608C6006488D81C1E948
:1030D80004BCBDE8F08800BF2E7F954C2DF45158F4
:1030E800980000202DF451582D7F954C0E33CDAB10
:1030F80034126DE6ECDE05000CB470B56FF00045D7
:103108009CB020AC54F8042B094E0291069123463A
:1031180002A901940795CDE9045600F067FC002246
:10312800029B1A701CB0BDE8704002B0704700BF27
:103138000802FFFF0EB4034630B56FF000449CB0A0
:103148001FA951F8042B0A480A4D029306930191CE
:103158000B46006802A90794CDE9044500F046FC37
:103168000022029B1A701CB0BDE8304003B07047C3
:10317800980000200802FFFF10B50C46B1F90E10A8
:1031880000F048FF002803DB636D0344636510BD4E
:10319800A38923F48053A38110BD00BF002070478A
:1031A8002DE9F041B1F90C409846E3050D46174664
:1031B800B1F90E10064607D50223002200F012FAD4
:1031C800B5F90C40B5F90E1024F48054AC8143468F
:1031D8003A463046BDE8F04100F088B810B50C46D4
:1031E800B1F90E1000F0FEF9A389421C0EBF23F4BA
:1031F800805343F480536065A38110BDB1F90E106C
:1032080000F08AB820F0030110F00300C0F10000BC
:1032180051F8043B00F1040C4FEACC0C6FF00002AB
:103228001CBF22FA0CF213434FF0010C4CEA0C2C91
:103238004CEA0C4CA3EB0C0222EA030212EACC1271
:1032480004BF51F8043B0430F4D0C2F1000102EA93
:103258000102B2FA82F2C2F11F0200EBD2007047FB
:1032680070B5141E9AB005462ADB1A464FF402734D
:1032780000910491ADF80C304FF6FF7611D0013C67
:103288001E9B694602940594ADF80E6000F0AEFBF3
:10329800421C01DA8B232B600022009B1A701AB0A3
:1032A80070BD1E9B694602940594ADF80E6000F04F
:1032B8009DFB431C01DB1AB070BD8B232B60FAE722
:1032C8008B234FF0FF302B60F5E700BF10B5064C9D
:1032D80082B00093246813460A4601462046FFF749
:1032E800BFFF02B010BD00BF98000020F8B50E4621
:1032F8000025084C114607461A463046256001F05D
:1033080039F9431C00D0F8BD2368002BFBD03B6083
:10331800F8BD00BF6816002038B50023064C0546E6
:103328000846236001F076F9431C00D038BD2368B5
:10333800002BFBD02B6038BD68160020002070479A
:10334800014900F027B900BFA541000000207047DF
:1033580070B568254A1E05FB02F50E4605F1740195
:1033680000F004FA044640B100210C30666005F113
:1033780068022160A06000F05BF9204670BD00BFC4
:103388001E4B70B51D680646AB6943B34835D5E991
:103398000134013B05D51EE0013B5A1C04F16804C9
:1033A80019D0B4F90C20002AF6D10025144B656613
:1033B800C4E90055A560C4E90455A5612946E36040
:1033C800082204F15C0000F033F9C4E90D55C4E9A2
:1033D8001255204670BD286828B10546D7E728460B
:1033E80000F010F8D2E704213046FFF7B1FF28605B
:1033F8000028F2D10C2304463360EAE71459000090
:103408000100FFFF2DE9F84F0023334AC0E91233CA
:1034180012680365904208BF0123304908BF8361E1
:1034280081620546FFF7ACFF68602846FFF7A8FFF2
:10343800A86028460024FFF7A3FF04236E68E8600D
:103448002146F3607466C6E90044B460C6E90444E2
:10345800B46106F15C00082200F0EAF8DFF888B0F1
:10346800AF68DFF888A0DFF88890DFF888801C4B09
:10347800C6E9086BC6E90AA9C6F830802146FB6090
:1034880008227C66C7E90044BC60C7E90444BC6103
:1034980007F15C0000F0CCF8EE68124BC7E9087B36
:1034A800C7E90AA9C7F830802146F3607466C6E9FF
:1034B8000044B460C6E90444B46106F15C00082223
:1034C80000F0B6F80123C6E9086BC6E90AA9C6F8F0
:1034D8003080AB61BDE8F88F145900004933000013
:1034E800090001001200020081310000A93100002A
:1034F800E531000005320000024B0349186800F06E
:1035080049B800BF14590000A5410000836903B9F8
:1035180078E77047704700BF704700BF704700BF2B
:10352800704700BF024B0349186800F00FB800BF8E
:103538009800002045330000024B0349186800F04A
:1035480005B800BF98000020553300002DE9F04170
:1035580010F148071AD088460026D7E90154013DE2
:103568000ED4A389013D012B06D9B4F90E300133DD
:1035780002D02046C04706436B1C04F16804F0D112
:103588003F68002FE9D13046BDE8F0813E4630461D
:10359800BDE8F0812DE9F84310F148061ED08846B1
:1035A80007464FF00009D6E90154013D10D4A3891C
:1035B800013D012B08D9B4F90E30013304D021465E
:1035C8003846C04749EA00096B1C04F16804EED18B
:1035D8003668002EE7D14846BDE8F883B14648462C
:1035E800BDE8F883F8B50E460025084C1146074695
:1035F8001A463046256000F0A7FF431C00D0F8BDEE
:103608002368002BFBD03B60F8BD00BF6816002084
:10361800024B0146186800F0A9B800BF98000020C6
:10362800024B0146186800F04DB800BF9800002012
:10363800F0B4860743D0541E002A3ED0CAB20346CF
:1036480002E014F1FF3438D303F8012B9D07F8D1B9
:10365800032C2BD9CDB245EA05250F2C45EA0545A3
:1036680016D9A4F110073F0903F1200606EB071647
:1036780003F1100242E9045542E902551032B24200
:10368800F8D104F00F040137032C03EB07130DD90D
:103698001E462246043A032A46F8045BFAD8221F3B
:1036A80022F003020432134404F003042CB1C9B21B
:1036B8001C4403F8011B9C42FBD1F0BC7047144624
:1036C8000346C5E7002934D038B551F8043C0C1F2F
:1036D800002BB8BFE418054600F04AFE224B1A68D2
:1036E8002AB1A2420DD921686018824235D06260A1
:1036F80028461C60BDE8384000F03CBEA34203D811
:103708001A465368002BF9D111685018A04218D0F6
:1037180010D821686018834203BFD3E90003091851
:10372800C4E90013636054602846BDE8384000F0DF
:1037380021BE70470C2328462B60BDE8384000F0B6
:1037480019BE20680144501883421160ECD1D3E9B6
:1037580000030144C2E90013E6E7D2E9000201448C
:10376800C4E90012C4E700BFB0150020F8B5CD1CAD
:1037780025F0030508350C2D38BF0C25002D06460D
:103788003ADBA94238D82A4F00F0F2FD3A6852B124
:1037980013685B1B04D433E023685B1B25D52246E2
:1037A8005468002CF8D1796800293BD02946304666
:1037B80000F046FC431C2AD0C41C24F00304A04299
:1037C80005D0211A304600F03BFC01301FD025609F
:1037D800304600F0CFFD04F10B0020F00700231D58
:1037E800C31A01D05A42E250F8BD0B2B0BD8A242A3
:1037F80015D063685360EBE70C2300203360F8BDF5
:103808000B2B0BD9144623601C442560E0E70C23DE
:103818003046336000F0AEFD0020F8BD54683C60CF
:103828001446D5E7304600F00BFC7860BEE700BFD1
:10383800B01500202DE9F0478E6880469E420C4660
:103848001D461746086828D8B1F80CC01CF4906FBC
:1038580031D0D1E9041606EB460606EBD676A0EB86
:103868000109013376104B44B342324684BF1E46E9
:1038780032461CF4806F20D011464046FFF776FF91
:10388800824670B34A462169FFF754FBA38923F4A3
:10389800906343F08003A38114E01E462A4639460C
:1038A80000F004FD0020A2682368961B2B44A66044
:1038B8002360BDE8F0873546F0E7404600F05CFD40
:1038C800824650B1A6EB09030AEB09006661C4F809
:1038D80010A02060A3602E46E0E721694046FFF76C
:1038E800F1FE0C23C8F80030A3894FF0FF3043F0F5
:1038F8004003A381DDE700BF2DE9F04F936883B053
:103908009046002B6CD0176882460C46086808372A
:103918008D6842E0A38913F4906F2DD0D4E9041583
:1039280005EB4505A0EB010B05EBD575701C6D107B
:103938005844A8422A4684BF05462A465B0536D520
:1039480011465046FFF712FF00283AD05A4621691F
:103958000190FFF7EFFAA289019B22F4906242F0EE
:103968008002A281A5EB0B0203EB0B006561B34655
:10397800354623612060A2605A46494600F096FC0D
:10398800D8F80830A2682068551B58449E1BA560CB
:103998002060C8F808601EB3083757E90296AB469E
:1039A800002EF9D0AE42B5D23546B346E4E75046CC
:1039B80000F0E2FC03460028D4D121695046FFF705
:1039C80081FE0C2300224FF0FF30CAF80030A38993
:1039D80043F04003A381C8E9012203B0BDE8F08F9A
:1039E8000020C8F8040003B0BDE8F08F2DE9F04FBF
:1039F800884689899FB00D061446029004D5D8F8E8
:103A08001020002A00F01781002020213022059381
:103A1800237801260B908DF83110914D8DF83220C6
:103A2800002B00F09680252BA24603D119E0252B08
:103A380000F0C2801AF8013F002BF8D1BAEB040B52
:103A480000F0878022465B4641460298FFF7F2FE67
:103A580001307ED00B9B9AF800205B440B93002A20
:103A680077D000234FF0FF320AF1010A0693CDE91F
:103A780008338DF85B301C93079206E0CA46069B14
:103A8800401B06FA00F018430690D146052219F8A3
:103A9800011B284600F0C4FBCB460028EED1069B4C
:103AA800D80644BF20228DF85B20190748BF2B2277
:103AB8009AF8001048BF8DF85B202A2953D0A1F14D
:103AC8003003092B00F2AC80099A02E0CA4609F1DA
:103AD800010999F8001002EB820203EB4202A1F1FE
:103AE8003003092BCB46F1D90AF1020909922E2994
:103AF80046D05C4C0322204600F092FB002858D0A8
:103B08004021001B069A01FA00F00243069209F1CF
:103B1800010499F800300622194653488DF83030D0
:103B280000F07EFB002859D0504B002B49D005AB44
:103B3800009342464E4B06A90298AFF30080074611
:103B48007A1C06D00B9B3B440B932378002B7FF405
:103B58006AAFB8F80C305B064CBF4FF0FF300B98DB
:103B68001FB0BDE8F08F059A11680432002905924C
:103B78002EDB09919AF801100AF102092E29B8D111
:103B88009BF801102A2933D1059B0BF102001A6812
:103B98000433002A079205939BF802100BF10309DE
:103BA80040DB304C83460322204600F039FB0028D6
:103BB800A6D14C46D946ACE7BAEB040B3FF451AF5B
:103BC80040E7059B073323F0070308330593B9E75C
:103BD800494243F0020309910693CBE705AB0093F2
:103BE8004246234B06A9029800F0D2F80746A7E7F9
:103BF8000022A1F130000928079201D917E0D9461F
:103C080099F8011002EB820200EB4202A1F13000A8
:103C1800092809F1010BF2D909F10209079268E7AD
:103C2800D34664E74FF0FF328346079261E7CB46FD
:103C380009F101095DE740210393FFF797FD039B15
:103C4800C8F80000C8F8100018B14022C8F81420BD
:103C5800DAE60C23029A4FF0FF30136080E700BFCA
:103C680078590000805900008459000000000000C5
:103C78003D3800002DE9F0470C460969A5689146D2
:103C88008D42B8BF0D46156094F8431006461F468E
:103C9800DDF8208011B16A1CC9F800202368990654
:103CA8005FD5D9F800200232C9F80020236813F044
:103CB800060F19461DD1E1688A1A002AD8BF19468D
:103CC80017DD002504F1190A05E0E368D9F800209A
:103CD8009B1AAB420CDD0123524639463046C04799
:103CE800013005F10105F0D14FF0FF30BDE8F08754
:103CF800216894F84330003318BF01238A060AD597
:103D08003021E21882F8431094F845105A1C2244D6
:103D180082F84310023304F1430239463046C04763
:103D28000130E1D0D4E902202368D9F8005003F02B
:103D38000603042B21691AD08A421FDD4FF00009BF
:103D4800521A914400251A3401E04D4516D001233A
:103D5800224639463046C047013005F10105F4D105
:103D6800C2E713F0060F0CD1D9F80020A3E7401BD7
:103D78008A4220EAE079E3DC0028E3DC0020BDE8A1
:103D8800F08794F84330003318BF0123C3E700BF1E
:103D98002DE9F0430C46097E85B06E290646174684
:103DA800984604F1430C0C9D4AD00FD8632900F0C3
:103DB800FE8000F2BE8000294ED0582940F0E080F5
:103DC80084F845102268DFF844E212E0732900F015
:103DD800C5807AD86F2900F0DA80702940F0D08049
:103DE800206840F0200222607823DFF824E284F87B
:103DF80045302B68191D1B682960150602D450062A
:103E080048BF9BB2D10744BF42F020022260002B7A
:103E18006CD1D4E9001284F84330002A21F0200341
:103E28002360A2607DDB21F0240121601021002A9B
:103E380078D1654608294ED0ACEB050323610EE026
:103E48002B682268181D6169286015061B6802D452
:103E5800500600F1C6801960002365462361CDF83D
:103E680000803B4603AA21463046FFF703FF013096
:103E780020D02A46236939463046C047013019D038
:103E8800226803989207E36819D51A1A002A16DDE2
:103E9800002504F1190904E0E36803981A1AAA42F4
:103EA8000DDD01234A4639463046C047013005F149
:103EB8000105F1D14FF0FF3005B0BDE8F08398421D
:103EC800B8BF184605B0BDE8F08375295FD07829DA
:103ED80056D1226888E72368DB07ADD56268236975
:103EE8009A42A9DC3023013D2B70A5E7102100225E
:103EF80084F843206268002AA2602CDB206820F046
:103F080004002060002B92D06546B3FBF1F201FB60
:103F180012331EF80300134605F8010D002AF4D1E8
:103F280088E710219EF8003004F1420584F84230F9
:103F380080E7642901D0692922D120682B6801060D
:103F480003F1040245D51B682A60002B4BDB0A21CC
:103F5800DFF8B8E0CEE7002BD6D1E3E72B6862683C
:103F6800191D29601D680021284600F059F900280C
:103F780045D0401B60602061002384F843306EE721
:103F8800012384F84210236104F14205F4E7206814
:103F98002B6810F0800F03F1040213D01B682A600D
:103FA8006F290CBF08210A21DFF860E09FE7012292
:103FB8002B68191D1B68296004F1420584F84230FA
:103FC8002261D9E7400653BF1B682A601B882A6014
:103FD800E6E7410653BF1B682A60B3F900302A6040
:103FE800B3E7198038E72D2162685B42002A84F81C
:103FF8004310A26005DB0A21DFF810E07FE7606864
:10400800B9E7DFF808E00A217EE700BF8C59000015
:10401800A0590000F8B50E460025084C1146074681
:104028001A463046256000F011FA431C00D0F8BD4E
:104038002368002BFBD03B60F8BD00BF681600204A
:1040480038B50023064C054608462360FCF7F4FB08
:10405800431C00D038BD2368002BFBD02B6038BD33
:10406800681600208B892DE9F0411A070C46804616
:104078003BD44A68002A54DDE56A002D4ED0002260
:10408800D8F80060216AC8F8002013F480527CD167
:1040980001234046A847431C47D0A389E56A216A03
:1040A8005F0705D56268636B801A0BB1236CC01A71
:1040B800024600234046A847451C42D000236360BF
:1040C800A3892269DB04226000D56065616BC8F8AA
:1040D800006019B304F14403994202D04046FFF747
:1040E800F1FA00206063BDE8F0810E69B6B19A0765
:1040F80018BF00230D6808BF4B690E60AD1B8B60AD
:104108000AE02B463246A76A216A4046B84700288B
:10411800A5EB0005064428DD002DF2DC0020BDE8F3
:10412800F0810A6C002AA7DCF8E7D8F80030002BE9
:10413800B3D01D2B01D0162B29D1C8F80060002060
:10414800EDE7D8F800201D2A17D8134BB4F90C1046
:10415800D340DB4313F0010311D12569C904C4E935
:104168000053B3D5002AB1D1AFE7A3894FF0FF3090
:1041780043F04003A381BDE8F081B4F90C1041F08D
:104188004001A1814FF0FF30C9E7606D88E7A3893E
:1041980043F04003A381C2E7010040200B6923B329
:1041A80010B5044682B008B18369BBB1104B99427F
:1041B80012D0104B994216D00F4B994208BFE168B4
:1041C800B1F90C3013B9002002B010BD204602B07E
:1041D800BDE81040FFF746BF6168F1E70191FFF7BE
:1041E80095F90199E2E7A168EAE70020704700BF66
:1041F80058590000385900001859000020B1054BE3
:1042080001461868FFF7CABF034B04491868FFF74F
:10421800C1B900BF9800002014590000A541000052
:10422800830770B4CDB23DD0541E0AB30378AB42B5
:104238001FD0431C05E014F1FF3419D30278AA42B9
:1042480017D013F0030F184603F10103F3D1032C21
:1042580011D84CB30378AB420BD00444431C02E0A2
:104268000278AA4205D09C42184603F10103F7D10F
:10427800002070BC704706460A0292B22A4342EAFE
:104288000242336830465340A3F1013121EA030367
:1042980013F0803F06F10406DCD1043C032C3046C1
:1042A800EFD8D6E71446D2E72046E2E78842F0B4D2
:1042B8000DD98B1883420AD9841832B1224613F8D3
:1042C800014D994202F8014DF9D1F0BC70470F2A0F
:1042D80048D940EA01039B0746D1A2F110031B0904
:1042E80001F1200707EB031701F1100400F1100595
:1042F80054F8106C103445F8106C54F81C6C1035D8
:1043080045F81C6C54F8186C45F8186C54F8146C83
:10431800BC4245F8146CEBD1013302F00F051B01C8
:10432800032D1944034421D90F462C461E1F57F864
:1043380004CB043C032C46F804CFF8D82C1F24F0F7
:10434800030404342344214402F00302002ABCD0AD
:10435800013B0A4411F8014B914203F8014FF9D18E
:10436800F0BC70470346F1E70346F1E72A46EDE75C
:10437800704700BF704700BFE1B1F8B51446E2B11D
:1043880006460D4600F01EF8A04202D32F463846D6
:10439800F8BD21463046FFF7E9F907460028F6D070
:1043A80022462946FEF7C6FD30462946FFF78AF918
:1043B8003846F8BD1146FFF7D9B9FFF783F9274604
:1043C800E5E700BF51F8043C181F002BBCBF0B5891
:1043D800C01870470A4B10B50446186808B1836BBB
:1043E8004BB1132C0AD8074850F83430013305D0A4
:1043F80000EBC40010BDFFF789F8F2E7002010BDFC
:1044080098000020B815002070B5FEF78DFD132424
:104418000546002620463146ABBE04464FF0FF3025
:104428002C6070BD30B585B0CDE90101039206243A
:1044380001AD20462946ABBE0446631C02D0204687
:1044480005B030BDFFF7E0FF05B030BDF0B585B071
:104458000F461546FFF7BEFFE0B103680646CDE9F3
:1044680001370624039501AF20463946ABBE044602
:10447800621C07D072682D1B2C46154475602046B7
:1044880005B0F0BDFFF7C0FF431C0446F2D120463B
:1044980005B0F0BDFEF748FD09224FF0FF34026079
:1044A800EDE700BF2DE9F04383B089461446FFF7D6
:1044B80091FF002841D0022C38D8012C064622D082
:1044C800022C036811D04D46E846CDE900350A2490
:1044D80020464146ABBE0446631C1BD0002C22DBA1
:1044E8007560284603B0BDE8F0830DF108080C2775
:1044F80048F8083D38464146ABBE0546691C0DD014
:104508004D443368E1E7456819EB05050ED40368A7
:10451800E846DAE7FFF778FF0446DFE7FFF774FFBE
:10452800421C0546ECD14FF0FF35DAE7FEF7FCFCFC
:1045380016234FF0FF350360D3E7FEF7F5FC092398
:104548004FF0FF350360CCE7FFF7ACBF30B585B05F
:10455800CDE901010392052401AD20462946ABBEF1
:104568000446631C02D0204605B030BDFFF74CFF5F
:1045780005B030BDF0B585B00F461646FFF72AFFE7
:1045880060B303680546CDE901370524039601AFFA
:1045980020463946ABBE0446631C0AD0002C1ADB01
:1045A8006A68331B1A44B4426A6006D0184605B0DC
:1045B800F0BDFFF729FF0446F0E7FEF7B5FC132529
:1045C8000646002428462146ABBE05462346184623
:1045D800356005B0F0BD4FF0FF33E7E7FEF7A4FC08
:1045E80009224FF0FF330260E0E700BF30B583B027
:1045F80002AD022445F8040D20462946ABBE044608
:10460800631C02D0204603B030BDFFF7FDFE03B0A7
:1046180030BD00BF70B582B00446FFF7DBFE38B38B
:10462800013C012C064611D9336802AD022445F835
:10463800043D20462946ABBE0446631C12D014B97B
:104648004FF0FF323260204602B070BD0C4B9A68C2
:104658001B699A42E8D14FF0FF32002402602046DD
:1046680002B070BDFFF7D0FE0446002CE8D0EAE7A0
:10467800FEF75AFC09224FF0FF340260E3E700BF5F
:10468800B815002001207047104A10B5D2F8A030A4
:10469800B3B16946184488420AD80D490D4C0968D7
:1046A800A14201D0884203D8C2F8A000184610BD24
:1046B800FEF73AFC0C224FF0FF330260184610BD9B
:1046C80005490B46C2F8A010E3E700BFB815002063
:1046D800FC000020ADDEFECAFC17002070B50D46B8
:1046E800FFF778FEC0B14FF480626B68064643F46A
:1046F80000536A646B600C2420463146ABBE044606
:10470800621C03D02C610024204670BDFFF77CFE9C
:10471800431C0446F6D1F7E7FEF706FC09224FF0E2
:10472800FF340260F0E700BF10B55822044608467F
:104738000021FEF77DFF01462046BDE81040FFF747
:10474800CDBF00BF38B50546582208460C460021A3
:10475800FEF76EFF2846002100F012F8431C0546BC
:104768000CD06368214643F401436360FFF7B6FF4A
:1047780004462846FFF74EFF204638BD0446FBE7AF
:104788002DE9F047824696B088460024304E02E074
:104798000134142C37D056F83450E7006B1CF7D18D
:1047A80008F42063B3F5206FE94645D040F2016371
:1047B800C8F3004518F0020F18BF45F0020518EAC3
:1047C800030F18BF45F0040518F0080F18BF25F0AF
:1047D8000405504618BF45F00805CDF800A0FEF7BF
:1047E80011FDCDE90150012528464946ABBE0546D5
:1047F800002D12DB0023374446F834507B602046F6
:1048080016B0BDE8F087FEF78FFB4FF0FF34182392
:104818000360204616B0BDE8F087FEF785FB132439
:104828000646002720463946ABBE044634602C466F
:10483800204616B0BDE8F08749465046FFF782FF8C
:104848000130B3D0FEF770FB11232C460360D6E786
:10485800B81500200EB400B50199FFF791FF5DF877
:1048680004EB03B0704700BF2DE9F043074683B05F
:104878008846304800211646FFF782FF054600218A
:1048880032463846FEF7D4FE691C51D02846FFF759
:10489800A1FD0C24814620464946ABBE0446621C55
:1048A8003BD0032C30DDE01EB0422DDD042228462B
:1048B8000DEB0201FFF7CAFD032825DD9DF8043042
:1048C800532B21D19DF80530482B1DD19DF806307A
:1048D800462B19D19DF80730422B15D141460122AC
:1048E8002846FFF7DFFD00280EDB3246394628460A
:1048F800FFF7ACFD04462846FFF78CFE631C10D07A
:10490800204603B0BDE8F0834FF0FF342846FFF798
:1049180081FE204603B0BDE8F083FFF775FD04462D
:10492800BFE7FFF771FD0446204603B0BDE8F083FA
:104938002C46E5E7B459000030B50123002583B0C3
:10494800094C29461A4601A8C4E90153FFF78CFF10
:10495800A84207DD9DF8043003F0010203F00203CA
:10496800C4E9012303B030BDFC00002010B5044C9D
:104978006068002800DB10BDFFF7DEFF606810BD2F
:10498800FC00002010B5044CA068002800DB10BD16
:10499800FFF7D2FFA06810BDFC0000202DE9F0470A
:1049A80003230024364F84B001970125039301AEF9
:1049B800029428463146ABBE05464FF0FF322346E7
:1049C800304CC4F8A45044F833200133142BFAD1E6
:1049D800DFF8B480D8F80830002B3ADB53B9D4F8A4
:1049E800A82001323FD0D4F8A420C4E9002304B0A1
:1049F800BDE8F0874FF00309042301970125CDF89E
:104A08000C90029328463146ABBE82460823019794
:104A1800C4F8ACA0CDF80C90029328463146ABBE42
:104A28000646C4F8A8600136D8F808301BD0002123
:104A3800D4F8A4208B42C4E900210FDB33B1D4E9B8
:104A48002A210023A160E3606361226104B0BDE80C
:104A5800F087FFF771FFD8F80830BFE7FFF76CFF62
:104A6800D8F80830EAE70021D4F8AC208B42C4F823
:104A7800A820D4F8A420C4E90021DFDAEEE700BFBB
:104A8800CC590000B8150020FC00002008B5FEF73E
:104A98004BFA582303604FF0FF3008BDF0B583B0E0
:104AA8000090FEF7AFFB0E2401906D462046294684
:104AB800ABBE0446631C18BF002402D0204603B0D6
:104AC800F0BDFEF731FA1325064600272846394679
:104AD800ABBE05463560F1E7F0B50D4658B1064660
:104AE8001124002720463946ABBE04462246E31768
:104AF800C6E90023B76015B10023C5E900330020DB
:104B0800F0BD00BF30B51024002520462946ABBEB5
:104B18000446204630BD00BF70B504461025002667
:104B280028463146ABBE05461CB1C4E90056C4E967
:104B38000266284670BD00BF70B5FFF74BFC0446FF
:104B480090B1092528462146ABBE0446012C09D060
:104B5800FEF7EAF913250646002428462146ABBE8F
:104B680005463560204670BDFEF7DEF90922026071
:104B7800204670BDD8B130B583B00090FEF742FB37
:104B8800122401906D4620462946ABBE0446631C9C
:104B980020460ED0FF2808D838B103465B00C3F37F
:104BA800072201D08242F9D1184603B030BD012056
:104BB8007047FFF729FCEDE730B585B00C4600904B
:104BC800FEF720FB019020460294FEF71BFB0F2402
:104BD80003906D4620462946ABBE0446631C05D0AB
:104BE800201C18BF0120404205B030BDFFF70CFC67
:104BF8000446F5E761626F727428292C206578698C
:104C080074696E672E2E2E002C2066756E6374698B
:104C18006F6E3A2000000000617373657274696FEB
:104C28006E2022257322206661696C65643A2066CD
:104C3800696C6520222573222C206C696E652025FD
:104C480064257325730A0000537461636B206672D0
:104C5800616D653A0A000000205230203D20202571
:104C68003038580A00000000205231203D2020250D
:104C78003038580A00000000205232203D202025FC
:104C88003038580A00000000205233203D202025EB
:104C98003038580A0000000020523132203D2025CB
:104CA8003038580A00000000204C52203D202025B2
:104CB8003038580A00000000205043203D202025AD
:104CC8003038580A0000000020505352203D20255B
:104CD8003038580A000000004653522F4641523AD5
:104CE8000A0000002043465352203D20202530383A
:104CF800580A00002048465352203D2020253038CD
:104D0800580A00002044465352203D2020253038C0
:104D1800580A00002041465352203D2020253038B3
:104D2800580A0000204D4D464152203D202530387C
:104D3800580A00002042464152203D2020253038A4
:104D4800580A00004D6973630A000000204C522F76
:104D58004558435F52455455524E3D2025303858EA
:104D68000A0000005B486172644661756C745D0AF4
:104D7800000000005B4275734661756C745D0A0043
:104D88005B55736167654661756C745D0A00000068
:104D9800000002404000024080000240C000024083
:104DA8000001024000104300000000004000C8005D
:104DB80000190000FF1F0000FF2F0000FF3F000048
:104DC8000000000000000000963007772C610EEE0E
:104DD800BA51099919C46D078FF46A7035A563E94A
:104DE800A395649E3288DB0EA4B8DC791EE9D5E071
:104DF80088D9D2972B4CB609BD7CB17E072DB8E770
:104E0800911DBF906410B71DF220B06A4871B9F3C4
:104E1800DE41BE847DD4DA1AEBE4DD6D51B5D4F4FD
:104E2800C785D38356986C13C0A86B647AF962FD62
:104E3800ECC9658A4F5C0114D96C0663633D0FFAAF
:104E4800F50D088DC8206E3B5E10694CE44160D5B5
:104E5800727167A2D1E4033C47D4044BFD850DD29F
:104E68006BB50AA5FAA8B5356C98B242D6C9BBDBB2
:104E780040F9BCACE36CD832755CDF45CF0DD6DCAD
:104E8800593DD1ABAC30D9263A00DE518051D7C854
:104E98001661D0BFB5F4B42123C4B3569995BACFDF
:104EA8000FA5BDB89EB802280888055FB2D90CC600
:104EB80024E90BB1877C6F2F114C6858AB1D61C179
:104EC8003D2D66B69041DC760671DB01BC20D29898
:104ED8002A10D5EF8985B1711FB5B606A5E4BF9F25
:104EE80033D4B8E8A2C9077834F9000F8EA8099618
:104EF80018980EE1BB0D6A7F2D3D6D08976C649183
:104F0800015C63E6F4516B6B62616C1CD83065859B
:104F18004E0062F2ED95066C7BA5011BC1F4088278
:104F280057C40FF5C6D9B06550E9B712EAB8BE8BB9
:104F38007C88B9FCDF1DDD62492DDA15F37CD38C42
:104F4800654CD4FB5861B24DCE51B53A7400BCA340
:104F5800E230BBD441A5DF4AD795D83D6DC4D1A472
:104F6800FBF4D6D36AE96943FCD96E34468867AD49
:104F7800D0B860DA732D0444E51D03335F4C0AAAE8
:104F8800C97C0DDD3C710550AA41022710100BBEEB
:104F980086200CC925B56857B3856F2009D466B932
:104FA8009FE461CE0EF9DE5E98C9D9292298D0B067
:104FB800B4A8D7C7173DB359810DB42E3B5CBDB714
:104FC800AD6CBAC02083B8EDB6B3BF9A0CE2B60395
:104FD8009AD2B1743947D5EAAF77D29D1526DB044A
:104FE8008316DC73120B63E3843B64943E6A6D0D95
:104FF800A85A6A7A0BCF0EE49DFF099327AE000AE0
:10500800B19E077D44930FF0D2A3088768F2011E72
:10501800FEC206695D5762F7CB67658071366C1909
:10502800E7066B6E761BD4FEE02BD3895A7ADA102A
:10503800CC4ADD676FDFB9F9F9EFBE8E43BEB7170B
:10504800D58EB060E8A3D6D67E93D1A1C4C2D83895
:1050580052F2DF4FF167BBD16757BCA6DD06B53FFB
:105068004B36B248DA2B0DD84C1B0AAFF64A03363A
:10507800607A0441C3EF60DF55DF67A8EF8E6E31B9
:1050880079BE69468CB361CB1A8366BCA0D26F2502
:1050980036E2685295770CCC03470BBBB91602224F
:1050A8002F260555BE3BBAC5280BBDB2925AB42B64
:1050B800046AB35CA7FFD7C231CFD0B58B9ED92C79
:1050C8001DAEDE5BB0C2649B26F263EC9CA36A75DE
:1050D8000A936D02A906099C3F360EEB8567077295
:1050E80013570005824ABF95147AB8E2AE2BB17BFC
:1050F800381BB60C9B8ED2920DBED5E5B7EFDC7C83
:1051080021DFDB0BD4D2D38642E2D4F1F8B3DD68D9
:105118006E83DA1FCD16BE815B26B9F6E177B06FD4
:105128007747B718E65A0888706A0FFFCA3B0666C1
:105138005C0B0111FF9E658F69AE62F8D3FF6B614E
:1051480045CF6C1678E20AA0EED20DD75483044EF0
:10515800C2B30339612667A7F71660D04D4769497E
:10516800DB776E3E4A6AD1AEDC5AD6D9660BDF4091
:10517800F03BD83753AEBCA9C59EBBDE7FCFB24744
:10518800E9FFB5301CF2BDBD8AC2BACA3093B35329
:10519800A6A3B4240536D0BA9306D7CD2957DE5432
:1051A800BF67D9232E7A66B3B84A61C4021B685D0B
:1051B800942B6F2A37BE0BB4A18E0CC31BDF055A84
:1051C8008DEF022D427573206661756C74000000C6
:1051D80048617264206661756C7400002E2E2F730E
:1051E80072632F6D61696E2E633A3838313A2061E7
:1051F80064695F5755545F496E6974206661696CCC
:10520800656400002E2E2F7372632F6D61696E2EF8
:10521800633A3838363A206164695F5755545F52AB
:105228006567697374657243616C6C6261636B2056
:105238006661696C656400002E2E2F7372632F6D92
:1052480061696E2E633A3839343A206164695F5770
:1052580055545F536574436C6F636B53656C65633A
:1052680074206661696C6564000000002E2E2F733F
:1052780072632F6D61696E2E633A3839393A20614D
:1052880064695F5755545F53657450726573636101
:105298006C6572206661696C656400002E2E2F7340
:1052A80072632F6D61696E2E633A3930343A20612A
:1052B80064695F5755545F53657454696D65724DE1
:1052C8006F6465206661696C656400002E2E2F731B
:1052D80072632F6D61696E2E633A3930393A2061F5
:1052E80064695F5755545F536574436F6D7061729D
:1052F80061746F72206661696C6564002E2E2F736D
:1053080072632F6D61696E2E633A3931333A2061C9
:1053180064695F5755545F536574496E746572725A
:10532800757074456E61626C65206661696C656450
:1053380000000000464C415348207061726974793E
:10534800206572726F722C206164647265737320B9
:105358003D2030782530347825303478000000003E
:1053680074657374466C617368000000636C6561F2
:105378006E696E67207570207061676520256C64A2
:105388002C20616464726573732030782530387816
:10539800000000006164695F4645455F5369676EB8
:1053A80028256C642C20256C642920213D2041444B
:1053B800495F4645455F4552525F524541445F56F5
:1053C80045524946595F4552524F520A0000000063
:1053D8006164695F4645455F57726974652829208D
:1053E8006F66207369676E617475726520776F7276
:1053F8006420617420307825303878206661696CC3
:10540800656420776974682025640A006164695FAF
:105418004645455F5369676E28256C642C20256CCA
:10542800642920213D204144495F4645455F535545
:1054380043434553530A00006164695F4645455F2D
:10544800476574506167654E756D62657228616461
:105458006472203D203078253038782920666169CB
:105468006C656420776974682025640A0000000070
:105478006164695F4645455F506167654572617360
:10548800652870616765203D20256C642920666168
:10549800696C656420776974682025640A000000D7
:1054A80053657453797374656D436C6F636B4469AA
:1054B80076696465722829206661696C65640000F4
:1054C8006164695F5755545F53657454696D6572BB
:1054D800456E61626C65206661696C6564000000F8
:1054E80054657374696E6720666C61736820636FB6
:1054F8006E74726F6C6C6572203000005465737442
:10550800696E6720666C61736820636F6E74726F72
:105518006C6C65722031000054657374696E672085
:10552800475020666C61736820636F6E74726F6C8D
:105538006C6572202850494F290000005465737427
:10554800696E6720475020666C61736820636F6ED0
:1055580074726F6C6C65722028444D4129000000FC
:105568006D617373206572617365206661696C652E
:10557800640000006164695F4645455F536574498E
:105588006E7465727275707441626F727428256CDE
:105598006429206661696C656420776974682025D0
:1055A800640A000072656C41646472203C203078A3
:1055B80032303030307500002E2E2F7372632F6D0D
:1055C80061696E2E630000006C656E677468203E2A
:1055D800203075006C656E677468203C3D2034305F
:1055E800393675002533643A2054657374696E67DB
:1055F8002061627341646472203D20307825303820
:105608006C582C206C656E677468203D20256C757D
:1056180000000000466F7277617264207369676EDC
:10562800617475726520646F65736E2774206D618F
:105638007463682063616C63756C6174656420438E
:105648005243000052657665727365207369676E10
:10565800617475726520646F65736E2774206D615F
:105668007463682063616C63756C6174656420435E
:1056780052430000466F727761726420616E642045
:1056880072657665727365207369676E6174757289
:10569800657320617265207468652073616D6500AB
:1056A80074657374466C6173682066696E697368A3
:1056B80065642E0054657374696E67207061726941
:1056C800747920636865636B696E67006164695FFC
:1056D8004645455F496E69742829206661696C658D
:1056E800640A00006164695F4645455F536574500C
:1056F8006172697479436865636B696E67284F4E98
:1057080029206661696C65640A0000004E6F20708C
:105718006172697479206572726F7220646574654C
:1057280063746564000000006164695F4645455F15
:10573800536574506172697479436865636B696E07
:1057480067284F464629206661696C65640A00002F
:105758006164695F4645455F556E496E69742829DD
:10576800206661696C65640A000000005061726916
:10577800747920636865636B696E672074657374F8
:1057880020636F6D706C6574652C2070617269742C
:105798007920636865636B696E67206E6F77206533
:1057A8006E61626C65640000766572696679466C44
:1057B8006173683A205B3078253038785D20213D68
:1057C8002030784646000000766572696679466C36
:1057D8006173683A205B3078253038785D20213D48
:1057E800203078253032782C203D3D203078253007
:1057F80032780000666C6173682061646472657356
:10580800732030782530387820213D20307846467E
:1058180046464646464600006164695F4645455F20
:105828005375626D697454784275666665720000D6
:105838006164695F4645455F577269746500000099
:10584800705265744275666620213D207042756607
:10585800666572206166746572206164695F464599
:10586800455F4765745478427566666572282900F5
:1058780025732861646472203D203078253038789B
:105888002C206C656E677468203D20256C64292087
:105898006661696C656420776974682025640A000C
:1058A8006164695F5744545F496E69742066616931
:1058B8006C65642C20796F752772652070726F6231
:1058C80061626C792063616C6C696E672069742011
:1058D80074776963650000006164695F5744545FC9
:1058E800536574456E61626C65206661696C6564B8
:1058F800000000006164695F5744545F556E496E4B
:105908006974206661696C65640000009C00002071
:10591800000000000000000000000000000000007F
:10592800000000000000000000000000000000006F
:10593800000000000000000000000000000000005F
:10594800000000000000000000000000000000004F
:10595800000000000000000000000000000000003F
:10596800000000000000000000000000000000002F
:10597800232D302B20000000686C4C0065666745BD
:1059880046470000303132333435363738394142F2
:105998004344454600000000303132333435363751
:1059A8003839616263646566000000003A73656DAA
:1059B80069686F7374696E672D6665617475726561
:0859C800730000003A74740042
:1059D000785634121401002000000000000000007E
:1059E0000080014000000000000004000E000B00D9
:1059F0000D0000000000000000000000000000009A
:105A00000081014000000400000002000D000B00B6
:105A1000290000000000000000000000000000005D
:105A200000C0014000000820004000000E000900F6
:105A30003700000000000000000000000E00000021
:105A400000500040010000000700000000000000BE
:105A50000000000000000000000000000000000046
:105A600000000000000000009C000020000000007A
:105A70005859000038590000185900000000000073
:105A80000000000000000000000000000000000016
:105A90000000000000000000000000000000000006
:105AA00000000000000000000000000000000000F6
:105AB00000000000000000000000000000000000E6
:105AC000000000000000000000000000ADDEFECA83
:0C5AD000FFFFFFFFFFFFFFFF325476983E
:04000003000001797F
:00000001FF
