:100000000040002065170000511600009702000014
:10001000E1020000E50200002D0300005917000076
:100020005917000059170000591700007503000008
:1000300079030000591700007D030000092F00001C
:10004000BD2E00008928000095280000A12800008E
:10005000AD280000B9280000C5280000D128000004
:10006000DD280000E92800005D1600004529000099
:10007000552900007D270000492B0000A12A00001F
:10008000C12A0000691600007516000081160000E4
:10009000192B00002D2B0000D12A0000E12A0000BE
:1000A000F12A0000052B00008D16000099160000B3
:1000B000A5160000B1160000BD1600004920000082
:1000C00075200000E1240000C9160000D5160000CC
:1000D000E1160000ED160000F916000005170000FB
:1000E000652900008D270000B12A000011170000CB
:1000F00059170000152400001D170000F528000006
:100100000129000059170000591D00001D1E0000A4
:10011000991E0000951F0000A52400009D270000E7
:10012000291700003517000075290000411700004D
:100130004D170000004000208D02000093020000D7
:1001400097020000E1020000E50200002D0300001C
:10015000000000000000000000000000000000009F
:100160007503000079030000000000007D0300001B
:10017000092F00009103000000B583B000F09CFB44
:10018000304B314A1360314A1360314B314A03E03E
:1001900011681960043304322F498B42F8D32A4B7B
:1001A0001A682E4B9A4200D0FEE7284B1A682C4B57
:1001B0009A42F9D1234B2B4A13602B4A13602B4BE5
:1001C00002E000221A600433294A9342F9D3254BF6
:1001D0001B6813B9244B1B6803B1FEE700F078FBE2
:1001E000694601A800F044FB224B234CE41AA410FA
:1001F0000025AC4214DC214B214CE41AA41000254C
:10020000AC4213DC0099019802F0BAFF05461D4B81
:100210001D4CE41AA410002C0EDC284600F004FB50
:10022000144B53F8253098470135E2E7134B53F848
:10023000253098470135E3E7013C124B53F8243051
:100240009847E8E7BABADECA000000208003002021
:1002500000000020C46B0000840300207856341294
:1002600032547698840300209009002084030020F3
:100270009409002028080000280800002808000031
:1002800028080000280800002808000008B5FFF72B
:1002900073FF00BEFEE71EF0040F0CBFEFF30880F3
:1002A000EFF309807146374A10472DE9F04182B0DB
:1002B00004468846084B5E6B9F6B9D6A074800F0BA
:1002C000DFFACDF800803B4632462946204600F052
:1002D00003FB00BEFEE700BF00ED00E0F465000098
:1002E00000BEFEE71EF0040F0CBFEFF30880EFF333
:1002F00009807146244A10472DE9F04182B0044636
:100300008846084B5E6B9F6B9D6A074800F0B8FA01
:10031000CDF800803B4632462946204600F0DCFA04
:1003200000BEFEE700ED00E0046600001EF0040FD2
:100330000CBFEFF30880EFF309807146134A1047B2
:100340002DE9F04182B004468846084B5E6B9F6BF6
:100350009D6A074800F094FACDF800803B4632468B
:100360002946204600F0B8FA00BEFEE700ED00E0A6
:100370001066000000BEFEE700BEFEE700BEFEE71E
:1003800070470000AB020000F902000041030000CA
:02039000FEE786
:08039400D43700000100000055
:10080000C46B000000000020840300209C03000053
:100810000000001000000010840300209409002054
:080820000000001000000010B0
:10082800FEE7000008B503460C4A12685AB10B4AA5
:100838001068033323F003030344094A934206D89C
:10084800064A136008BD0749044A1160EFE703F040
:10085800F7FA0C2303604FF0FF3008BD880300202F
:10086800003C00209409002001230360014B0B6029
:10087800704700BF040000200FB400B583B004AB7C
:1008880053F8042B01938021064803F0ABFC0028A1
:1008980003DD0146034800F007F803B05DF804EBF8
:1008A80004B07047900300204FF0FF3070470000FD
:1008B80008B500F06BF9024B024A9A6008BD00BF08
:1008C80000ED00E00000000008B500F0C3F808BD26
:1008D800F8B504460D4617461E462748FFF7CCFFD5
:1008E80021682648FFF7C8FF61682548FFF7C4FF5D
:1008F800A1682448FFF7C0FFE1682348FFF7BCFF61
:1009080021692248FFF7B8FF61692148FFF7B4FF62
:10091800A1692048FFF7B0FFE1691F48FFF7ACFF66
:100928001E48FFF7A9FF29461D48FFF7A5FF1D4CE4
:10093800E16A1D48FFF7A0FF216B1C48FFF79CFFE9
:10094800E16B1B48FFF798FF15F0800F0AD115F4EB
:10095800004F0CD11748FFF78FFF06991648FFF78D
:100968008BFFF8BD39461548FFF786FFEFE731469C
:100978001348FFF781FFEDE7D8640000E864000042
:10098800F86400000865000018650000286500008C
:10099800386500004865000058650000686500007B
:1009A8007465000000ED00E08465000094650000B7
:1009B800A4650000D4650000DC650000B465000093
:1009C800C4650000114B9B6813F0006F04D00F4BF7
:1009D8001B6813F0010F12D10D4B1B8813F4807F95
:1009E8000FD10C4B1B8913F0200F0CD10A4B1B881D
:1009F80013F0010F01D1002070470120704701203A
:100A08007047012070470120704700BF0040084030
:100A1800005C0040802500400080004069B10C4B1C
:100A28009B8803F03F030278934206DB084B9B88C0
:100A3800C3F305234278934209DA037803F03F03AE
:100A48004278120202F47C521343014A93807047A1
:100A580000800240184B1B8803F00303032B2AD89D
:100A6800DFE803F002060A25144A154B1A6070479E
:100A7800124A134B1A6070470F4A1388938903F080
:100A88003F010E4B03FB01F3928902F0C002402A9A
:100A98000BD0802A00D19B08074A928912F4807FE4
:100AA80000D05B08064A136070475B08F4E7054B03
:100AB8001A68034B1A607047008002400024F40053
:100AC800180400201404002010B514284ED8DFE8BC
:100AD80000F04A0B0F13171A1D202326292C2F323A
:100AE80035383B3E414447004FF400631C463DE027
:100AF80000234FF4807439E04FF480731C4635E0CE
:100B08000023F02432E01023F0242FE02023F024E7
:100B18002CE03023F02429E04023F02426E0502361
:100B2800F02423E06023F02420E07023F0241DE06B
:100B38008023F0241AE09023F02417E0A023F02467
:100B480014E0B023F02411E0C023F0240EE00023C9
:100B580003240BE00123032408E00223032405E017
:100B680003231C4602E000234FF4006472B60649D2
:100B78000A8892B222EA040213439BB20B8062B63F
:100B8800FFF768FF10BD00BF0080024008B572B6CD
:100B98001D4B1E4A9A604FF4E0225A62BFF36F8FD2
:100BA800BFF34F8F62B61A4A4CF614339381138AF7
:100BB8009BB243F003031382154B1B8A13F4007F87
:100BC800FAD0144B1A8892B222F0030292B21A8019
:100BD80000221A8041F210029A8088229A818F227C
:100BE8001A824FF4C0729A820120FFF76DFF084AFB
:100BF8004CF614339381138A9BB223F008039BB2FB
:100C08001382FFF727FF08BD00ED00E00000000099
:100C1800002400400080024010B4032814D8DFE804
:100C280000F00F02070B022208244FF480730BE038
:100C380004221446F02307E011220024032303E0D2
:100C480000220B244FF400630449088880B218403E
:100C5800204180B21044C0B210BC704700800240EE
:100C680070B50546FFF7F6FE0F2D20D8DFE805F032
:100C780008081919191919192222222222222222B6
:100C8800124B9B8803F03F03012B1AD00F4B9C8813
:100C980004F03F049B8813F0800F15D0A4080C4E75
:100CA80005E00C4B1E68094B9C88C4F30524B6FB71
:100CB800F4F070BD074B1E68044B9C8804F03F0499
:100CC800F5E70124024EF2E7014EF0E7008002400A
:100CD800008793031804002010B504460920FFF785
:100CE800BFFF000D02D004FB00F010BD204610BD70
:100CF800072815D8DFE800F0120406080A0C0E10C1
:100D080080230DE020230BE0102309E0082307E0EF
:100D1800042305E0022303E0012301E04FF480737C
:100D280072B641B907498A8A92B213439BB28B8241
:100D380062B60020704703498A8A92B222EA030306
:100D48008B82F5E70080024010B50F280BD8DFE84A
:100D580000F008081818181818181C1C1C1C1C1C53
:100D68001C1CCA01802472B609498B889BB223EAED
:100D7800040313439BB28B8062B6FFF76BFE00201F
:100D880010BD0A024FF47C54EDE78AB23F24EAE72B
:100D98000080024030B583B006283DD8DFE800F077
:100DA800040B1219392024004CF61432334B9A8163
:100DB800334C082530E04CF61432304B9A81304CD5
:100DC800042529E04CF614322C4B9A812C4C022530
:100DD80022E04CF61432294B9A81294C01251BE05C
:100DE800284C4FF4007517E000224FF400612648A4
:100DF80001F0F1FC10B140F2113018E001224FF47B
:100E08000061214801F0D8FC002834D040F21130AC
:100E18000DE01E4C4FF4007572B651B123889BB299
:100E28002B439BB2238062B6012808D0002003B070
:100E380030BD23889BB223EA05032380F3E709B179
:100E48000020F4E70920FFF747FF0023019302E0A1
:100E5800019B01330193019B9842F9D872B64CF675
:100E68001432064B9A8123889BB223EA0505258014
:100E780062B60020DBE70020D9E700BF002400406D
:100E88001024004010800240000002400C80024004
:100E980010B50446062800F2F980DFE810F00700D4
:100EA80068001C00AF005C006200EE000320FFF742
:100EB800B3FE122802D140F2093010BD0020FFF71E
:100EC800ABFE01284DD10320FFF7A6FE132848D119
:100ED80040F20A3010BD0320FFF79EFE112802D110
:100EE80040F2093010BD0020FFF796FED0B14FF058
:100EF80080431B8903F06003202B1BD0694B1B899F
:100F080003F06003202B1ED0674B1B8903F060039E
:100F1800202B26D1644B1B8913F0100F21D040F2EF
:100F28000B3010BD0320FFF777FE1328DFD140F206
:100F38000A3010BD4FF080431B8913F0100FDDD02D
:100F480040F20B3010BD574B1B8913F0100FDBD04C
:100F580040F20B3010BD0320FFF75EFE132800F0AF
:100F6800988000212046FFF715FF002010BD0120C2
:100F7800FFF752FE032807D04C4B1B6813F0010FF4
:100F880009D040F20D3010BDFFF71CFD0028F3D04A
:100F980040F20E3010BD464B1B8903F4D063B3F505
:100FA800207F79D04FF080431B8903F06003602BCA
:100FB80013D03C4B1B8903F06003602B16D03A4BCF
:100FC8001B8903F06003602BCBD1374B1B8913F0CF
:100FD800100FC6D040F20B3010BD4FF080431B8974
:100FE80013F0100FE5D040F20B3010BD2D4B1B89CC
:100FF80013F0100FE3D040F20B3010BD0120FFF7C3
:101008000BFE022821D02A4B1B8903F4D063B3F5C9
:10101800906F44D04FF080431B8903F06003402B4E
:101028001AD0204B1B8903F06003402B1DD01E4BA8
:101038001B8903F06003402B93D11B4B1B8913F0D2
:10104800100F8ED040F20B3010BDFFF7BBFC00280C
:10105800D9D040F20E3010BD4FF080431B8913F0F9
:10106800100FDED040F20B3010BD0E4B1B8913F071
:10107800100FDCD040F20B3010BD0320FFF7CCFD81
:1010880014287FF46EAF40F2093010BD40F20230F0
:1010980010BD40F2093010BD4FF4437010BD4FF43D
:1010A800437010BD000400400008004000260040C6
:1010B8000025004008B50020FFF7AEFD012814D038
:1010C8001120FFF701FD00210A48FFF7A7FC0021C6
:1010D8000120FFF739FE0520FFF7DAFE0420FFF7AD
:1010E800D7FEFFF7B7FC002008BD1220FFF7ECFC85
:1010F800E9E700BF1600002008B5374B1B8A9BB2F2
:1011080006284FD8DFE800F0141C040C36422400EF
:1011180013F0020F48D013F4007F47D0022008BD17
:1011280013F0010F44D013F4807F43D0022008BD90
:1011380013F0080F40D013F4006F3FD0022008BD11
:1011480013F0040F3CD013F4806F3BD0022008BD8D
:10115800224801F04FFB10F4006F01D0002008BDB9
:101168001E4801F04AFB10F4006F01D1022008BDAF
:10117800002008BD1A4B9B8913F4007F24D0184B1C
:101188001B8B13F0010F21D0022008BD144B1B8AC2
:1011980013F4007F1CD0124B1B8B13F0100F19D0C7
:1011A800022008BD032008BD002008BD012008BD9D
:1011B800002008BD012008BD002008BD012008BD91
:1011C800002008BD012008BD002008BD012008BD81
:1011D800002008BD012008BD002400400000024096
:1011E8000080024070B505460C46FFF785FF0228CF
:1011F8003BD0052D0CD001212846FFF7CBFD002C54
:1012080035D0012C21D02046FFF766FD044620E0AA
:1012180072B6184A138A9BB203F03F0643F40F7361
:1012280043F00303138262B62220FFF755FD00E066
:1012380001380028FCD172B60E4A138A9BB223F0FB
:101248003F033343138262B6D9E743F69920DBE7BD
:10125800013C24B12846FFF74FFF0228F8D114B902
:101268004FF4427070BD002070BD002070BD00209A
:1012780070BD00BF0080024010B501210220FFF7B9
:10128800B1FF044608B1204610BD1120FFF71CFC31
:1012980000210948FFF7C2FB00210120FFF754FD98
:1012A8000520FFF7F5FD0420FFF7F2FD0020FFF70A
:1012B800EFFDFFF7CFFBE6E70E00002070B504282E
:1012C80004D005280FD040F2023070BD1C461546E8
:1012D8000E460320FFF7A0FC132810D044EA0603AB
:1012E8002B43084902E00B431343074972B60A88A7
:1012F80002F47E4213430B8062B6002070BD4FF4A7
:10130800447070BD0C8002401080024010B500206F
:10131800FFF782FC012807D001210220FFF762FFB6
:1013280004463CB1204610BD01210020FFF75AFFBA
:101338000446F6E70320FFF76FFC132834D04FF478
:101348008073102280210420FFF7B8FF01210420B8
:10135800FFF748FF04460028E4D1284C0121204625
:10136800FFF75CFB1320FFF7AFFB00212046FFF7D8
:1013780055FB01210846FFF7E7FC00230F228021D7
:101388000520FFF79BFF01210520FFF72BFF0446EF
:101398000028C7D1FFF740FC01282BD00020FFF719
:1013A80077FDFFF757FBBDE7154B9B8903F0C0039B
:1013B800802B0FD00020FFF72FFC012816D011201A
:1013C800FFF782FB4FF48073102280210420FFF77F
:1013D80075FFBBE70A4B9B8903F03F03102BE9D14C
:1013E800074B9B8913F4807FB0D1E3E71220FFF706
:1013F8006BFBE7E70220FFF74BFDD2E71200002066
:101408000080024038B50020FFF706FC012807D00D
:1014180001210220FFF7E6FE04463CB1204638BD14
:1014280001210020FFF7DEFE0446F6E70320FFF760
:10143800F3FB13282BD04FF4807310228021042053
:10144800FFF73CFF01210420FFF7CCFE04460028EB
:10145800E4D1244D01212846FFF7E0FA1320FFF7D5
:1014680033FB00212846FFF7D9FA0520FFF710FDC6
:101478000020FFF7D1FB01282FD00020FFF708FD3F
:1014880000210120FFF760FCFFF7E4FAC6E7164BDE
:101498009B8903F0C003802B0FD00020FFF7BCFB13
:1014A800012816D01120FFF70FFB4FF4807310228C
:1014B80080210420FFF702FFC4E70B4B9B8903F050
:1014C8003F03102BE9D1084B9B8913F4807FB9D1D6
:1014D800E3E71220FFF7F8FAE7E70220FFF7D8FC66
:1014E800CEE700BF100000200080024070B439B180
:1014F8000C460021032806D8DFE800F0410B0B0753
:101508000221204CF6E7002604E041F00401002601
:1015180000E0042672B61C4D44F65903AB804FF226
:101528007B23AB802B881BB223F0030303439BB2BE
:101538002B80164803690B4323EA06030361EFF384
:101548001181520182F311880AE0114B1B8B03F0C1
:101558000E03002BF9D1BFF34F8F30BF62B672B6BE
:101568002378002BF1D00023237081F31188074AD8
:10157800136923F002031361BFF34F8F62B6002093
:1015880070BC70471C0400200024004000ED00E0FF
:1015980080250040034610B101221A70704772B6C8
:1015A800044A136923F002031361BFF34F8F62B635
:1015B800014BF1E700ED00E01C04002038B50446BB
:1015C8001F4B1B7813B10025002108E0FFF754FEDC
:1015D800054628BB01221A4B1A70F5E70531182970
:1015E80008D8184B13F83120154B1B789A42F5D1BF
:1015F8000B4600E00B464A1D93420BDA114A02EBF8
:10160800C3025278A24201D00133F4E70D4C04EB37
:10161800C30400E000247CB1A3781BB940F2133561
:10162800284638BD63680BB198470546002DF7D1A9
:10163800A278034B1A70F3E740F21335F0E700BFC6
:101648001004002020660000684620F007018D463F
:1016580001B4FEE7684620F007018D4601B4FEE7B5
:10166800684620F007018D4601B4FEE7684620F081
:1016780007018D4601B4FEE7684620F007018D4654
:1016880001B4FEE7684620F007018D4601B4FEE785
:10169800684620F007018D4601B4FEE7684620F051
:1016A80007018D4601B4FEE7684620F007018D4624
:1016B80001B4FEE7684620F007018D4601B4FEE755
:1016C800684620F007018D4601B4FEE7684620F021
:1016D80007018D4601B4FEE7684620F007018D46F4
:1016E80001B4FEE7684620F007018D4601B4FEE725
:1016F800684620F007018D4601B4FEE7684620F0F1
:1017080007018D4601B4FEE7684620F007018D46C3
:1017180001B4FEE7684620F007018D4601B4FEE7F4
:10172800684620F007018D4601B4FEE7684620F0C0
:1017380007018D4601B4FEE7684620F007018D4693
:1017480001B4FEE7684620F007018D4601B4FEE7C4
:10175800684620F007018D4601B4FEE7684620F090
:1017680007018D4689B500AF0A4B1B6883F30888CB
:10177800094A44F6590393804FF27B2393801388D8
:101788006FEA43436FEA53439BB2138001F0F4FCC2
:10179800FEE700BF000000000024004000221F2ACE
:1017A80016D810B406E05B00037049000132D2B2CB
:1017B8001F2A0BD8037883EA116414F0800FF2D043
:1017C8005B00DBB283F007030370EEE710BC7047E1
:1017D800704770B582B006460D4601238DF8073074
:1017E800002406E056F824100DF10700FFF7D6FF95
:1017F8000134AC42F6D39DF8070002B070BD70B555
:10180800426C836C0B25157000215170022696706E
:10181800C4687034D4601674032656749174D174F5
:10182800012414750C221A7059709C70C2686C32AD
:101838009A605C741E749974D9741C75284600F0FB
:1018480073FE18B9002424B1204670BD41F20B5430
:10185800F9E700210C2000F067FE0028F4D041F2DF
:101868000B54F1E708B50B2000F0B4FE10B141F2BB
:101878000B5008BD0C2000F0ADFE10B141F20B502A
:1018880008BD08BDC368D9600020704710B472B69F
:10189800C368054CC3F800410A60C3680020C3F858
:1018A800000162B610BC7047AFA587DE10B50446CC
:1018B800406C51B18160426000F0AEFE08B141F267
:1018C8000B50002384F84C3010BD00F02BFF00288B
:1018D800F7D041F20B50F4E738B50446806C69B193
:1018E8001546C160426000F097FE08B141F20B5006
:1018F800A4F85450002384F84D3038BD00F012FF8E
:101908000028F7D041F20B50F4E7C3790B700020A0
:101918007047437833B190F84D300BB9002302E09B
:10192800012300E001230B700020704772B6C268E3
:10193800536843F00103536062B600207047C368E0
:101948005B6813F0010F16D1002343B972B6C16862
:101958008A6822F4006222F008028A6062B643B9FB
:1019680072B6C1688A6822F4805222F010028A6036
:1019780062B61846704741F20F53E6E7C2685368EB
:1019880023F00103536072B6C268936823F480534E
:1019980023F01003936062B6C268136823F4F0332F
:1019A80023F4807313600020704738B504460D4651
:1019B800037A3BB90878E3681A6E824207D041F28D
:1019C800105038BD4988281DFFF703FFF3E75A6E0A
:1019D8006B889A4202D041F2105038BD002038BDC1
:1019E80001720020704703690B600020704743694B
:1019F8000B6000207047000070B5064600250560A2
:101A08001E4C4FF47A73236141F64C5363611C4BAF
:101A1800E36001210846FFF76BF91A4B4FF4802267
:101A28005A604FF400225A604FF480125A604FF403
:101A380000125A60144B6364144BA3644FF4806320
:101A4800A4F85830A4F85A50A4F856502565A4F8BC
:101A580054502572A57001236372E56125626562A1
:101A6800E5626563E56325762046FFF7C8FE034611
:101A780010B9012121703460184670BD000800209B
:101A88000000084000E100E03804002020040020A5
:101A980038B50546114B4FF48022C3F884204FF423
:101AA8000022C3F884204FF48012C3F884204FF436
:101AB8000012C3F88420002444648464FFF7D2FE33
:101AC800AC70EC612C626C62EC626C63EC632C7041
:101AD80021460120FFF70CF9204638BD00E100E05F
:101AE80010B5013903290ED8DFE801F00B0205080B
:101AF8003320154C07E03420144C04E03520144CF6
:101B080001E03220134C83B9236823EA02022260E1
:101B18002368B3B9430900F01F00012202FA00F05C
:101B280020330D4A42F823000BE023681A43226051
:101B3800420900F01F00012303FA00F0064B43F8A6
:101B48002200002010BD00BF90000840940008400B
:101B5800980008408C00084000E100E001390329A2
:101B680006D8DFE801F002070B0F084BC3F8A020E6
:101B780000207047054BC3F8A420F9E7034BC3F8CE
:101B8800A820F5E7014BC3F8AC20F1E700000840B6
:101B980070B504460D46002B54D011461E4601234D
:101BA80043702265B0F85820964240D83246FFF775
:101BB80093FE0023A4F856300122284B5A60294688
:101BC80051F8042B120C2046FFF770FE4FF000422C
:101BD800224B1A600023A371E371A380E268536665
:101BE80072B66378002B33D04FF4006343F00803D8
:101BF800E26891680B43936062B672B663784BBB38
:101C0800002343F01003E26891680B43936062B6C7
:101C180072B6892203212046FFF7A0FF01238922FB
:101C280003212046FFF75CFF62B6002070BDFFF776
:101C380053FEB4F85830F61AA4F856600023A4F8F6
:101C48005C30B9E700234370012380F84D30B6E7D4
:101C58000023CBE74FF48053D3E700BF00E100E057
:101C680070B582B004460D46FFF792FFC0B9012354
:101C7800A370A3791BB9A3889BB2002BF9D0A388C2
:101C88009BB293B90223A370002323762046FFF763
:101C98004DFE064688B90323A370637A03BB09E0A7
:101CA80006462046FFF76AFE04E02046FFF766FE78
:101CB800A688B6B2304602B070BD2046FFF75EFE79
:101CC800F8E70DF107012046FFF71FFE03461BE06A
:101CD80062B60BBB9DF80730F3B9A3889BB2DBB99A
:101CE800002204F118010120FFF700FC72B602A9D6
:101CF800002301F8013D2046FFF70BFE034618B903
:101D08009DF80720002ADCD1002BE1D19DF807209F
:101D1800002ADDD12276DBE70423A370A3889BB2D7
:101D280063B92046FFF70BFE064668B90023A37087
:101D380029462046FFF739FE0646BBE72046FFF74F
:101D48001DFEA688B6B2B5E72046FFF717FEB1E735
:101D580070B52F4BDA68D2F8A030D2F88C2013F087
:101D6800010F04D012F0010F22D1002400E000245A
:101D780013F0020F04D012F0020F01D044F0020455
:101D880013F0040F04D012F0040F01D044F004043F
:101D980013F0080F04D012F0080F01D044F0080423
:101DA80013F0100F06D012F0100F2AD1002502E010
:101DB8000124DDE7002513F0200F04D012F0200FD6
:101DC80001D045F0200513F0400F04D012F0400F69
:101DD80001D045F040050E4B5B6A2BB144EA050182
:101DE8000B4A926A11420ED1094E00232A4601215C
:101DF8003046FFF775FE224601213046FFF7AEFE5A
:101E080070BD1025D7E7002201489847ECE700BFCE
:101E18000008002010B51D4BDA68D2F8A430D2F8BB
:101E2800902013F0010F04D012F0010F27D10024E5
:101E380000E0002413F0020F04D012F0020F01D0CA
:101E480044F0020413F0040F04D012F0040F01D080
:101E580044F0040413F0080F04D012F0080F01D066
:101E680044F00804094BDB6A1BB1084A126B1442A0
:101E780007D1224602210548FFF770FE10BD012454
:101E8800D8E70022214601489847F2E700080020D9
:101E980070B53C4BDA68D2F8A830D2F8942013F029
:101EA800010F06D012F0010F1FD001243549CC7163
:101EB80000E0002413F0020F04D012F0020F01D04A
:101EC80044F0020413F0040F04D012F0040F01D000
:101ED80044F0040413F0080F09D012F0080F49D099
:101EE800012028498871082502E00024E2E700253E
:101EF80013F0100F04D012F0100F01D045F01005A8
:101F080013F0200F04D012F0200F01D045F0200567
:101F180013F0400F08D012F0400F05D044F04004F1
:101F280041F208501749888013F0800F08D012F04A
:101F3800800F05D044F0800441F20752114B9A807B
:101F4800114E3046FFF726FBF36933B144EA050129
:101F5800A6F11802926B11420ED10A4E00232A46AE
:101F680003213046FFF7BCFD224603213046FFF728
:101F7800F5FD70BD0025BBE70022A6F118009847C3
:101F8800EBE700BF000800201808002070B52B4BB5
:101F9800DA68D2F8AC30D2F8982013F0010F04D0E8
:101FA80012F0010F1ED1002400E0002413F0020FEC
:101FB80004D012F0020F01D044F0020413F0040F11
:101FC80004D012F0040F01D044F0040413F0080FF9
:101FD8000AD012F0080F2AD041F20A501749888017
:101FE800082502E00124E1E7002513F0100F08D0CE
:101FF80012F0100F05D045F0100541F209520F4BB1
:102008009A800E4BDB6B2BB145EA04010B4A126C2C
:1020180011420ED1094E0023224604213046FFF713
:102028005FFD2A4604213046FFF798FD70BD002564
:10203800DBE7002201489847ECE700BF00080020D2
:1020480008B54FF00042074BC3F88020064B012229
:1020580083F84C209A71DB691BB1002211460248B3
:10206800984708BD00E100E00008002070B5314B3A
:10207800B3F85460B3F85620002A48D0B3F85C305F
:102088005BB32C4B196DB3F8583001EB43052A4864
:1020980001609A421BD80021264BA3F85610002154
:1020A800244BA3F85C10244B19682248FFF714FC52
:1020B8000122224B1A70224C2046FFF76BFAA368C4
:1020C80023B12A463146A4F11800984770BDD21AA8
:1020D8001849A1F856201A46E1E7164B1D6DB3F8CA
:1020E800581005EB410114480160B3F85A309A4280
:1020F80007D800200F49A1F856000E49A1F85C3016
:10210800D1E7D21A0B49A1F856201A46F5E70B4B2E
:102118001B7863B1084B1D6801230A4AC2F8843052
:10212800044A82F84D300022044B1A70C3E7014B71
:102138001D6DF1E700080020500400201D04002058
:102148001808002000E100E008B500231A460249FB
:10215800FFF786FD08BD00BF3C67000008B50023F7
:102168001A460249FFF77CFD08BD00BF2C67000036
:1021780070B504464FF420621A49FFF787FB002325
:102188001A4619492046FFF76BFD054608B128464F
:1021980070BD164BD3F88060B6B24FF4C0621149D7
:1021A8002046FFF773FB00231A4611492046FFF724
:1021B80057FD05460028EAD10C4BD3F8801089B2A8
:1021C800C6F5004202EB420253029A008E1B92FBB4
:1021D800F6F2A2F6FF32521002492046FFF756FBEC
:1021E800D5E700BF24010840E86600000000084069
:1021F8001067000010B50A4C236923F0010323611E
:102208000021FFF73FFB236C23F02003236423689E
:1022180023F4033323F43C732360002010BD00BF74
:102228000000084030B583B005460C4601A9FFF709
:10223800DAFB024610B1104603B030BD69462846A5
:10224800FFF7D5FB02460028F5D14FF4D863019972
:1022580003FB01F35B000099B3FBF1F301335B0867
:1022680003F500632360E6E72DE9F0418CB00546ED
:1022780002A9FFF7B8FB044618B120460CB0BDE828
:10228800F08101A92846FFF7B2FB04460028F4D1E3
:1022980069462846FFF7C6FF04460028EDD14FF4EB
:1022A80080424A492846FFF7F1FA00224849284661
:1022B800FFF7ECFA002308E0464A52F823100CAA6C
:1022C80002EB830242F8241C0133082BF4D9009B4B
:1022D80003F12A43059301212846FFF781FB0023D8
:1022E8001A4603A92846FFF7BBFC044600212846E6
:1022F800FFF776FBF4B184B3002C43D0002C4ED00A
:10230800002CBAD1344BD3F88020C2F50042019B8F
:102318009B030299B3FBF1F303FB08F898FBF2F86F
:1023280006FB08F606F50052920B28492846FFF7E7
:10233800ADFAA2E7284BD3F88070C7F50047BF0075
:102348003A4623492846FFF7A1FA00231A462349AB
:102358002846FFF785FC0446CDE71F4BD3F88030AD
:10236800A3F500431E4EB6FBF3F63246174928463E
:10237800FFF78CFA00231A461A492846FFF770FC23
:102388000446B9E7144BD3F88030A3F5004800237E
:102398001A4615492846FFF763FC0446AEE70E4B7C
:1023A800D3F88020C2F50042BF03B7FBF6F707EB6E
:1023B800820207492846FFF769FA00231A460B49A3
:1023C8002846FFF74DFC04469AE700BF0401084081
:1023D80008010840606700000000084084670000AA
:1023E8000080AA12A4670000C4670000E867000024
:1023F80072B6406883889AB201F47C431BB21343D7
:102408009BB2838062B600207047000010B5224B53
:102418001B78002B32D0204BDB687BB372B61E4B87
:102428005A68918813889BB20B4003F47C4262B6C9
:1024380012F4004F27D1002413F4804F02D044F443
:102448008044A4B213F4005F02D044F40054A4B250
:1024580013F4805F02D044F48054A4B213F4006FE4
:1024680002D044F40064A4B213F4806F02D044F4A0
:102478008064A4B2084B1B8A1C4207D12146064837
:10248800FFF7B6FF10BD4FF40044D5E70248C36814
:10249800002221469847F1E75404002008B50D4B67
:1024A80001221A725A68516B1B783BB1CAB2094BA8
:1024B800DB681BB10748007C024206D1054B5B680C
:1024C8001A6B5A63BFF34F8F08BD0022C9B2014887
:1024D8009847F3E76804002038B5114B1C694CB9DC
:1024E80072B6104A0023936053600D4A1372D3608A
:1024F80062B638BDB4F5806F28BF4FF480641D46BE
:10250800DB680848836044600123037500F084F8A1
:10251800EB6803EB8403EB602B691B1B2B6138BD55
:10252800600800207808002070B4012303FA00F046
:1025380072B6254A536843F00103536062B6234BD1
:102548001B78002B30D0002930D0012935D072B645
:102558001E4A53681843506062B6002070BC70472A
:102568002C011B4A1619002313517360B36002F53E
:102578008072161913517360B36001350F2DEFDDAA
:10258800114B134A9A6000221A625A629A62DA62FE
:102598001A635A639A634FF6FF72DA63FF22DA64AA
:1025A80001220A4B1A70CEE70025E7E772B6064A01
:1025B800D36B0343D36362B6C9E772B6024A936B1F
:1025C8000343936362B6C2E7000001407C04002025
:1025D800880400200E4B5B68C34013F0010F02D142
:1025E80041F20120704772B6012202FA00F0084B4E
:1025F8005A6822EA00025A6062B65B682BB900206A
:10260800044B5860024B187070470020704700BF99
:102618007C0400200000014010B443788BB9037893
:102628003C4A02EB031283681360C368536072B6B6
:10263800037C062B11D8DFE803F0090909101919E2
:1026480019000378344A02EB0312ECE71468416876
:10265800013901FA03F323441360437C062B15D890
:10266800DFE803F00D0D0D14424242001468416882
:102678000139043B01FA03F3E31A1360EDE75468E8
:102688004168013901FA03F32344536062B6417C7F
:10269800037C9B0643EA8173817843EA0163C17C2A
:1026A80043EA81334168013943EA0113017D0B4351
:1026B8009360027801239340027C032A1DD9174AAC
:1026C800C2F81038427C032A1BD9144AC2F81838B9
:1026D800134A9268134218D1104AC2F804380F4AB4
:1026E8009362002010BC7047546841680139043B6C
:1026F80001FA03F3E31A5360C8E7084AC2F814382A
:10270800E0E7064AC2F81C38E2E7044AC2F8003893
:10271800E5E700BF8804002088050020000001408C
:102728007C04002010B403780B4A02EB0312012149
:10273800994072B6936823F47F5323F03F034468AB
:10274800013C007D40EA04100343936062B6034BEA
:102758009962002010BC70478804002000000140E6
:1027680008B543681B889BB283611C30FEF712FFD3
:1027780008BD000008B50248FFF7F2FF08BD00BF1A
:102788001800002008B50248FFF7EAFF08BD00BF9F
:102798003800002008B50248FFF7E2FF08BD00BF77
:1027A80058000020431E0120984080B2014B188633
:1027B800002070470024004072B63AB983899BB262
:1027C80023EA0101818162B60020704783899BB2A8
:1027D80019438181F7E772B63AB903899BB223EAB4
:1027E8000101018162B60020704703899BB2194339
:1027F8000181F7E7808880B27047008980B270470E
:10280800018300207047818300207047F0B587B0AE
:1028180007460C4601AD184E0FCE0FC533682B6026
:10282800164B03EBC7035B6833B1144800EBC700D2
:102838000022214680689847A4F12F03012B15D860
:10284800002203E00B8D9BB20BE00132042A10D862
:1028580006AB03EB820353F8141C2F2CF2D08B8D9C
:102868009BB2088E0340F0D00B86EEE72046FFF7B8
:1028780099FF07B0F0BD00BF04680000880600207B
:1028880008B501210020FFF7C1FF08BD08B50221E6
:102898000120FFF7BBFF08BD08B503210220FFF7A1
:1028A800B5FF08BD08B504210320FFF7AFFF08BD39
:1028B80008B505210420FFF7A9FF08BD08B50621C2
:1028C8000520FFF7A3FF08BD08B507210620FFF77D
:1028D8009DFF08BD08B508210720FFF797FF08BD31
:1028E80008B509210820FFF791FF08BD08B52F2179
:1028F8000920FFF78BFF08BD08B530210A20FFF734
:1029080085FF08BD38B5C3689D8B01229A8143684D
:102918003BB1ADB2044615F0010F03D115F0020F1B
:1029280005D138BD0022012180689847F6E7636821
:1029380000220221A0689847F3E7000008B5024882
:10294800FFF7E0FF08BD00BFE406002008B5024815
:10295800FFF7D8FF08BD00BFF406002008B50248FD
:10296800FFF7D0FF08BD00BF04070020104B1B78FD
:10297800EBB10F4BDB68D3B110B572B60C4B5B688B
:102988001B8903F0010362B64BB90024084B1B698D
:10299800234206D1064B5B68A4B21C8110BD0124FA
:1029A800F4E70348C368002221469847F2E77047D6
:1029B8001407002008B5837CA3B90A460346C068FB
:1029C800198A012A08D0FFF71BFF003018BF012021
:1029D80050B140F6054008BDFFF715FF003018BF9D
:1029E8000120F5E7002008BD002008BD10B5044609
:1029F80043681A8892B2C2F34201C1F1040189B254
:102A0800C2F3022200E019464B1E9BB281B1616AF3
:102A18000029F8D06168A0690078088194F820003E
:102A2800A1690144A161616A01396162EBE71A4653
:102A3800531E9BB27AB1A26A002AF8D0E269616893
:102A48008988117094F82110E2690A44E261A26A47
:102A5800013AA262EBE7A36A83B9636A73B90123F7
:102A680084F82C302378022B0BD0637A012B0DD0FD
:102A7800236C1BB100221146606C984763681B8861
:102A880010BD00212046FFF795FFEEE704F1150081
:102A9800FEF780FDECE7000008B50248FFF7A6FF47
:102AA80008BD00BF9008002008B50248FFF79EFF48
:102AB80008BD00BFE408002008B50248FFF796FFEC
:102AC80008BD00BF3809002008B5024BDB6B0220A7
:102AD800984708BD9008002008B5024BDB6B03201F
:102AE800984708BD9008002008B5034BD3F89030EC
:102AF8000420984708BD00BF9008002008B5034B84
:102B0800D3F890300520984708BD00BF90080020F2
:102B180008B5034BD3F8E4300020984708BD00BF40
:102B28009008002008B5034BD3F8E43001209847FB
:102B380008BD00BF9008002001F00E01C172704767
:102B48002C4B5A681389DBB213F0010F51D110B521
:102B580003F00603042B10D0062B05D0022B28D037
:102B68002548FEF717FD10BD918AC9B211F00E0F66
:102B7800F6D02048FFF7E0FFF2E71E49CB8B9BB267
:102B8800898B8B4210D01B4B1B8B99420DD0108820
:102B9800184A5169138B5C1C1483C854D38B9BB29D
:102BA80001339BB2D383DBE7FEE70021114B198386
:102BB800EDE7104BD88C198D884201D30020D884BA
:102BC8000C4B5B8D9BB299420CD90A49086ACB8C95
:102BD8005C1CCC84C35C13804B8D9BB201339BB2CD
:102BE8004B85BDE793889BB223F002039BB2938089
:102BF800B6E77047780000208900002010B5044629
:102C080090F900305A0903F01F03012101FA03F378
:102C18002032084941F8223000210320FEF768F8E5
:102C2800626892F8303043F0010382F830300020B7
:102C3800607010BD00E100E030B597B005460C4665
:102C48005422174901A801F001F90420FEF708F8F9
:102C5800144B984206D0144B984219D040F60450B1
:102C680017B030BD04EB4404620001AB1A446B6832
:102C7800118819856968B2F90430528843EAC22379
:102C88006FEA43436FEA53439BB28B840020E7E724
:102C980004EB440462002A3201AB1A44E7E700BFA0
:102CA800186800000024F40040420F002DE9F047A6
:102CB800894600230B604FF02C08234B08FB003893
:102CC80092B11146002288F811200A68C8F8142029
:102CD8008A88A8F81C208A68C8F82020CA88A8F81A
:102CE8002820012288F80A20DFF85CA02C2707FB9F
:102CF80000F70AEB0704002565832583E583E5844F
:102D0800A584238D638501266670217C4046FFF7E4
:102D180093FF6368A2899A816368E2891A82C9F875
:102D2800008031460320FDF7E3FF636883F83060D5
:102D38001AF907305A0903F01F039E40034B43F862
:102D480022602846BDE8F0877800002000E100E016
:102D580008B50A4661B9416891F8303043F001037B
:102D680081F8303011460320FDF7C2FF002008BD6E
:102D7800416891F8303003F0FE0381F83030F1E714
:102D880090F901305A0903F01F03012101FA03F3F6
:102D98002032044941F8223000234370037018465A
:102DA800704700BF00E100E0837883B1104B1B8BB4
:102DB80003F00E03002BF9D172B689B10C4A1389BE
:102DC8009BB243F06003138162B600207047084B42
:102DD8001B8B03F00E03002BEED040F60810704753
:102DE800034A13899BB223F020039BB21381EBE7BC
:102DF8008025004083785BB10A4B1B8B03F00E03E0
:102E0800002BF9D14CF6CC42064B9A810020704732
:102E1800044B1B8B03F00E03002BF3D040F6081075
:102E2800704700BF8025004070B503461A4C00EB80
:102E38004002A01800250D6001268670A554174A87
:102E4800128B12F0100F12D1144A128912F0200FAF
:102E58000DD1134D03FA06F21A4402FA06F42E199C
:102E68002C5B0E4A148074881481002414820A4A48
:102E780003EB4303D4180A2565704FF48065094CA9
:102E880025600124D4540860FFF7B4FF034608B155
:102E980040F60513184670BD28070020802500401D
:102EA8006C68000000E100E0436801F01F0119862A
:102EB8000020704710B50C4B5A68948D04F01F041D
:102EC800128D14401A7C14401B781BB1064BDB682A
:102ED80003B124B921460448FFF7E6FF10BD0022DC
:102EE800214601489847F5E72C070020034B1B684B
:102EF8001BB1024A1368013B136070478C0900201C
:102F080008B5FFF7F3FF08BD08B501F02DF808BDB7
:102F180008B500220B491046FFF7C8FE034608B162
:102F2800184608BD0421074B1868FFF785FE0346BD
:102F38000028F5D10121034B1868FFF709FF034664
:102F4800EEE700BF400700204FF42042014B1A6013
:102F58000020704700000240034628B9002900DB22
:102F68007047A0F50040704730B583B0002819DBE2
:102F7800002500291CDD8B420ADB8CB29AB2A0180E
:102F880000B200281ADB131B1BB201460135EDB253
:102F9800DB0393FBF1F1ADF806100023ADF8043024
:102FA800042423E043421BB2494209B20425E0E766
:102FB8004A420235EDB2194613B2DCE7121B194436
:102FC80041F34F0142F34E03E0E70D4B33F8143061
:102FD800BDF80420134402A820F8043D012302464A
:102FE8000DF1060100F0D4FA013C64B2002CECDAD1
:102FF800680380B2BDF80430184400B203B030BD95
:103008007468000070B50C461146002301E00133D6
:103018005BB21C2B12DC5E0030F91320093292B22D
:10302800122AF4D89A000232855E092DEFDC15F1D8
:10303800090FECDB002585538552E8E7002305E0FE
:1030480030F9132024F8132001335BB2392BF7DD54
:103058003A22204600F0F8F970BDF8B531B30A46B7
:10306800C7177B01440143EAD065241A65EB0705BD
:10307800AB0043EA9473A1000C1843EB0705EB007F
:1030880043EA5473E1000C465901D317600141EA41
:10309800D46100F015FD013041F1000149104FEAFB
:1030A800300000220B46134303D1F8BD0020002155
:1030B800F7E76FF00040F8E70A1AD317901843EBC8
:1030C800030112184B41190141EA12711001801ACB
:1030D80061EB03018B0043EA9073820012F5806074
:1030E80043F10001C00A40EA4150704710B5002979
:1030F8000ADB01F00F0340F2712202FB03F30A110D
:10310800154900F06BFF10BDC1F303035B4203F0E8
:103118000F03002263F3030241F31B1464F31F122D
:1031280011F00F0F04D024F07044013464F31F121F
:1031380032F00F0107D140F2712202FB03F2074976
:1031480000F04CFF10BD40F2712101FB03F3121196
:10315800014900F043FF10BD906A0000806A00003A
:1031680008B53A23FEF77CFD00B908BD014800F018
:1031780040F9FAE7546A000070B5ADF5B86D03F090
:103188007BF8FDF703FD0020FEF718FA0221042062
:10319800FDF7DAFD00F032F9FFF7D6FEFFF7B8FECB
:1031A800002836D17748FFF7AFFE0DF2BC50FEF786
:1031B80023FC90BB7448FFF7A7FEDDF8BC05FEF7BB
:1031C800C3FF70BB7148FFF79FFEDDF8BC05FEF733
:1031D800C5FF50BB6E48FFF797FEDDF8BC05FFF74B
:1031E80043F830BB6B48FFF78FFEDDF8BC05FEF7F0
:1031F800BFFF10BB6848FFF787FE684B684ADA6074
:10320800684A1A610121DDF8BC05FEF7E9FB0025D3
:1032180088E0654800F0EDF8C4E7644800F0E9F894
:10322800C8E7634800F0E5F8CCE7624800F0E1F849
:10323800D0E7614800F0DDF8D4E7604800F0D9F83D
:10324800D8E7DEAB621C53F82210DE98FFF705FFC3
:10325800B3AB43F82400013464B21B2CF1DDBDF993
:103268004815BDF94A05FFF777FEADF83C03002481
:103278001DE0661C730001330DF5B86202EB86028F
:103288000DF5B86101EB430332F9781C33F9780C7A
:10329800FFF762FE0146CFAB23F81600BDF93C03E9
:1032A800FFF70AFF97AB43F82400013464B21B2CE4
:1032B8000ADCB3AB53F82430002BDAD1631C0021AD
:1032C800CFAA22F81310F0E73D4A3E4901A800F0C2
:1032D80085FE002409E03C4901A800F0A1FE3B4915
:1032E80001A800F09DFE013464B21B2C0FDCB3ABC7
:1032F80053F82430002BEED0B3AB53F824104CA86D
:10330800FFF7F4FE4CA901A800F08AFEE7E7304970
:1033180001A800F085FE01A8FFF7F6FD0135B5F517
:103328007A7F14DA0DF5A9621C49DDF8BC05FFF7B0
:1033380017FFFBAA0DF2D4410DF5A960FFF762FE55
:103348001D22DEA9FBA800F08BF8002485E7DDF834
:10335800BC05FEF74FFF68B9DDF8BC05FEF798FB22
:1033680060B91C4B1868FFF749FC00F03EF80DF5F2
:10337800B86D70BD184800F03CF8EDE7174800F04C
:1033880038F8EEE7A0680000CC680000FC68000090
:10339800386900007C690000C8690000A4000020AA
:1033A800333303981705009E80680000AC6800005E
:1033B800D868000008690000546900009869000096
:1033C800E4690000F0690000FC690000006A000080
:1033D800046A000040070020086A0000306A000004
:1033E80008B50020FDF71CFA08BD08B5FFF7F8FF7F
:1033F80008BD08B5FFF7F4FF08BD000000B583B0AD
:1034080001A90020FFF710FD58B900210198FFF726
:10341800CBFC50B90198FFF7B3FC50B903B05DF885
:1034280004FB0648FFF7E5FFEFE70548FFF7E1FF74
:10343800F0E70448FFF7DDFFF0E700BF9C6A0000F3
:10344800D46A0000F06A000042B1043930F9023B46
:10345800013A4FEA034341F8043FF7D1704700BFF0
:10346800C2B12DE9F843914600F1080818E9500067
:1034780086FB066784FB0445781000EB65000C1D8D
:1034880000F00AF8B9F1010908F108082146EDD160
:10349800BDE8F883704700BF002871DD2DE9F047CB
:1034A800B0FA80F707F1FF3818F0010A16BFBE1E00
:1034B80000FA08F600FA06F63046894600F036F9B2
:1034C8004FF0405100F086F9431030484FF09D41CD
:1034D800C01A00F07FF900F0CDFA80FB0023D40F6A
:1034E800711044EA430484FB0145E30F43EA4503B2
:1034F800C3F1405380FB0323D40F44EA4304A000E4
:1035080080FB0023D20F42EA430281FB0223D40F3F
:1035180044EA4304C4F1405480FB0445E20F42EA04
:103528004502930083FB0345E00F40EA450081FB19
:103538000001C20F42EA4102C2F1405283FB02235A
:10354800D00F40EA4300800086FB0001C30F43EA26
:1035580041035B00BAF1000F09D0023F07EBD777B0
:103568007F103B41C9F800300020BDE8F0874FEAE2
:10357800680843FA08F3C9F800300020BDE8F0876E
:1035880000230B604FF0FF30704700BFDF59375FF3
:1035980083B130B4023A30F9025B31F9024B013B96
:1035A80004FB05F44FEAE43404F30F0422F8024F55
:1035B800F1D130BC704700BF80F0004002E000BF8E
:1035C80081F0004142001FBF5FEA410392EA030F06
:1035D8007FEA226C7FEA236C6AD04FEA1262D2EB50
:1035E8001363C1BFD218414048404140B8BF5B4255
:1035F800192B88BF704710F0004F40F4000020F0EE
:103608007F4018BF404211F0004F41F4000121F003
:103618007F4118BF494292EA030F3FD0A2F101024D
:1036280041FA03FC10EB0C00C3F1200301FA03F18B
:1036380000F0004302D5494260EB4000B0F5000FAE
:1036480013D3B0F1807F06D340084FEA310102F16D
:103658000102FE2A51D2B1F1004F40EBC25008BF1F
:1036680020F0010040EA03007047490040EB0000E9
:1036780010F4000FA2F10102EDD1B0FA80FCACF118
:10368800080CB2EB0C0200FA0CF0AABF00EBC25017
:1036980052421843BCBFD0401843704792F0000F05
:1036A80081F4000106BF80F400000132013BB5E758
:1036B8004FEA41037FEA226C18BF7FEA236C21D0CE
:1036C80092EA030F04D092F0000F08BF0846704733
:1036D80090EA010F1CBF0020704712F07F4F04D101
:1036E800400028BF40F00040704712F100723CBF14
:1036F80000F50000704700F0004343F0FE4040F43E
:10370800000070477FEA226216BF08467FEA2363FB
:103718000146420206BF5FEA412390EA010F40F4E6
:10372800800070474FF0000304E000BF10F0004332
:1037380048BF40425FEA000C08BF704743F0964319
:1037480001464FF000001CE050EA010208BF704734
:103758004FF000030AE000BF50EA010208BF7047BB
:1037680011F0004302D5404261EB41015FEA010CD0
:1037780002BF84460146002043F0B64308BFA3F1C8
:103788008053A3F50003BCFA8CF2083AA3EBC253AA
:1037980010DB01FA02FC634400FA02FCC2F12002C9
:1037A800BCF1004F20FA02F243EB020008BF20F000
:1037B8000100704702F1200201FA02FCC2F1200266
:1037C80050EA4C0021FA02F243EB020008BF20EA5B
:1037D800DC7070474FF0FF0C1CEAD0521EBF1CEA89
:1037E800D15392EA0C0F93EA0C0F6FD01A4480EA77
:1037F800010C400218BF5FEA41211ED04FF0006360
:1038080043EA501043EA5111A0FB01310CF000408B
:10381800B1F5000F3EBF490041EAD3715B0040EAB1
:10382800010062F17F02FD2A1DD8B3F1004F40EB81
:10383800C25008BF20F00100704790F0000F0CF054
:10384800004C08BF49024CEA502040EA51207F3A18
:10385800C2BFD2F1FF0340EAC250704740F40000F3
:103868004FF00003013A5DDC12F1190FDCBF00F0E4
:1038780000407047C2F10002410021FA02F1C2F192
:10388800200200FA02FC5FEA310040F1000053EA2E
:103898004C0308BF20EADC70704792F0000F00F07C
:1038A800004C02BF400010F4000F013AF9D040EA82
:1038B8000C0093F0000F01F0004C02BF490011F416
:1038C800000F013BF9D041EA0C018FE70CEAD15314
:1038D80092EA0C0F18BF93EA0C0F0AD030F0004C94
:1038E80018BF31F0004CD8D180EA010000F0004048
:1038F800704790F0000F17BF90F0004F084691F006
:10390800000F91F0004F14D092EA0C0F01D142023F
:103918000FD193EA0C0F03D14B0218BF084608D108
:1039280080EA010000F0004040F0FE4040F4000052
:10393800704740F0FE4040F4400070474FF0FF0CE5
:103948001CEAD0521EBF1CEAD15392EA0C0F93EA2C
:103958000C0F69D0A2EB030280EA010C49024FEA7E
:10396800402037D04FF0805343EA111143EA101337
:103978000CF000408B4238BF5B0042F17D024FF4EF
:10398800000C8B4224BF5B1A40EA0C00B3EB510FCA
:1039980024BFA3EB510340EA5C00B3EB910F24BFB3
:1039A800A3EB910340EA9C00B3EBD10F24BFA3EB38
:1039B800D10340EADC001B0118BF5FEA1C1CE0D100
:1039C800FD2A3FF650AF8B4240EBC25008BF20F0B3
:1039D800010070470CF0004C4CEA50207F32C2BF07
:1039E800D2F1FF0340EAC250704740F400004FF0A4
:1039F8000003013A37E792F0000F00F0004C02BFD5
:103A0800400010F4000F013AF9D040EA0C0093F09E
:103A1800000F01F0004C02BF490011F4000F013BF8
:103A2800F9D041EA0C0195E70CEAD15392EA0C0F60
:103A380008D142027FF47DAF93EA0C0F7FF470AF98
:103A4800084676E793EA0C0F04D14B023FF44CAFDB
:103A580008466EE730F0004C18BF31F0004CCAD170
:103A680030F000427FF45CAF31F000437FF43CAFAC
:103A78005FE700BF4FEA4002B2F1FE4F0FD34FF0AD
:103A88009E03B3EB12620DD94FEA002343F00043C3
:103A980010F0004F23FA02F018BF404270474FF071
:103AA8000000704712F1610F01D1420205D110F0F8
:103AB800004008BF6FF0004070474FF000007047AB
:103AC8007BB972B90029BEBF00204FF0004106E063
:103AD80008BF00281CBF6FF000414FF0FF3000F016
:103AE800ADB9ADF1080C6DE904CE002909DB002B56
:103AF8001ADB00F035F8DDF804E0DDE9022304B054
:103B08007047404261EB4101002B1BDB00F028F8B5
:103B1800DDF804E0DDE9022304B0404261EB410135
:103B2800524263EB43037047524263EB430300F096
:103B380017F8DDF804E0DDE9022304B0404261EB48
:103B480041017047524263EB430300F009F8DDF886
:103B580004E0DDE9022304B0524263EB43037047FB
:103B68002DE9F0478C460E460446089D002B50D19F
:103B78008A4217466CD9B2FA82FEBEF1000F0BD00A
:103B8800CEF1200C01FA0EF620FA0CFC02FA0EF720
:103B98004CEA060C00FA0EF43A0CBCFBF2F9BBB284
:103BA80002FB19CC09FB03FA4FEA144848EA0C4611
:103BB800B2450AD9F61909F1FF3180F02581B245DD
:103BC80040F22281A9F102093E44A6EB0A06B6FB9F
:103BD800F2F002FB106600FB03F3A4B244EA0644C9
:103BE800A34209D9E41900F1FF3280F00B81A34206
:103BF80040F2088102383C440021E41A40EA0940B6
:103C0800002D62D0002324FA0EF42C606B60BDE80E
:103C1800F0878B4207D9002D55D0002185E8410057
:103C28000846BDE8F087B3FA83F1002940F08F8099
:103C3800B34202D3824200F2FC80841A66EB030688
:103C48000120B446002D40D085E81010BDE8F0876B
:103C580012B90127B7FBF2F7B7FA87FEBEF1000FDA
:103C680035D10121F61B4FEA174C1FFA87F8B6FB2E
:103C7800FCF20CFB126608FB02F0230C43EA064632
:103C8800B04207D9F61902F1FF3302D2B04200F26E
:103C9800D2801A46361AB6FBFCF00CFB106608FBFD
:103CA80000F8A3B243EA0644A04507D9E41900F195
:103CB800FF3302D2A04500F2B9801846A4EB0804ED
:103CC80040EA02409CE729462846BDE8F08707FA03
:103CD8000EF7CEF1200326FA03F24FEA174CB2FB97
:103CE800FCF11FFA87F80CFB112206FA0EF620FAEF
:103CF80003F301FB08F933431E0C46EA0246B145BB
:103D080000FA0EF409D9F61901F1FF3280F08C801F
:103D1800B14540F2898002393E44A6EB0906B6FB5C
:103D2800FCF00CFB106200FB08F99EB246EA024662
:103D3800B14507D9F61900F1FF3371D2B1456FD9F2
:103D480002383E44A6EB090640EA01418FE7C1F17B
:103D5800200722FA07F88B4048EA030326FA07F4FB
:103D68004FEA134EB4FBFEF91FFA83FC0EFB19440D
:103D78008E4020FA07F809FB0CFA48EA06084FEAD1
:103D8800184646EA0444A24502FA01F200FA01F68E
:103D980008D9E41809F1FF3044D2A24542D9A9F163
:103DA80002091C44A4EB0A04B4FBFEF00EFB104409
:103DB80000FB0CFC1FFA88F848EA0444A44507D91C
:103DC800E41800F1FF3E29D2A44527D902381C4443
:103DD80040EA0940A0FB0289A4EB0C0CCC45C24682
:103DE800CE4615D312D055B1B6EB0A036CEB0E06CE
:103DF80006FA07F7CB401F43CE402F606E600021C4
:103E0800BDE8F0871046F7E68946DEE64645EAD281
:103E1800B8EB020A69EB030E0138E4E77046D7E70E
:103E280018468FE78146BDE7114676E702383C44DD
:103E380044E7084606E7023A3E442BE7704700BFCE
:103E4800014B1868704700BF10030020844641EA00
:103E5800000313F0030349D1403A23D30B680360EE
:103E68004B6843608B688360CB68C3600B690361F0
:103E78004B6943618B698361CB69C3610B6A0362D8
:103E88004B6A43628B6A8362CB6AC3620B6B0363C0
:103E98004B6B43638B6B8363CB6BC36340304031A5
:103EA800403ADBD230320BD30B6803604B68436077
:103EB8008B688360CB68C36010301031103AF3D23E
:103EC8000C3205D351F8043B40F8043B043AF9D2CC
:103ED800043208D0D2071CBF11F8013B00F8013B9F
:103EE80001D30B8803806046704700BF082A13D3AC
:103EF8008B07B1D010F00303AED0C3F10403D21A7C
:103F0800DB071CBF11F8013B00F8013BA4D331F8D3
:103F1800023B20F8023B9FE7043AD9D3013A11F853
:103F2800013B00F8013BF9D20B7803704B784370E2
:103F38008B788370604670470EB430B5044682B003
:103F480008B1836963B106AD2B46059AA16820467E
:103F5800019500F0BBFD02B0BDE8304003B07047EA
:103F680000F038FAEFE700BF0FB430B50B4B83B061
:103F78001C680CB1A36963B107AD2B46069AA1680A
:103F88002046019500F0A2FD03B0BDE8304004B022
:103F98007047204600F01EFAEEE700BF100300202D
:103FA8000CB470B56FF000459CB020AC54F8042BED
:103FB800094E02910691234602A901940795CDE97D
:103FC800045600F0FDFB0022029B1A701CB0BDE8ED
:103FD800704002B0704700BF0802FFFF0EB40346EE
:103FE80030B56FF000449CB01FA951F8042B0A4863
:103FF8000A4D0293069301910B46006802A90794A3
:10400800CDE9044500F0DCFB0022029B1A701CB0CD
:10401800BDE8304003B07047100300200802FFFFDE
:10402800830710B5044610D10268A2F1013323EAD0
:10403800020313F0803F08D150F8042FA2F1013396
:1040480023EA020313F0803FF6D003781BB110F87F
:10405800013F002BFBD100F003F8204610BD00BF44
:1040680080EA0102844612F0030F4FD111F0030FCA
:1040780032D14DF8044D11F0040F51F8043B0BD028
:10408800A3F101329A4312F0803F04BF4CF8043B7D
:1040980051F8043B16D100BF51F8044BA3F101328B
:1040A8009A4312F0803FA4F101320BD14CF8043B43
:1040B800A24312F0803F04BF51F8043B4CF8044B74
:1040C800EAD023460CF8013B13F0FF0F4FEA3323E5
:1040D800F8D15DF8044B704711F0010F06D011F8C4
:1040E800012B0CF8012B002A08BF704711F0020FB2
:1040F800BFD031F8022B12F0FF0F16BF2CF8022B9D
:104108008CF8002012F47F4FB3D1704711F8012BBF
:104118000CF8012B002AF9D1704700BF20F00301E9
:1041280010F00300C0F1000051F8043B00F1040C4A
:104138004FEACC0C6FF000021CBF22FA0CF21343BA
:104148004FF0010C4CEA0C2C4CEA0C4CA3EB0C0283
:1041580022EA030212EACC1204BF51F8043B0430ED
:10416800F4D0C2F1000102EA0102B2FA82F2C2F10D
:104178001F0200EBD200704770B5141E9AB00546B6
:104188002ADB1A464FF4027300910491ADF80C3003
:104198004FF6FF7611D0013C1E9B694602940594A8
:1041A800ADF80E6000F00CFB421C01DA8B232B608B
:1041B8000022009B1A701AB070BD1E9B69460294BB
:1041C8000594ADF80E6000F0FBFA431C01DB1AB051
:1041D80070BD8B232B60FAE78B234FF0FF302B60E9
:1041E800F5E700BF10B5064C82B00093246813466B
:1041F8000A4601462046FFF7BFFF02B010BD00BFC8
:104208001003002000207047014900F027B900BFC3
:10421800515500000020704770B568254A1E05FBFF
:1042280002F50E4605F1740100F08AF9044640B122
:1042380000210C30666005F168022160A06000F082
:1042480035F9204670BD00BF1E4B70B51D68064687
:10425800AB6943B34835D5E90134013B05D51EE0C8
:10426800013B5A1C04F1680419D0B4F90C20002A47
:10427800F6D10025144B6566C4E90055A560C4E96C
:104288000455A5612946E360082204F15C0000F0AA
:104298000DF9C4E90D55C4E91255204670BD2868CA
:1042A80028B10546D7E7284600F010F8D2E70421E0
:1042B8003046FFF7B1FF28600028F2D10C230446EE
:1042C8003360EAE7086B00000100FFFF2DE9F84FB3
:1042D8000023334AC0E9123312680365904208BFCD
:1042E8000123304908BF836181620546FFF7ACFFAF
:1042F80068602846FFF7A8FFA86028460024FFF753
:10430800A3FF04236E68E8602146F3607466C6E97B
:104318000044B460C6E90444B46106F15C000822B4
:1043280000F0C4F8DFF888B0AF68DFF888A0DFF8DD
:104338008890DFF888801C4BC6E9086BC6E90AA993
:10434800C6F830802146FB6008227C66C7E9004435
:10435800BC60C7E90444BC6107F15C0000F0A6F842
:10436800EE68124BC7E9087BC7E90AA9C7F830808D
:104378002146F3607466C6E90044B460C6E90444A3
:10438800B46106F15C00082200F090F80123C6E948
:10439800086BC6E90AA9C6F83080AB61BDE8F88F9A
:1043A800086B000011420000090001001200020021
:1043B8007D510000A5510000E151000001520000AC
:1043C800024B0349186800F049B800BF086B0000A9
:1043D80051550000836903B978E77047704700BFFB
:1043E800704700BF704700BF704700BF024B0349CA
:1043F800186800F00FB800BF100300200D4200003D
:10440800024B0349186800F005B800BF10030020EC
:104418001D4200002DE9F04110F148071AD08846E6
:104428000026D7E90154013D0ED4A389013D012B93
:1044380006D9B4F90E30013302D02046C0470643EE
:104448006B1C04F16804F0D13F68002FE9D13046B5
:10445800BDE8F0813E463046BDE8F0812DE9F843DD
:1044680010F148061ED0884607464FF00009D6E9E5
:104478000154013D10D4A389013D012B08D9B4F999
:104488000E30013304D021463846C04749EA0009B6
:104498006B1C04F16804EED13668002EE7D148465B
:1044A800BDE8F883B1464846BDE8F883F0B486070E
:1044B80043D0541E002A3ED0CAB2034602E014F18B
:1044C800FF3438D303F8012B9D07F8D1032C2BD9DF
:1044D800CDB245EA05250F2C45EA054516D9A4F1C4
:1044E80010073F0903F1200606EB071603F1100237
:1044F80042E9045542E902551032B242F8D104F0BB
:104508000F040137032C03EB07130DD91E4622466F
:10451800043A032A46F8045BFAD8221F22F0030261
:104528000432134404F003042CB1C9B21C4403F848
:10453800011B9C42FBD1F0BC704714460346C5E7FB
:10454800F8B5CD1C25F0030508350C2D38BF0C2512
:10455800002D06463ADBA94238D82A4F01F0E6FA80
:104568003A6852B113685B1B04D433E023685B1BC1
:1045780025D522465468002CF8D1796800293BD00B
:104588002946304600F0E4FD431C2AD0C41C24F020
:104598000304A04205D0211A304600F0D9FD0130AD
:1045A8001FD02560304601F0C3FA04F10B0020F05B
:1045B8000700231DC31A01D05A42E250F8BD0B2B45
:1045C8000BD8A24215D063685360EBE70C23002098
:1045D8003360F8BD0B2B0BD9144623601C442560AF
:1045E800E0E70C233046336001F0A2FA0020F8BD62
:1045F80054683C601446D5E7304600F0A9FD786061
:10460800BEE700BF440700202DE9F0478E688046CA
:104618009E420C461D461746086828D8B1F80CC0BB
:104628001CF4906F31D0D1E9041606EB460606EB70
:10463800D676A0EB0109013376104B44B3423246DB
:1046480084BF1E4632461CF4806F20D01146404677
:10465800FFF776FF824670B34A462169FFF7F6FBFB
:10466800A38923F4906343F08003A38114E01E46DA
:104678002A46394601F0F8F90020A2682368961BFB
:104688002B44A6602360BDE8F0873546F0E7404636
:1046980001F0A4FA824650B1A6EB09030AEB09001F
:1046A8006661C4F810A02060A3602E46E0E7216987
:1046B800404601F03FFA0C23C8F80030A3894FF0B8
:1046C800FF3043F04003A381DDE700BF2DE9F04F41
:1046D800936883B09046002B6CD0176882460C46CE
:1046E800086808378D6842E0A38913F4906F2DD0CD
:1046F800D4E9041505EB4505A0EB010B05EBD575D1
:10470800701C6D105844A8422A4684BF05462A46A4
:104718005B0536D511465046FFF712FF00283AD000
:104728005A4621690190FFF791FBA289019B22F467
:10473800906242F08002A281A5EB0B0203EB0B0012
:104748006561B346354623612060A2605A464946F2
:1047580001F08AF9D8F80830A2682068551B584437
:104768009E1BA5602060C8F808601EB3083757E98B
:104778000296AB46002EF9D0AE42B5D23546B346C6
:10478800E4E7504601F02AFA03460028D4D121690B
:10479800504601F0CFF90C2300224FF0FF30CAF841
:1047A8000030A38943F04003A381C8E9012203B084
:1047B800BDE8F08F0020C8F8040003B0BDE8F08F12
:1047C8002DE9F04F884689899FB00D06144602905E
:1047D80004D5D8F81020002A00F0178100202021E5
:1047E80030220593237801260B908DF83110914DD6
:1047F8008DF83220002B00F09680252BA24603D19D
:1048080019E0252B00F0C2801AF8013F002BF8D1DF
:10481800BAEB040B00F0878022465B4641460298BB
:10482800FFF7F2FE01307ED00B9B9AF800205B4424
:104838000B93002A77D000234FF0FF320AF1010AC8
:104848000693CDE908338DF85B301C93079206E098
:10485800CA46069B401B06FA00F018430690D1464C
:10486800052219F8011B284601F0B8F8CB460028A4
:10487800EED1069BD80644BF20228DF85B2019078D
:1048880048BF2B229AF8001048BF8DF85B202A29D0
:1048980053D0A1F13003092B00F2AC80099A02E051
:1048A800CA4609F1010999F8001002EB820203EBEC
:1048B8004202A1F13003092BCB46F1D90AF10209D2
:1048C80009922E2946D05C4C0322204601F086F836
:1048D800002858D04021001B069A01FA00F0024334
:1048E800069209F1010499F8003006221946534846
:1048F8008DF8303001F072F8002859D0504B002B59
:1049080049D005AB009342464E4B06A90298AFF337
:10491800008007467A1C06D00B9B3B440B932378F8
:10492800002B7FF46AAFB8F80C305B064CBF4FF031
:10493800FF300B981FB0BDE8F08F059A116804325C
:10494800002905922EDB09919AF801100AF1020953
:104958002E29B8D19BF801102A2933D1059B0BF1D8
:1049680002001A680433002A079205939BF8021084
:104978000BF1030940DB304C83460322204601F04B
:104988002DF80028A6D14C46D946ACE7BAEB040B63
:104998003FF451AF40E7059B073323F00703083383
:1049A8000593B9E7494243F0020309910693CBE71F
:1049B80005AB00934246234B06A9029800F086FAFD
:1049C8000746A7E70022A1F130000928079201D97C
:1049D80017E0D94699F8011002EB820200EB420277
:1049E800A1F13000092809F1010BF2D909F10209F6
:1049F800079268E7D34664E74FF0FF328346079291
:104A080061E7CB4609F101095DE740210393FFF710
:104A180097FD039BC8F80000C8F8100018B14022A1
:104A2800C8F81420DAE60C23029A4FF0FF3013601E
:104A380080E700BF6C6B0000746B0000786B0000AF
:104A480000000000114600009368013B002B9360B2
:104A580005DB1368581C106019700846704710B4BD
:104A68009469A34208DB0A2906D01368581C106011
:104A78001970084610BC704710BC00F0C1BB00BFDD
:104A88009BB1F8B5D5180F460646013D541E01E006
:104A9800AC4208D03A4614F8011F3046FFF7D4FF5D
:104AA800431CF5D1F8BD0020F8BD0020704700BFB9
:104AB800936810B5144613B95360184610BD00F03A
:104AC80085FD0023C4E9013310BD00BF2DE9F04F77
:104AD8009FB0884614461D46039018B18369002B81
:104AE80000F0C580A44B984500F0C780A34B9845BB
:104AF80000F0D580A24B984504BF039BD3F80C80E7
:104B0800B8F80C301E0740F1C080D8F81030002BE0
:104B180000F0BB803023002120228DF8323023782A
:104B280005950B918DF83120964D0126002B00F04C
:104B38009680252BA24603D119E0252B00F0DC80B6
:104B48001AF8013F002BF8D1BAEB040B00F087806C
:104B580022465B4641460398FFF792FF01307ED01C
:104B68000B9B9AF800205B440B93002A77D0002314
:104B78004FF0FF320AF1010A0693CDE908338DF8A8
:104B88005B301C93079206E0CA46069B401B06FA58
:104B980000F018430690D146052219F8011B284653
:104BA80000F01CFFCB460028EED1069BD80644BF78
:104BB80020228DF85B20190748BF2B229AF8001095
:104BC80048BF8DF85B202A296DD0A1F13003092B4D
:104BD80000F2C680099A02E0CA4609F1010999F86B
:104BE800001002EB820203EB4202A1F13003092B11
:104BF800CB46F1D90AF1020909922E2960D0624CFC
:104C08000322204600F0EAFE002872D04021001B53
:104C1800069A01FA00F00243069209F1010499F894
:104C280000300622194659488DF8303000F0D6FE7B
:104C3800002873D0564B002B63D005AB0093424637
:104C4800544B06A90398AFF3008007467A1C06D098
:104C58000B9B3B440B932378002B7FF46AAFB8F887
:104C68000C305B0618D40B981FB0BDE8F08FFFF727
:104C7800B1FB414B98457FF439AF039BD3F80480CF
:104C8800B8F80C301E073FF540AF4146039800F0D6
:104C98002DFB00283FF43EAF4FF0FF30E4E7039BC5
:104CA800D3F808802CE7059A116804320029059288
:104CB8002EDB09919AF801100AF102092E299ED1DA
:104CC8009BF801102A2933D1059B0BF102001A68C1
:104CD8000433002A079205939BF802100BF103098D
:104CE80040DB294C83460322204600F077FE00284B
:104CF8008CD14C46D94692E7BAEB040B3FF437AF58
:104D080026E7059B073323F00703083305939FE73E
:104D1800494243F0020309910693CBE705AB0093A0
:104D280042461C4B06A9039800F0D0F807468DE7C9
:104D38000022A1F130000928079201D917E0D946CD
:104D480099F8011002EB820200EB4202A1F1300057
:104D5800092809F1010BF2D909F1020907924EE776
:104D6800D3464AE74FF0FF328346079247E7CB46E0
:104D780009F1010943E700BF4C6B00002C6B0000F0
:104D88000C6B00006C6B0000746B0000786B00000B
:104D980000000000894A000010B4044C13460A467B
:104DA8000146206810BCFFF791BE00BF1003002029
:104DB8002DE9F0470C460969A56891468D42B8BFB0
:104DC8000D46156094F8431006461F46DDF820800E
:104DD80011B16A1CC9F80020236899065FD5D9F873
:104DE80000200232C9F80020236813F0060F194684
:104DF8001DD1E1688A1A002AD8BF194617DD002597
:104E080004F1190A05E0E368D9F800209B1AAB42BF
:104E18000CDD0123524639463046C047013005F1C2
:104E28000105F0D14FF0FF30BDE8F087216894F814
:104E38004330003318BF01238A060AD53021E2180F
:104E480082F8431094F845105A1C224482F8431003
:104E5800023304F1430239463046C0470130E1D0FD
:104E6800D4E902202368D9F8005003F00603042B84
:104E780021691AD08A421FDD4FF00009521A914465
:104E880000251A3401E04D4516D001232246394643
:104E98003046C047013005F10105F4D1C2E713F0EF
:104EA800060F0CD1D9F80020A3E7401B8A4220EA5C
:104EB800E079E3DC0028E3DC0020BDE8F08794F823
:104EC8004330003318BF0123C3E700BF2DE9F04387
:104ED8000C46097E85B06E2906461746984604F1A9
:104EE800430C0C9D4AD00FD8632900F0FE8000F2D5
:104EF800BE8000294ED0582940F0E08084F8451043
:104F08002268DFF844E212E0732900F0C5807AD8FD
:104F18006F2900F0DA80702940F0D080206840F0D6
:104F2800200222607823DFF824E284F845302B68D9
:104F3800191D1B682960150602D4500648BF9BB28C
:104F4800D10744BF42F020022260002B6CD1D4E983
:104F5800001284F84330002A21F020032360A26065
:104F68007DDB21F0240121601021002A78D16546DB
:104F780008294ED0ACEB050323610EE02B682268AC
:104F8800181D6169286015061B6802D4500600F1D7
:104F9800C6801960002365462361CDF800803B4632
:104FA80003AA21463046FFF703FF013020D02A46E6
:104FB800236939463046C047013019D02268039822
:104FC8009207E36819D51A1A002A16DD002504F19C
:104FD800190904E0E36803981A1AAA420DDD0123AF
:104FE8004A4639463046C047013005F10105F1D13E
:104FF8004FF0FF3005B0BDE8F0839842B8BF1846BF
:1050080005B0BDE8F08375295FD0782956D12268AC
:1050180088E72368DB07ADD5626823699A42A9DC73
:105028003023013D2B70A5E71021002284F843208E
:105038006268002AA2602CDB206820F0040020604F
:10504800002B92D06546B3FBF1F201FB12331EF838
:105058000300134605F8010D002AF4D188E7102152
:105068009EF8003004F1420584F8423080E7642954
:1050780001D0692922D120682B68010603F10402B6
:1050880045D51B682A60002B4BDB0A21DFF8B8E006
:10509800CEE7002BD6D1E3E72B686268191D29609B
:1050A8001D680021284600F099FC002845D0401BC7
:1050B80060602061002384F843306EE7012384F8A0
:1050C8004210236104F14205F4E720682B6810F0D0
:1050D800800F03F1040213D01B682A606F290CBFEC
:1050E80008210A21DFF860E09FE701222B68191DDB
:1050F8001B68296004F1420584F842302261D9E72F
:10510800400653BF1B682A601B882A60E6E74106F1
:1051180053BF1B682A60B3F900302A60B3E71980CF
:1051280038E72D2162685B42002A84F84310A260A8
:1051380005DB0A21DFF810E07FE76068B9E7DFF8F0
:1051480008E00A217EE700BF806B0000946B000036
:1051580038B50023064C054608462360FBF762FB7A
:10516800431C00D038BD2368002BFBD02B6038BD12
:10517800FC07002010B50C46B1F90E1000F054FDE4
:10518800002803DB636D0344636510BDA38923F422
:105198008053A38110BD00BF002070472DE9F04166
:1051A800B1F90C409846E3050D461746B1F90E10C3
:1051B800064607D50223002200F082FBB5F90C4011
:1051C800B5F90E1024F48054AC8143463A46304673
:1051D800BDE8F04100F074B810B50C46B1F90E10F6
:1051E80000F06EFBA389421C0EBF23F4805343F4E6
:1051F80080536065A38110BDB1F90E1000F0F6B8B8
:10520800F8B50D461446064608B1836943B3254BE5
:105218009C422AD0244B9C4229D0244B9C4208BF54
:10522800F468A269A389A2601A0722D5236903B387
:1052380022686169D31AEDB299422F4629DD0133FC
:10524800A168501C0139A1602060157062699A42FA
:1052580016D0A389DB0701D50A2D11D03846F8BD31
:10526800FFF7B8F80F4B9C42D4D17468D9E7B468FB
:10527800D7E72146304600F039F838B92369D7E72F
:105288002146304600F060F90028E7D04FF0FF379C
:10529800E4E72146304600F057F90028F6D101230B
:1052A8002268CDE74C6B00002C6B00000C6B0000F3
:1052B800024B0A4601461868FFF7A2BF10030020F8
:1052C800F8B50E460025084C114607461A463046E2
:1052D800256000F0BDFD431C00D0F8BD2368002BFD
:1052E800FBD03B60F8BD00BFFC0700203B4B70B50E
:1052F8001D6806460C460DB1AB69DBB1384B9C42C4
:105308001ED0384B9C424AD0374B9C4208BFEC68B1
:10531800B4F90C2093B2190718D5206908B313F013
:1053280001022CD000226369A2605B42A36160B3D2
:10533800002070BD2846FFF74DF8294B9C42E0D16C
:105348006C68B4F90C2093B21907E6D4DD063CD595
:10535800580726D4206942F00803A3819BB200288D
:10536800DDD103F42072B2F5007FD8D03046214653
:1053780000F0EAFAA389206913F00102D2D1990753
:1053880058BF6269A2600028D2D1B4F90C301A065D
:10539800CFD543F04003A3814FF0FF3070BDAC6818
:1053A800B6E7616B51B104F14403994204D0304629
:1053B80000F0C0FBB4F90C200023636300232069CC
:1053C80022F02402C4E90003C5E7092342F04002A1
:1053D80033604FF0FF30A28170BD00BF1003002082
:1053E8004C6B00002C6B00000C6B000038B50023E0
:1053F800064C05460846236000F07AFD431C00D0A1
:1054080038BD2368002BFBD02B6038BDFC0700207B
:105418008B892DE9F0411A070C4680463BD44A682F
:10542800002A54DDE56A002D4ED00022D8F800602D
:10543800216AC8F8002013F480527CD10123404629
:10544800A847431C47D0A389E56A216A5F0705D5A9
:105458006268636B801A0BB1236CC01A0246002382
:105468004046A847451C42D000236360A3892269AF
:10547800DB04226000D56065616BC8F8006019B371
:1054880004F14403994202D0404600F053FB002047
:105498006063BDE8F0810E69B6B19A0718BF0023B2
:1054A8000D6808BF4B690E60AD1B8B600AE02B4688
:1054B8003246A76A216A4046B8470028A5EB00058E
:1054C800064428DD002DF2DC0020BDE8F0810A6CDE
:1054D800002AA7DCF8E7D8F80030002BB3D01D2B42
:1054E80001D0162B29D1C8F800600020EDE7D8F8C4
:1054F80000201D2A17D8134BB4F90C10D340DB43F6
:1055080013F0010311D12569C904C4E90053B3D5C7
:10551800002AB1D1AFE7A3894FF0FF3043F0400331
:10552800A381BDE8F081B4F90C1041F04001A181DC
:105538004FF0FF30C9E7606D88E7A38943F0400367
:10554800A381C2E7010040200B6923B310B50446CC
:1055580082B008B18369BBB1104B994212D0104B8D
:10556800994216D00F4B994208BFE168B1F90C3047
:1055780013B9002002B010BD204602B0BDE81040AB
:10558800FFF746BF6168F1E70191FEF723FF019934
:10559800E2E7A168EAE70020704700BF4C6B000013
:1055A8002C6B00000C6B000020B1054B01461868FD
:1055B800FFF7CABF034B04491868FEF74FBF00BF87
:1055C80010030020086B0000515500009368002B61
:1055D80000F0DB802DE9F04FB1F90C300C469BB29E
:1055E800190783B0824690462BD522694AB313F037
:1055F8000202D8F8006033D000273D46D4F828B01E
:10560800216ADFF8B892C5B14D452B463A4628BF06
:105618004B465046D847002840F3BF80D8F808309A
:1056280007441B1A2D1AC8F80830002B00F0A9806F
:10563800D4F828B0216A002DE6D1D6E900750836DD
:10564800E1E721465046FFF751FE002840F030813F
:10565800B4F90C30D8F800609BB213F00202CBD139
:1056680013F001095ED14D46A7682068002D55D07A
:105678009A0540F19C80AF42BB4600F2DE8013F4ED
:10568800906F2FD0D4E9041707EB4707A0EB010B65
:1056980007EBD777681C7F105844B8423A4684BF56
:1056A80007463A465B0540F1D98011465046FEF759
:1056B80047FF002800F0F6805A4621690190FEF75E
:1056C800C5FBA289019B22F4906242F08002A2816C
:1056D800A7EB0B0203EB0B006761AB462F46236178
:1056E8002060A2605A46494600F0BEF92368A268C5
:1056F8005B44AB460025D71BA7602360D8F8087029
:10570800D944A7EB0B07C8F80870002F39D0B4F9B3
:105718000C30A7689BB22068002DA9D1D6E9009566
:105728000836A3E733469146104617464E469B4631
:10573800002F6ED0002876D020682169B9454B46E5
:1057480028BF3B468842626903D9A5681544AB4225
:1057580076DC9A4200F398801346A56A3246216A9D
:105768005046A847051E18DDB9EB05090FD00120E2
:10577800D8F808302E445B1B7F1BC8F80830002B74
:10578800D6D1002003B0BDE8F08F00207047214635
:105798005046FFF7D9FE0028EAD0B4F90C304FF094
:1057A800FF3043F04003A38103B0BDE8F08F2369C5
:1057B800834217D36269AA4214D83F4BA76A9D4215
:1057C80094BF2B466FF0004393FBF2F3216A02FB70
:1057D80003F350464A46B847B0F1000BDDDDA5EBB0
:1057E8000B058BE7AF4228BF2F4649463A4600F0E3
:1057F8003BF9A3682268DB1B3A44BB46A3602260DE
:10580800002BECD121465046FFF79EFE0028E6D03B
:10581800C3E70BF1080353F8047C9B4653F8086C64
:105828000833002FF7D03A460A21304600F0D6F860
:1058380038B30130A0EB06097EE72F46AB4651E7A7
:1058480031462A4600F010F9236821462B4423608C
:105858005046FFF779FE002886D09EE7504600F0B4
:10586800BDF9034600287FF433AF2169504600F0A4
:1058780061F90C22B4F90C30CAF8002023F0800337
:105888008DE707F1010957E71A4631461D4601938E
:1058980000F0EAF8A1682268019BC91A1344A160C4
:1058A800236061E70C22B4F90C30CAF8002076E7CF
:1058B8004FF0FF3066E700BFFEFFFF7F00FCFF7F71
:1058C800F8B50E460025084C114607461A463046DC
:1058D800256000F0A7FA431C00D0F8BD2368002B10
:1058E800FBD03B60F8BD00BFFC07002070B50C463C
:1058F800B1F90E1096B0002916461D460FDA00229F
:10590800A3892A601B0605D44FF480630020336006
:1059180016B070BD40230020336016B070BD6A46D3
:1059280000F098F90028EADB019B4FF4806203F449
:105938007043A3F50053B3FA83F300205B092B608F
:10594800326016B070BD00BF8A890B46920706D533
:10595800012103F1470259611A601A61704770B555
:1059680082B001AB6A460C460546FFF7BFFF0099B7
:1059780006462846FEF7E4FDB4F90C30D8B1164ABD
:105988000099AA62019A43F08003A3812060C4E9C8
:1059980004011AB93343A38102B070BD2846B4F993
:1059A8000E1000F06BF9A0B1A38923F0030343F0B4
:1059B80001031BB2EEE79A05EED4012123F003039D
:1059C80004F1470243F00203A3816161226022616E
:1059D800E2E7B4F90C30DDE711420000830770B448
:1059E800CDB23DD0541E0AB30378AB421FD0431C3E
:1059F80005E014F1FF3419D30278AA4217D013F046
:105A0800030F184603F10103F3D1032C11D84CB34B
:105A18000378AB420BD00444431C02E00278AA424C
:105A280005D09C42184603F10103F7D1002070BC51
:105A3800704706460A0292B22A4342EA0242336893
:105A480030465340A3F1013121EA030313F0803FAC
:105A580006F10406DCD1043C032C3046EFD8D6E727
:105A68001446D2E72046E2E78842F0B40DD98B18F5
:105A780083420AD9841832B1224613F8014D99425B
:105A880002F8014DF9D1F0BC70470F2A48D940EA15
:105A980001039B0746D1A2F110031B0901F120075E
:105AA80007EB031701F1100400F1100554F8106C0E
:105AB800103445F8106C54F81C6C103545F81C6C03
:105AC80054F8186C45F8186C54F8146CBC4245F836
:105AD800146CEBD1013302F00F051B01032D19449F
:105AE800034421D90F462C461E1F57F804CB043C0B
:105AF800032C46F804CFF8D82C1F24F003040434F0
:105B08002344214402F00302002ABCD0013B0A448A
:105B180011F8014B914203F8014FF9D1F0BC7047DD
:105B28000346F1E70346F1E72A46EDE7704700BF71
:105B3800704700BF002934D038B551F8043C0C1F19
:105B4800002BB8BFE4180546FFF7F0FF224B1A6890
:105B58002AB1A2420DD921686018824235D062600C
:105B680028461C60BDE83840FFF7E2BFA34203D8CF
:105B78001A465368002BF9D111685018A04218D062
:105B880010D821686018834203BFD3E900030918BD
:105B9800C4E90013636054602846BDE83840FFF745
:105BA800C7BF70470C2328462B60BDE83840FFF775
:105BB800BFBF20680144501883421160ECD1D3E97B
:105BC80000030144C2E90013E6E7D2E900020144F8
:105BD800C4E90012C4E700BF44070020E1B1F8B5EA
:105BE8001446E2B106460D4600F05AF8A04202D328
:105BF8002F463846F8BD21463046FEF7A1FC074639
:105C08000028F6D022462946FEF720F930462946D4
:105C1800FFF790FF3846F8BD1146FEF791BCFFF735
:105C280089FF2746E5E700BFF8B50E460025084C72
:105C3800114607461A463046256000F075F8431CA1
:105C480000D0F8BD2368002BFBD03B60F8BD00BF37
:105C5800FC07002070B50D460023074C0646114688
:105C68002846236000F0CEF9431C00D070BD23689D
:105C7800002BFBD0336070BDFC07002038B5002333
:105C8800064C05460846236000F0C4FB431C00D0C0
:105C980038BD2368002BFBD02B6038BDFC070020E3
:105CA80051F8043C181F002BBCBF0B58C018704794
:105CB8000A4B10B50446186808B1836B4BB1132C16
:105CC8000AD8074850F83430013305D000EBC40037
:105CD80010BDFEF77FFBF2E7002010BD1003002087
:105CE8004C07002070B5FEF7ABF8132405460026D4
:105CF80020463146ABBE04464FF0FF302C6070BDE5
:105D080030B585B0CDE901010392062401AD2046E6
:105D18002946ABBE0446631C02D0204605B030BD00
:105D2800FFF7E0FF05B030BDF0B585B00F4615466A
:105D3800FFF7BEFFE0B103680646CDE90137062448
:105D4800039501AF20463946ABBE0446621C07D016
:105D580072682D1B2C4615447560204605B0F0BDB1
:105D6800FFF7C0FF431C0446F2D1204605B0F0BD42
:105D7800FEF766F809224FF0FF340260EDE700BF36
:105D88002DE9F04383B089461446FFF791FF0028B8
:105D980041D0022C38D8012C064622D0022C0368A8
:105DA80011D04D46E846CDE900350A242046414643
:105DB800ABBE0446631C1BD0002C22DB7560284652
:105DC80003B0BDE8F0830DF108080C2748F8083D3A
:105DD80038464146ABBE0546691C0DD04D44336874
:105DE800E1E7456819EB05050ED40368E846DAE7EC
:105DF800FFF778FF0446DFE7FFF774FF421C05460C
:105E0800ECD14FF0FF35DAE7FEF71AF816234FF01A
:105E1800FF350360D3E7FEF713F809234FF0FF358A
:105E28000360CCE7FFF7ACBF30B585B0CDE9010121
:105E38000392052401AD20462946ABBE0446631CE7
:105E480002D0204605B030BDFFF74CFF05B030BD8D
:105E5800F0B585B00F461646FFF72AFF60B3036812
:105E68000546CDE901370524039601AF204639469A
:105E7800ABBE0446631C0AD0002C1ADB6A68331BCD
:105E88001A44B4426A6006D0184605B0F0BDFFF760
:105E980029FF0446F0E7FDF7D3FF13250646002443
:105EA80028462146ABBE054623461846356005B050
:105EB800F0BD4FF0FF33E7E7FDF7C2FF09224FF0CF
:105EC800FF330260E0E700BF30B583B002AD0224C3
:105ED80045F8040D20462946ABBE0446631C02D093
:105EE800204603B030BDFFF7FDFE03B030BD00BF54
:105EF80070B582B00446FFF7DBFE38B3013C012CD5
:105F0800064611D9336802AD022445F8043D2046FF
:105F18002946ABBE0446631C12D014B94FF0FF32B9
:105F28003260204602B070BD0C4B9A681B699A42D9
