:1000000000400020DD160000C91500009702000026
:10001000E1020000E50200002D030000D1160000FF
:10002000D1160000D1160000D116000075030000A3
:1000300079030000D11600007D030000DD250000DB
:1000400091250000991F0000A51F0000B11F0000AE
:10005000BD1F0000C91F0000D51F0000E11F0000E8
:10006000ED1F0000F91F0000D5150000552000000D
:10007000652000008D1E000059220000B121000003
:10008000D1210000E1150000ED150000F915000078
:10009000292200003D220000E1210000F1210000A2
:1000A00001220000152200000516000011160000B4
:1000B0001D1600002916000035160000F11A000078
:1000C0001D1B0000E11C0000411600004D16000041
:1000D0005916000065160000711600007D1600001C
:1000E000752000009D1E0000C1210000891600003F
:1000F000D1160000151C0000951600000520000018
:1001000011200000D116000001180000C5180000E1
:10011000411900003D1A0000A51C0000AD1E0000A2
:10012000A1160000AD16000085200000B9160000E1
:10013000C5160000004000208D0200009302000060
:1001400097020000E1020000E50200002D0300001C
:10015000000000000000000000000000000000009F
:100160007503000079030000000000007D0300001B
:10017000DD2500009103000000B583B000F0ACFB6A
:10018000304B314A1360314A1360314B314A03E03E
:1001900011681960043304322F498B42F8D32A4B7B
:1001A0001A682E4B9A4200D0FEE7284B1A682C4B57
:1001B0009A42F9D1234B2B4A13602B4A13602B4BE5
:1001C00002E000221A600433294A9342F9D3254BF6
:1001D0001B6813B9244B1B6803B1FEE700F088FBD2
:1001E000694601A800F044FB224B234CE41AA410FA
:1001F0000025AC4214DC214B214CE41AA41000254C
:10020000AC4213DC0099019802F014FA05461D4B2C
:100210001D4CE41AA410002C0EDC284600F004FB50
:10022000144B53F8253098470135E2E7134B53F848
:10023000253098470135E3E7013C124B53F8243051
:100240009847E8E7BABADECA00000020080100209B
:10025000000000202C3700000C01002078563412DA
:10026000325476980C010020380600200C01002042
:100270003C0600202808000028080000280800008C
:1002800028080000280800002808000008B5FFF72B
:1002900073FF00BEFEE71EF0040F0CBFEFF30880F3
:1002A000EFF309807146374A10472DE9F04182B0DB
:1002B00004468846084B5E6B9F6B9D6A074800F0BA
:1002C000DFFACDF800803B4632462946204600F052
:1002D00013FB00BEFEE700BF00ED00E0F4340000B9
:1002E00000BEFEE71EF0040F0CBFEFF30880EFF333
:1002F00009807146244A10472DE9F04182B0044636
:100300008846084B5E6B9F6B9D6A074800F0B8FA01
:10031000CDF800803B4632462946204600F0ECFAF4
:1003200000BEFEE700ED00E0043500001EF0040F03
:100330000CBFEFF30880EFF309807146134A1047B2
:100340002DE9F04182B004468846084B5E6B9F6BF6
:100350009D6A074800F094FACDF800803B4632468B
:100360002946204600F0C8FA00BEFEE700ED00E096
:100370001035000000BEFEE700BEFEE700BEFEE74F
:1003800070470000AB020000F902000041030000CA
:02039000FEE786
:100800002C370000000000200C01002094030000A1
:1008100000000010000000100C0100203C06002029
:080820000000001000000010B0
:10082800FEE7000008B503460C4A12685AB10B4AA5
:100838001068033323F003030344094A934206D89C
:10084800064A136008BD0749044A1160EFE701F042
:100858003BFF0C2303604FF0FF3008BD1001002060
:10086800003C00203C06002001230360014B0B6084
:10087800704700BF040000200FB400B583B004AB7C
:1008880053F8042B01938021064801F0FDFF00284E
:1008980003DD0146034800F017F803B05DF804EBE8
:1008A80004B070471801002010B5044601F088FF15
:1008B8000146204600F008F80121024800F004F83B
:1008C80010BD00BF703400004FF0FF3070470000CB
:1008D80008B500F06BF9024B024A9A6008BD00BFE8
:1008E80000ED00E00000000008B500F0C3F808BD06
:1008F800F8B504460D4617461E462748FFF7BCFFC5
:1009080021682648FFF7B8FF61682548FFF7B4FF5C
:10091800A1682448FFF7B0FFE1682348FFF7ACFF60
:1009280021692248FFF7A8FF61692148FFF7A4FF62
:10093800A1692048FFF7A0FFE1691F48FFF79CFF66
:100948001E48FFF799FF29461D48FFF795FF1D4CE4
:10095800E16A1D48FFF790FF216B1C48FFF78CFFE9
:10096800E16B1B48FFF788FF15F0800F0AD115F4DB
:10097800004F0CD11748FFF77FFF06991648FFF77D
:100988007BFFF8BD39461548FFF776FFEFE731469C
:100998001348FFF771FFEDE7D8330000E833000094
:1009A800F833000008340000183400002834000030
:1009B800383400004834000058340000683400001F
:1009C8007434000000ED00E084340000943400002A
:1009D800A4340000D4340000DC340000B434000037
:1009E800C4340000114B9B6813F0006F04D00F4B08
:1009F8001B6813F0010F12D10D4B1B8813F4807F75
:100A08000FD10C4B1B8913F0200F0CD10A4B1B88FC
:100A180013F0010F01D10020704701207047012019
:100A28007047012070470120704700BF0040084010
:100A3800005C0040802500400080004069B10C4BFC
:100A48009B8803F03F030278934206DB084B9B88A0
:100A5800C3F305234278934209DA037803F03F038E
:100A68004278120202F47C521343014A9380704781
:100A780000800240184B1B8803F00303032B2AD87D
:100A8800DFE803F002060A25144A154B1A6070477E
:100A9800124A134B1A6070470F4A1388938903F060
:100AA8003F010E4B03FB01F3928902F0C002402A7A
:100AB8000BD0802A00D19B08074A928912F4807FC4
:100AC80000D05B08064A136070475B08F4E7054BE3
:100AD8001A68034B1A607047008002400024F40033
:100AE800A00100209C01002010B514284ED8DFE892
:100AF80000F04A0B0F13171A1D202326292C2F321A
:100B080035383B3E414447004FF400631C463DE006
:100B180000234FF4807439E04FF480731C4635E0AD
:100B28000023F02432E01023F0242FE02023F024C7
:100B38002CE03023F02429E04023F02426E0502341
:100B4800F02423E06023F02420E07023F0241DE04B
:100B58008023F0241AE09023F02417E0A023F02447
:100B680014E0B023F02411E0C023F0240EE00023A9
:100B780003240BE00123032408E00223032405E0F7
:100B880003231C4602E000234FF4006472B60649B2
:100B98000A8892B222EA040213439BB20B8062B61F
:100BA800FFF768FF10BD00BF0080024008B572B6AD
:100BB8001D4B1E4A9A604FF4E0225A62BFF36F8FB2
:100BC800BFF34F8F62B61A4A4CF614339381138AD7
:100BD8009BB243F003031382154B1B8A13F4007F67
:100BE800FAD0144B1A8892B222F0030292B21A80F9
:100BF80000221A8041F210029A8088229A818F225C
:100C08001A824FF4C0729A820120FFF76DFF084ADA
:100C18004CF614339381138A9BB223F008039BB2DA
:100C28001382FFF727FF08BD00ED00E00000000079
:100C3800002400400080024010B4032814D8DFE8E4
:100C480000F00F02070B022208244FF480730BE018
:100C580004221446F02307E011220024032303E0B2
:100C680000220B244FF400630449088880B218401E
:100C7800204180B21044C0B210BC704700800240CE
:100C880070B50546FFF7F6FE0F2D20D8DFE805F012
:100C98000808191919191919222222222222222296
:100CA800124B9B8803F03F03012B1AD00F4B9C88F3
:100CB80004F03F049B8813F0800F15D0A4080C4E55
:100CC80005E00C4B1E68094B9C88C4F30524B6FB51
:100CD800F4F070BD074B1E68044B9C8804F03F0479
:100CE800F5E70124024EF2E7014EF0E700800240EA
:100CF80000879303A001002010B504460920FFF7E0
:100D0800BFFF000D02D004FB00F010BD204610BD4F
:100D1800072815D8DFE800F0120406080A0C0E10A0
:100D280080230DE020230BE0102309E0082307E0CF
:100D3800042305E0022303E0012301E04FF480735C
:100D480072B641B907498A8A92B213439BB28B8221
:100D580062B60020704703498A8A92B222EA0303E6
:100D68008B82F5E70080024010B50F280BD8DFE82A
:100D780000F008081818181818181C1C1C1C1C1C33
:100D88001C1CCA01802472B609498B889BB223EACD
:100D9800040313439BB28B8062B6FFF76BFE0020FF
:100DA80010BD0A024FF47C54EDE78AB23F24EAE70B
:100DB8000080024030B583B006283DD8DFE800F057
:100DC800040B1219392024004CF61432334B9A8143
:100DD800334C082530E04CF61432304B9A81304CB5
:100DE800042529E04CF614322C4B9A812C4C022510
:100DF80022E04CF61432294B9A81294C01251BE03C
:100E0800284C4FF4007517E000224FF40061264883
:100E180001F069F810B140F2113018E001224FF4E6
:100E28000061214801F050F8002834D040F2113018
:100E38000DE01E4C4FF4007572B651B123889BB279
:100E48002B439BB2238062B6012808D0002003B050
:100E580030BD23889BB223EA05032380F3E709B159
:100E68000020F4E70920FFF747FF0023019302E081
:100E7800019B01330193019B9842F9D872B64CF655
:100E88001432064B9A8123889BB223EA05052580F4
:100E980062B60020DBE70020D9E700BF002400404D
:100EA8001024004010800240000002400C800240E4
:100EB80010B50446062800F2F980DFE810F00700B4
:100EC80068001C00AF005C006200EE000320FFF722
:100ED800B3FE122802D140F2093010BD0020FFF7FE
:100EE800ABFE01284DD10320FFF7A6FE132848D1F9
:100EF80040F20A3010BD0320FFF79EFE112802D1F0
:100F080040F2093010BD0020FFF796FED0B14FF037
:100F180080431B8903F06003202B1BD0694B1B897E
:100F280003F06003202B1ED0674B1B8903F060037E
:100F3800202B26D1644B1B8913F0100F21D040F2CF
:100F48000B3010BD0320FFF777FE1328DFD140F2E6
:100F58000A3010BD4FF080431B8913F0100FDDD00D
:100F680040F20B3010BD574B1B8913F0100FDBD02C
:100F780040F20B3010BD0320FFF75EFE132800F08F
:100F8800988000212046FFF715FF002010BD0120A2
:100F9800FFF752FE032807D04C4B1B6813F0010FD4
:100FA80009D040F20D3010BDFFF71CFD0028F3D02A
:100FB80040F20E3010BD464B1B8903F4D063B3F5E5
:100FC800207F79D04FF080431B8903F06003602BAA
:100FD80013D03C4B1B8903F06003602B16D03A4BAF
:100FE8001B8903F06003602BCBD1374B1B8913F0AF
:100FF800100FC6D040F20B3010BD4FF080431B8954
:1010080013F0100FE5D040F20B3010BD2D4B1B89AB
:1010180013F0100FE3D040F20B3010BD0120FFF7A2
:101028000BFE022821D02A4B1B8903F4D063B3F5A9
:10103800906F44D04FF080431B8903F06003402B2E
:101048001AD0204B1B8903F06003402B1DD01E4B88
:101058001B8903F06003402B93D11B4B1B8913F0B2
:10106800100F8ED040F20B3010BDFFF7BBFC0028EC
:10107800D9D040F20E3010BD4FF080431B8913F0D9
:10108800100FDED040F20B3010BD0E4B1B8913F051
:10109800100FDCD040F20B3010BD0320FFF7CCFD61
:1010A80014287FF46EAF40F2093010BD40F20230D0
:1010B80010BD40F2093010BD4FF4437010BD4FF41D
:1010C800437010BD000400400008004000260040A6
:1010D8000025004008B50020FFF7AEFD012814D018
:1010E8001120FFF701FD00210A48FFF7A7FC0021A6
:1010F8000120FFF739FE0520FFF7DAFE0420FFF78D
:10110800D7FEFFF7B7FC002008BD1220FFF7ECFC64
:10111800E9E700BF1600002008B5374B1B8A9BB2D1
:1011280006284FD8DFE800F0141C040C36422400CF
:1011380013F0020F48D013F4007F47D0022008BDF7
:1011480013F0010F44D013F4807F43D0022008BD70
:1011580013F0080F40D013F4006F3FD0022008BDF1
:1011680013F0040F3CD013F4806F3BD0022008BD6D
:10117800224800F0C7FE10F4006F01D0002008BD1F
:101188001E4800F0C2FE10F4006F01D1022008BD15
:10119800002008BD1A4B9B8913F4007F24D0184BFC
:1011A8001B8B13F0010F21D0022008BD144B1B8AA2
:1011B80013F4007F1CD0124B1B8B13F0100F19D0A7
:1011C800022008BD032008BD002008BD012008BD7D
:1011D800002008BD012008BD002008BD012008BD71
:1011E800002008BD012008BD002008BD012008BD61
:1011F800002008BD012008BD002400400000024076
:101208000080024070B505460C46FFF785FF0228AE
:101218003BD0052D0CD001212846FFF7CBFD002C33
:1012280035D0012C21D02046FFF766FD044620E08A
:1012380072B6184A138A9BB203F03F0643F40F7341
:1012480043F00303138262B62220FFF755FD00E046
:1012580001380028FCD172B60E4A138A9BB223F0DB
:101268003F033343138262B6D9E743F69920DBE79D
:10127800013C24B12846FFF74FFF0228F8D114B9E2
:101288004FF4427070BD002070BD002070BD00207A
:1012980070BD00BF0080024010B501210220FFF799
:1012A800B1FF044608B1204610BD1120FFF71CFC11
:1012B80000210948FFF7C2FB00210120FFF754FD78
:1012C8000520FFF7F5FD0420FFF7F2FD0020FFF7EA
:1012D800EFFDFFF7CFFBE6E70E00002070B504280E
:1012E80004D005280FD040F2023070BD1C461546C8
:1012F8000E460320FFF7A0FC132810D044EA06038B
:101308002B43084902E00B431343074972B60A8886
:1013180002F47E4213430B8062B6002070BD4FF486
:10132800447070BD0C8002401080024010B500204F
:10133800FFF782FC012807D001210220FFF762FF96
:1013480004463CB1204610BD01210020FFF75AFF9A
:101358000446F6E70320FFF76FFC132834D04FF458
:101368008073102280210420FFF7B8FF0121042098
:10137800FFF748FF04460028E4D1284C0121204605
:10138800FFF75CFB1320FFF7AFFB00212046FFF7B8
:1013980055FB01210846FFF7E7FC00230F228021B7
:1013A8000520FFF79BFF01210520FFF72BFF0446CF
:1013B8000028C7D1FFF740FC01282BD00020FFF7F9
:1013C80077FDFFF757FBBDE7154B9B8903F0C0037B
:1013D800802B0FD00020FFF72FFC012816D01120FA
:1013E800FFF782FB4FF48073102280210420FFF75F
:1013F80075FFBBE70A4B9B8903F03F03102BE9D12C
:10140800074B9B8913F4807FB0D1E3E71220FFF7E5
:101418006BFBE7E70220FFF74BFDD2E71200002045
:101428000080024038B50020FFF706FC012807D0ED
:1014380001210220FFF7E6FE04463CB1204638BDF4
:1014480001210020FFF7DEFE0446F6E70320FFF740
:10145800F3FB13282BD04FF4807310228021042033
:10146800FFF73CFF01210420FFF7CCFE04460028CB
:10147800E4D1244D01212846FFF7E0FA1320FFF7B5
:1014880033FB00212846FFF7D9FA0520FFF710FDA6
:101498000020FFF7D1FB01282FD00020FFF708FD1F
:1014A80000210120FFF760FCFFF7E4FAC6E7164BBE
:1014B8009B8903F0C003802B0FD00020FFF7BCFBF3
:1014C800012816D01120FFF70FFB4FF4807310226C
:1014D80080210420FFF702FFC4E70B4B9B8903F030
:1014E8003F03102BE9D1084B9B8913F4807FB9D1B6
:1014F800E3E71220FFF7F8FAE7E70220FFF7D8FC46
:10150800CEE700BF1000002000800240034610B163
:1015180001221A70704772B6044A136923F0020355
:101528001361BFF34F8F62B6014BF1E700ED00E0A6
:10153800A401002038B504461F4B1B7813B10025C1
:10154800002108E0FFF7A8FE054628BB01221A4B38
:101558001A70F5E70531182908D8184B13F8312007
:10156800154B1B789A42F5D10B4600E00B464A1DF5
:1015780093420BDA114A02EBC3025278A24201D01D
:101588000133F4E70D4C04EBC30400E000247CB104
:10159800A3781BB940F21335284638BD63680BB1F0
:1015A80098470546002DF7D1A278034B1A70F3E748
:1015B80040F21335F0E700BF980100202035000005
:1015C800684620F007018D4601B4FEE7684620F022
:1015D80007018D4601B4FEE7684620F007018D46F5
:1015E80001B4FEE7684620F007018D4601B4FEE726
:1015F800684620F007018D4601B4FEE7684620F0F2
:1016080007018D4601B4FEE7684620F007018D46C4
:1016180001B4FEE7684620F007018D4601B4FEE7F5
:10162800684620F007018D4601B4FEE7684620F0C1
:1016380007018D4601B4FEE7684620F007018D4694
:1016480001B4FEE7684620F007018D4601B4FEE7C5
:10165800684620F007018D4601B4FEE7684620F091
:1016680007018D4601B4FEE7684620F007018D4664
:1016780001B4FEE7684620F007018D4601B4FEE795
:10168800684620F007018D4601B4FEE7684620F061
:1016980007018D4601B4FEE7684620F007018D4634
:1016A80001B4FEE7684620F007018D4601B4FEE765
:1016B800684620F007018D4601B4FEE7684620F031
:1016C80007018D4601B4FEE7684620F007018D4604
:1016D80001B4FEE7684620F007018D4689B500AFE2
:1016E8000A4B1B6883F30888094A44F65903938018
:1016F8004FF27B23938013886FEA43436FEA534387
:101708009BB2138000F092FFFEE700BF00000000CC
:101718000024004038B50446806C69B11546C160A4
:10172800426000F001FB08B141F20B50A4F854509C
:10173800002384F84D3038BD00F07CFB0028F7D03A
:1017480041F20B50F4E7000010B5013903290ED817
:10175800DFE801F00B0205083320154C07E03420C0
:10176800144C04E03520144C01E03220134C83B9AA
:10177800236823EA020222602368B3B9430900F010
:101788001F00012202FA00F020330D4A42F823001C
:101798000BE023681A432260420900F01F0001236E
:1017A80003FA00F0064B43F82200002010BD00BFEA
:1017B8009000084094000840980008408C000840B9
:1017C80000E100E00139032906D8DFE801F002074B
:1017D8000B0F084BC3F8A02000207047054BC3F837
:1017E800A420F9E7034BC3F8A820F5E7014BC3F899
:1017F800AC20F1E70000084070B52F4BDA68D2F84A
:10180800A030D2F88C2013F0010F04D012F0010F91
:1018180022D1002400E0002413F0020F04D012F0BB
:10182800020F01D044F0020413F0040F04D012F0A8
:10183800040F01D044F0040413F0080F04D012F090
:10184800080F01D044F0080413F0100F06D012F06E
:10185800100F2AD1002502E00124DDE7002513F04E
:10186800200F04D012F0200F01D045F0200513F00E
:10187800400F04D012F0400F01D045F040050E4B48
:101888005B6A2BB144EA05010B4A926A11420ED1F8
:10189800094E00232A4601213046FFF755FF22460C
:1018A80001213046FFF78EFF70BD1025D7E70022D3
:1018B80001489847ECE700BFA804002010B51D4B6D
:1018C800DA68D2F8A430D2F8902013F0010F04D0CF
:1018D80012F0010F27D1002400E0002413F0020FBA
:1018E80004D012F0020F01D044F0020413F0040FE8
:1018F80004D012F0040F01D044F0040413F0080FD0
:1019080004D012F0080F01D044F00804094BDB6A38
:101918001BB1084A126B144207D12246022105481E
:10192800FFF750FF10BD0124D8E7002221460148E7
:101938009847F2E7A804002070B53C4BDA68D2F863
:10194800A830D2F8942013F0010F06D012F0010F3E
:101958001FD001243549CC7100E0002413F0020F98
:1019680004D012F0020F01D044F0020413F0040F67
:1019780004D012F0040F01D044F0040413F0080F4F
:1019880009D012F0080F49D001202849887108258C
:1019980002E00024E2E7002513F0100F04D012F053
:1019A800100F01D045F0100513F0200F04D012F0ED
:1019B800200F01D045F0200513F0400F08D012F099
:1019C800400F05D044F0400441F208501749888080
:1019D80013F0800F08D012F0800F05D044F0800477
:1019E80041F20752114B9A80114E3046FFF78EFD97
:1019F800F36933B144EA0501A6F11802926B11426A
:101A08000ED10A4E00232A4603213046FFF79CFEDA
:101A1800224603213046FFF7D5FE70BD0025BBE7FF
:101A28000022A6F118009847EBE700BFA8040020A1
:101A3800C004002070B52B4BDA68D2F8AC30D2F86D
:101A4800982013F0010F04D012F0010F1ED10024CA
:101A580000E0002413F0020F04D012F0020F01D0AE
:101A680044F0020413F0040F04D012F0040F01D064
:101A780044F0040413F0080F0AD012F0080F2AD01B
:101A880041F20A5017498880082502E00124E1E75D
:101A9800002513F0100F08D012F0100F05D045F0F4
:101AA800100541F209520F4B9A800E4BDB6B2BB19C
:101AB80045EA04010B4A126C11420ED1094E00236B
:101AC800224604213046FFF73FFE2A4604213046CD
:101AD800FFF778FE70BD0025DBE700220148984734
:101AE800ECE700BFA804002008B54FF00042074B00
:101AF800C3F88020064B012283F84C209A71DB69D9
:101B08001BB1002211460248984708BD00E100E0D9
:101B1800A804002070B5314BB3F85460B3F85620D0
:101B2800002A48D0B3F85C305BB32C4B196DB3F87E
:101B3800583001EB43052A4801609A421BD800211E
:101B4800264BA3F856100021244BA3F85C10244B15
:101B580019682248FFF7DEFD0122224B1A70224C39
:101B68002046FFF7D3FCA36823B12A463146A4F1E7
:101B78001800984770BDD21A1849A1F856201A467D
:101B8800E1E7164B1D6DB3F8581005EB41011448F9
:101B98000160B3F85A309A4207D800200F49A1F8DB
:101BA80056000E49A1F85C30D1E7D21A0B49A1F8CA
:101BB80056201A46F5E70B4B1B7863B1084B1D6896
:101BC80001230A4AC2F88430044A82F84D300022C0
:101BD800044B1A70C3E7014B1D6DF1E7A804002000
:101BE800A8010020A5010020C004002000E100E0B9
:101BF80072B6406883889AB201F47C431BB21343DF
:101C08009BB2838062B600207047000010B5224B5B
:101C18001B78002B32D0204BDB687BB372B61E4B8F
:101C28005A68918813889BB20B4003F47C4262B6D1
:101C380012F4004F27D1002413F4804F02D044F44B
:101C48008044A4B213F4005F02D044F40054A4B258
:101C580013F4805F02D044F48054A4B213F4006FEC
:101C680002D044F40064A4B213F4806F02D044F4A8
:101C78008064A4B2084B1B8A1C4207D1214606483F
:101C8800FFF7B6FF10BD4FF40044D5E70248C3681C
:101C9800002221469847F1E7AC01002008B50D4B1A
:101CA80001221A725A68516B1B783BB1CAB2094BB0
:101CB800DB681BB10748007C024206D1054B5B6814
:101CC8001A6B5A63BFF34F8F08BD0022C9B201488F
:101CD8009847F3E7C001002038B5114B1C694CB98F
:101CE80072B6104A0023936053600D4A1372D36092
:101CF80062B638BDB4F5806F28BF4FF480641D46C6
:101D0800DB680848836044600123037500F00CF821
:101D1800EB6803EB8403EB602B691B1B2B6138BD5D
:101D2800080500202005002010B443788BB90378FB
:101D38003C4A02EB031283681360C368536072B6AF
:101D4800037C062B11D8DFE803F0090909101919DB
:101D580019000378344A02EB0312ECE7146841686F
:101D6800013901FA03F323441360437C062B15D889
:101D7800DFE803F00D0D0D1442424200146841687B
:101D88000139043B01FA03F3E31A1360EDE75468E1
:101D98004168013901FA03F32344536062B6417C78
:101DA800037C9B0643EA8173817843EA0163C17C23
:101DB80043EA81334168013943EA0113017D0B434A
:101DC8009360027801239340027C032A1DD9174AA5
:101DD800C2F81038427C032A1BD9144AC2F81838B2
:101DE800134A9268134218D1104AC2F804380F4AAD
:101DF8009362002010BC7047546841680139043B65
:101E080001FA03F3E31A5360C8E7084AC2F8143822
:101E1800E0E7064AC2F81C38E2E7044AC2F800388C
:101E2800E5E700BFE0010020E002002000000140DB
:101E3800D401002010B403780B4A02EB03120121ED
:101E4800994072B6936823F47F5323F03F034468A4
:101E5800013C007D40EA04100343936062B6034BE3
:101E68009962002010BC7047E0010020000001408A
:101E780008B543681B889BB283611C30FFF746FB9B
:101E880008BD000008B50248FFF7F2FF08BD00BF13
:101E98001800002008B50248FFF7EAFF08BD00BF98
:101EA8003800002008B50248FFF7E2FF08BD00BF70
:101EB80058000020431E0120984080B2014B18862C
:101EC800002070470024004072B63AB983899BB25B
:101ED80023EA0101818162B60020704783899BB2A1
:101EE80019438181F7E772B63AB903899BB223EAAD
:101EF8000101018162B60020704703899BB2194332
:101F08000181F7E7808880B27047008980B2704706
:101F1800018300207047818300207047F0B587B0A7
:101F280007460C4601AD184E0FCE0FC533682B601F
:101F3800164B03EBC7035B6833B1144800EBC700CB
:101F48000022214680689847A4F12F03012B15D859
:101F5800002203E00B8D9BB20BE00132042A10D85B
:101F680006AB03EB820353F8141C2F2CF2D08B8D95
:101F78009BB2088E0340F0D00B86EEE72046FFF7B1
:101F880099FF07B0F0BD00BFE8350000E00300206E
:101F980008B501210020FFF7C1FF08BD08B50221DF
:101FA8000120FFF7BBFF08BD08B503210220FFF79A
:101FB800B5FF08BD08B504210320FFF7AFFF08BD32
:101FC80008B505210420FFF7A9FF08BD08B50621BB
:101FD8000520FFF7A3FF08BD08B507210620FFF776
:101FE8009DFF08BD08B508210720FFF797FF08BD2A
:101FF80008B509210820FFF791FF08BD08B52F2172
:102008000920FFF78BFF08BD08B530210A20FFF72C
:1020180085FF08BD38B5C3689D8B01229A81436846
:102028003BB1ADB2044615F0010F03D115F0020F14
:1020380005D138BD0022012180689847F6E763681A
:1020480000220221A0689847F3E7000008B502487B
:10205800FFF7E0FF08BD00BF3C04002008B50248B8
:10206800FFF7D8FF08BD00BF4C04002008B50248A0
:10207800FFF7D0FF08BD00BF5C040020104B1B78A1
:10208800EBB10F4BDB68D3B110B572B60C4B5B6884
:102098001B8903F0010362B64BB90024084B1B6986
:1020A800234206D1064B5B68A4B21C8110BD0124F3
:1020B800F4E70348C368002221469847F2E77047CF
:1020C8006C04002008B5837CA3B90A460346C0689F
:1020D800198A012A08D0FFF71BFF003018BF01201A
:1020E80050B140F6054008BDFFF715FF003018BF96
:1020F8000120F5E7002008BD002008BD10B5044602
:1021080043681A8892B2C2F34201C1F1040189B24C
:10211800C2F3022200E019464B1E9BB281B1616AEC
:102128000029F8D06168A0690078088194F8200037
:10213800A1690144A161616A01396162EBE71A464C
:10214800531E9BB27AB1A26A002AF8D0E26961688C
:102158008988117094F82110E2690A44E261A26A40
:10216800013AA262EBE7A36A83B9636A73B90123F0
:1021780084F82C302378022B0BD0637A012B0DD0F6
:10218800236C1BB100221146606C984763681B885A
:1021980010BD00212046FFF795FFEEE704F115007A
:1021A800FFF7B4F9ECE7000008B50248FFF7A6FF0F
:1021B80008BD00BF3805002008B50248FFF79EFF9C
:1021C80008BD00BF8C05002008B50248FFF796FF40
:1021D80008BD00BFE005002008B5024BDB6B0220FC
:1021E800984708BD3805002008B5024BDB6B032073
:1021F800984708BD3805002008B5034BD3F8903040
:102208000420984708BD00BF3805002008B5034BD7
:10221800D3F890300520984708BD00BF3805002046
:1022280008B5034BD3F8E4300020984708BD00BF39
:102238003805002008B5034BD3F8E430012098474F
:1022480008BD00BF3805002001F00E01C1727047BB
:102258002C4B5A681389DBB213F0010F51D110B51A
:1022680003F00603042B10D0062B05D0022B28D030
:102278002548FFF74BF910BD918AC9B211F00E0F2E
:10228800F6D02048FFF7E0FFF2E71E49CB8B9BB260
:10229800898B8B4210D01B4B1B8B99420DD0108819
:1022A800184A5169138B5C1C1483C854D38B9BB296
:1022B80001339BB2D383DBE7FEE70021114B19837F
:1022C800EDE7104BD88C198D884201D30020D884B3
:1022D8000C4B5B8D9BB299420CD90A49086ACB8C8E
:1022E8005C1CCC84C35C13804B8D9BB201339BB2C6
:1022F8004B85BDE793889BB223F002039BB2938082
:10230800B6E77047780000208900002030B597B004
:1023180005460C465422174901A800F0DBF90420B1
:10232800FEF7AEFC144B984206D0144B984219D0D5
:1023380040F6045017B030BD04EB4404620001AB12
:102348001A446B68118819856968B2F90430528893
:1023580043EAC2236FEA43436FEA53439BB28B8439
:102368000020E7E704EB440462002A3201AB1A4478
:10237800E7E700BFFC3500000024F40040420F00EE
:102388002DE9F047894600230B604FF02C08234BBA
:1023980008FB003892B11146002288F811200A681B
:1023A800C8F814208A88A8F81C208A68C8F8202051
:1023B800CA88A8F82820012288F80A20DFF85CA03B
:1023C8002C2707FB00F70AEB070400256583258304
:1023D800E583E584A584238D638501266670217CC9
:1023E8004046FFF793FF6368A2899A816368E28990
:1023F8001A82C9F8008031460320FEF789FC636819
:1024080083F830601AF907305A0903F01F039E4019
:10241800034B43F822602846BDE8F0877800002087
:1024280000E100E008B50A4661B9416891F830302A
:1024380043F0010381F8303011460320FEF768FCB1
:10244800002008BD416891F8303003F0FE0381F8A0
:102458003030F1E790F901305A0903F01F030121E8
:1024680001FA03F32032044941F822300023437073
:1024780003701846704700BF00E100E0837883B11D
:10248800104B1B8B03F00E03002BF9D172B689B1E8
:102498000C4A13899BB243F06003138162B6002093
:1024A8007047084B1B8B03F00E03002BEED040F651
:1024B80008107047034A13899BB223F020039BB28C
:1024C8001381EBE78025004083785BB10A4B1B8BB7
:1024D80003F00E03002BF9D14CF6CC42064B9A813F
:1024E80000207047044B1B8B03F00E03002BF3D026
:1024F80040F60810704700BF8025004070B50346BD
:102508001A4C00EB4002A01800250D6001268670C9
:10251800A554174A128B12F0100F12D1144A1289BF
:1025280012F0200F0DD1134D03FA06F21A4402FAE5
:1025380006F42E192C5B0E4A14807488148100242A
:1025480014820A4A03EB4303D4180A2565704FF432
:102558008065094C25600124D4540860FFF7B4FF56
:10256800034608B140F60513184670BD80040020E4
:10257800802500405036000000E100E0436801F08B
:102588001F0119860020704710B50C4B5A68948DAE
:1025980004F01F04128D14401A7C14401B781BB1E0
:1025A800064BDB6803B124B921460448FFF7E6FF70
:1025B80010BD0022214601489847F5E78404002011
:1025C800034B1B681BB1024A1368013B1360704739
:1025D8003406002008B5FFF7F3FF08BD08B5FEF77D
:1025E80063F908BD08B500220B491046FFF7C8FE7D
:1025F800034608B1184608BD0421074B1868FFF7C1
:1026080085FE03460028F5D10121034B1868FFF722
:1026180009FF0346EEE700BF980400204FF420426C
:10262800014B1A60002070470000024008B5FEF711
:10263800BDFA0020FEF77EFF02210420FEF794FB7E
:1026480000F01CF8FFF7EAFFFFF7CCFF18B90448C1
:10265800FFF7C4FFFBE7034800F00BF8F7E700BFFC
:10266800783600005836000008B50020FEF7D8F884
:1026780008BD08B5FFF7F8FF08BD000000B583B036
:1026880001A90020FFF73AFF58B900210198FFF788
:10269800F5FE50B90198FFF7DDFE50B903B05DF8BB
:1026A80004FB0648FFF7E5FFEFE70548FFF7E1FF02
:1026B800F0E70448FFF7DDFFF0E700BF84360000CD
:1026C800BC360000D8360000014B1868704700BFC0
:1026D800A4000020844641EA000313F0030349D113
:1026E800403A23D30B6803604B6843608B68836070
:1026F800CB68C3600B6903614B6943618B69836174
:10270800CB69C3610B6A03624B6A43628B6A83625B
:10271800CB6AC3620B6B03634B6B43638B6B836343
:10272800CB6BC36340304031403ADBD230320BD3FD
:102738000B6803604B6843608B688360CB68C36039
:1027480010301031103AF3D20C3205D351F8043B53
:1027580040F8043B043AF9D2043208D0D2071CBF2F
:1027680011F8013B00F8013B01D30B880380604658
:10277800704700BF082A13D38B07B1D010F00303AA
:10278800AED0C3F10403D21ADB071CBF11F8013B1A
:1027980000F8013BA4D331F8023B20F8023B9FE745
:1027A800043AD9D3013A11F8013B00F8013BF9D2B8
:1027B8000B7803704B7843708B7883706046704752
:1027C80020F0030110F00300C0F1000051F8043BB1
:1027D80000F1040C4FEACC0C6FF000021CBF22FA87
:1027E8000CF213434FF0010C4CEA0C2C4CEA0C4C45
:1027F800A3EB0C0222EA030212EACC1204BF51F83E
:10280800043B0430F4D0C2F1000102EA0102B2FA3A
:1028180082F2C2F11F0200EBD200704770B5141E9D
:102828009AB005462ADB1A464FF4027300910491C8
:10283800ADF80C304FF6FF7611D0013C1E9B69466F
:1028480002940594ADF80E6000F00AF9421C01DA12
:102858008B232B600022009B1A701AB070BD1E9B40
:10286800694602940594ADF80E6000F0F9F8431C2F
:1028780001DB1AB070BD8B232B60FAE78B234FF076
:10288800FF302B60F5E700BF10B5064C82B000930F
:10289800246813460A4601462046FFF7BFFF02B0E8
:1028A80010BD00BFA40000202DE9F0478E688046C7
:1028B8009E420C461D461746086828D8B1F80CC039
:1028C8001CF4906F31D0D1E9041606EB460606EBEE
:1028D800D676A0EB0109013376104B44B342324659
:1028E80084BF1E4632461CF4806F20D011464046F5
:1028F80000F0C6FC824670B34A462169FFF7EAFE3B
:10290800A38923F4906343F08003A38114E01E4657
:102918002A46394600F0FEFB0020A2682368961B71
:102928002B44A6602360BDE8F0873546F0E74046B3
:1029380000F00AFD824650B1A6EB09030AEB090034
:102948006661C4F810A02060A3602E46E0E7216904
:10295800404600F041FC0C23C8F80030A3894FF032
:10296800FF3043F04003A381DDE700BF2DE9F04FBE
:10297800936883B09046002B6CD0176882460C464B
:10298800086808378D6842E0A38913F4906F2DD04A
:10299800D4E9041505EB4505A0EB010B05EBD5754E
:1029A800701C6D105844A8422A4684BF05462A4622
:1029B8005B0536D51146504600F062FC00283AD037
:1029C8005A4621690190FFF785FEA289019B22F4EE
:1029D800906242F08002A281A5EB0B0203EB0B0090
:1029E8006561B346354623612060A2605A46494670
:1029F80000F090FBD8F80830A2682068551B5844AE
:102A08009E1BA5602060C8F808601EB3083757E908
:102A18000296AB46002EF9D0AE42B5D23546B34643
:102A2800E4E7504600F090FC03460028D4D1216921
:102A3800504600F0D1FB0C2300224FF0FF30CAF8BB
:102A48000030A38943F04003A381C8E9012203B001
:102A5800BDE8F08F0020C8F8040003B0BDE8F08F8F
:102A68002DE9F04F884689899FB00D0614460290DB
:102A780004D5D8F81020002A00F017810020202162
:102A880030220593237801260B908DF83110914D53
:102A98008DF83220002B00F09680252BA24603D11A
:102AA80019E0252B00F0C2801AF8013F002BF8D15D
:102AB800BAEB040B00F0878022465B464146029839
:102AC800FFF7F2FE01307ED00B9B9AF800205B44A2
:102AD8000B93002A77D000234FF0FF320AF1010A46
:102AE8000693CDE908338DF85B301C93079206E016
:102AF800CA46069B401B06FA00F018430690D146CA
:102B0800052219F8011B284600F0BEFACB4600281A
:102B1800EED1069BD80644BF20228DF85B2019070A
:102B280048BF2B229AF8001048BF8DF85B202A294D
:102B380053D0A1F13003092B00F2AC80099A02E0CE
:102B4800CA4609F1010999F8001002EB820203EB69
:102B58004202A1F13003092BCB46F1D90AF102094F
:102B680009922E2946D05C4C0322204600F08CFAAC
:102B7800002858D04021001B069A01FA00F00243B1
:102B8800069209F1010499F80030062219465348C3
:102B98008DF8303000F078FA002859D0504B002BCF
:102BA80049D005AB009342464E4B06A90298AFF3B5
:102BB800008007467A1C06D00B9B3B440B93237876
:102BC800002B7FF46AAFB8F80C305B064CBF4FF0AF
:102BD800FF300B981FB0BDE8F08F059A11680432DA
:102BE800002905922EDB09919AF801100AF10209D1
:102BF8002E29B8D19BF801102A2933D1059B0BF156
:102C080002001A680433002A079205939BF8021001
:102C18000BF1030940DB304C83460322204600F0C9
:102C280033FA0028A6D14C46D946ACE7BAEB040BD8
:102C38003FF451AF40E7059B073323F00703083300
:102C48000593B9E7494243F0020309910693CBE79C
:102C580005AB00934246234B06A9029800F0D2F830
:102C68000746A7E70022A1F130000928079201D9F9
:102C780017E0D94699F8011002EB820200EB4202F4
:102C8800A1F13000092809F1010BF2D909F1020973
:102C9800079268E7D34664E74FF0FF32834607920E
:102CA80061E7CB4609F101095DE74021039300F094
:102CB800E7FA039BC8F80000C8F8100018B14022D2
:102CC800C8F81420DAE60C23029A4FF0FF3013609C
:102CD80080E700BFF0360000F8360000FC36000040
:102CE80000000000B12800002DE9F0470C460969F2
:102CF800A56891468D42B8BF0D46156094F84310FB
:102D080006461F46DDF8208011B16A1CC9F800206C
:102D1800236899065FD5D9F800200232C9F8002047
:102D2800236813F0060F19461DD1E1688A1A002A94
:102D3800D8BF194617DD002504F1190A05E0E36834
:102D4800D9F800209B1AAB420CDD012352463946C4
:102D58003046C047013005F10105F0D14FF0FF3092
:102D6800BDE8F087216894F84330003318BF012389
:102D78008A060AD53021E21882F8431094F84510E3
:102D88005A1C224482F84310023304F143023946A4
:102D98003046C0470130E1D0D4E902202368D9F891
:102DA800005003F00603042B21691AD08A421FDD64
:102DB8004FF00009521A914400251A3401E04D459C
:102DC80016D00123224639463046C047013005F166
:102DD8000105F4D1C2E713F0060F0CD1D9F8002091
:102DE800A3E7401B8A4220EAE079E3DC0028E3DC21
:102DF8000020BDE8F08794F84330003318BF012362
:102E0800C3E700BF2DE9F0430C46097E85B06E2963
:102E180006461746984604F1430C0C9D4AD00FD835
:102E2800632900F0FE8000F2BE8000294ED05829A8
:102E380040F0E08084F845102268DFF844E212E0B0
:102E4800732900F0C5807AD86F2900F0DA807029DC
:102E580040F0D080206840F0200222607823DFF81C
:102E680024E284F845302B68191D1B682960150673
:102E780002D4500648BF9BB2D10744BF42F020029B
:102E88002260002B6CD1D4E9001284F84330002A68
:102E980021F020032360A2607DDB21F02401216062
:102EA8001021002A78D1654608294ED0ACEB0503DD
:102EB80023610EE02B682268181D616928601506D9
:102EC8001B6802D4500600F1C680196000236546CD
:102ED8002361CDF800803B4603AA21463046FFF720
:102EE80003FF013020D02A46236939463046C047BF
:102EF800013019D0226803989207E36819D51A1A85
:102F0800002A16DD002504F1190904E0E368039896
:102F18001A1AAA420DDD01234A4639463046C047EF
:102F2800013005F10105F1D14FF0FF3005B0BDE8E2
:102F3800F0839842B8BF184605B0BDE8F0837529FC
:102F48005FD0782956D1226888E72368DB07ADD59A
:102F5800626823699A42A9DC3023013D2B70A5E7FA
:102F68001021002284F843206268002AA2602CDB2A
:102F7800206820F004002060002B92D06546B3FB47
:102F8800F1F201FB12331EF80300134605F8010D98
:102F9800002AF4D188E710219EF8003004F1420598
:102FA80084F8423080E7642901D0692922D1206859
:102FB8002B68010603F1040245D51B682A60002B23
:102FC8004BDB0A21DFF8B8E0CEE7002BD6D1E3E7E8
:102FD8002B686268191D29601D680021284600F0C9
:102FE80053F8002845D0401B60602061002384F816
:102FF80043306EE7012384F84210236104F142054F
:10300800F4E720682B6810F0800F03F1040213D056
:103018001B682A606F290CBF08210A21DFF860E0CD
:103028009FE701222B68191D1B68296004F14205DE
:1030380084F842302261D9E7400653BF1B682A60F2
:103048001B882A60E6E7410653BF1B682A60B3F96C
:1030580000302A60B3E7198038E72D2162685B42A7
:10306800002A84F84310A26005DB0A21DFF810E08B
:103078007FE76068B9E7DFF808E00A217EE700BF6C
:103088000437000018370000830770B4CDB23DD074
:10309800541E0AB30378AB421FD0431C05E014F159
:1030A800FF3419D30278AA4217D013F0030F184639
:1030B80003F10103F3D1032C11D84CB30378AB42CD
:1030C8000BD00444431C02E00278AA4205D09C427B
:1030D800184603F10103F7D1002070BC704706467B
:1030E8000A0292B22A4342EA024233683046534007
:1030F800A3F1013121EA030313F0803F06F104062E
:10310800DCD1043C032C3046EFD8D6E71446D2E78E
:103118002046E2E78842F0B40DD98B1883420AD9D9
:10312800841832B1224613F8014D994202F8014D34
:10313800F9D1F0BC70470F2A48D940EA01039B0730
:1031480046D1A2F110031B0901F1200707EB031771
:1031580001F1100400F1100554F8106C103445F812
:10316800106C54F81C6C103545F81C6C54F8186C2D
:1031780045F8186C54F8146CBC4245F8146CEBD143
:10318800013302F00F051B01032D1944034421D913
:103198000F462C461E1F57F804CB043C032C46F858
:1031A80004CFF8D82C1F24F003040434234421440A
:1031B80002F00302002ABCD0013B0A4411F8014B7B
:1031C800914203F8014FF9D1F0BC70470346F1E78B
:1031D8000346F1E72A46EDE7002934D038B551F81F
:1031E800043C0C1F002BB8BFE418054600F0E4F8B7
:1031F800224B1A682AB1A2420DD92168601882426E
:1032080035D0626028461C60BDE8384000F0D6B86A
:10321800A34203D81A465368002BF9D111685018F5
:10322800A04218D010D821686018834203BFD3E9A0
:1032380000030918C4E90013636054602846BDE818
:10324800384000F0BBB870470C2328462B60BDE817
:10325800384000F0B3B82068014450188342116028
:10326800ECD1D3E900030144C2E90013E6E7D2E94F
:1032780000020144C4E90012C4E700BF9C04002016
:10328800F8B5CD1C25F0030508350C2D38BF0C25E5
:10329800002D06463ADBA94238D82A4F00F08CF8B0
:1032A8003A6852B113685B1B04D433E023685B1B94
:1032B80025D522465468002CF8D1796800293BD0DE
:1032C8002946304600F066F8431C2AD0C41C24F076
:1032D8000304A04205D0211A304600F05BF8013003
:1032E8001FD02560304600F069F804F10B0020F08B
:1032F8000700231DC31A01D05A42E250F8BD0B2B18
:103308000BD8A24215D063685360EBE70C2300206A
:103318003360F8BD0B2B0BD9144623601C44256081
:10332800E0E70C233046336000F048F80020F8BD91
:1033380054683C601446D5E7304600F02BF87860B6
:10334800BEE700BF9C040020E1B1F8B51446E2B125
:1033580006460D4600F034F8A04202D32F46384600
:10336800F8BD21463046FFF78BFF07460028F6D008
:1033780022462946FFF7AEF930462946FFF72CFFCB
:103388003846F8BD1146FFF77BBFFFF725FF2746F4
:10339800E5E700BF38B50023064C0546084623601C
:1033A800FDF740FA431C00D038BD2368002BFBD042
:1033B8002B6038BDA4040020704700BF704700BFD1
:1033C80051F8043C181F002BBCBF0B58C01870479D
:1033D800537461636B206672616D653A0A00000080
:1033E800205230203D2020253038580A00000000A7
:1033F800205231203D2020253038580A0000000096
:10340800205232203D2020253038580A0000000084
:10341800205233203D2020253038580A0000000073
:1034280020523132203D20253038580A0000000053
:10343800204C52203D2020253038580A000000003A
:10344800205043203D2020253038580A0000000035
:1034580020505352203D20253038580A00000000E3
:103468004653522F4641523A0A0000002043465321
:1034780052203D2020253038580A00002048465365
:1034880052203D2020253038580A00002044465359
:1034980052203D2020253038580A0000204146534C
:1034A80052203D2020253038580A0000204D4D4636
:1034B8004152203D20253038580A0000204246411C
:1034C80052203D2020253038580A00004D6973638A
:1034D8000A000000204C522F4558435F524554556E
:1034E800524E3D20253038580A0000005B48617272
:1034F800644661756C745D0A000000005B42757378
:103508004661756C745D0A005B5573616765466159
:10351800756C745D0A000000010002002D140000A3
:103528000101000000000000010203003513000043
:10353800010300000000000001040000000000007A
:10354800020000000000000002010100A1120000BA
:10355800020204003513000002030000000000000E
:103568000204000000000000030004000000000046
:10357800030100000000000003020000000000003A
:1035880003030100A112000003040500DD10000080
:103598000400000000000000040103000000000017
:1035A8000402000000000000040302002D140000C3
:1035B800040402002D140000050002002D14000070
:1035C800050100000000000005020300351300009B
:1035D80005030100A112000005040000000000001E
:1035E800000002404000024080000240C00002404B
:1035F8000001024031000100810013000100F702C0
:10360800040003000B0208000100AE0003000100E3
:10361800930302000100AE0001000100AE000100AA
:1036280003000B0201000100050501000100000074
:10363800010001000000010001000000010001007C
:10364800000001000100000000104300000000001D
:103658002E2E2F7372632F6D61696E2E633A32318D
:10366800353A20756172745F496E69740000000014
:103678005465737420313233200A00006164695F35
:103688005744545F496E6974206661696C65642C9F
:1036980020796F752772652070726F6261626C792C
:1036A8002063616C6C696E67206974207477696344
:1036B800650000006164695F5744545F5365744551
:1036C8006E61626C65206661696C6564000000006B
:1036D8006164695F5744545F556E496E697420662A
:1036E80061696C6564000000232D302B2000000008
:1036F800686C4C00656667454647000030313233D8
:1037080034353637383941424344454600000000D5
:10371800303132333435363738396162636465663F
:04372800000000009D
:10372C007856341214010020000000001010101004
:10373C000220020202020110000000000080014081
:10374C0000000000000004000E000B000D00000043
:10375C00000000000000000000000000008101409B
:10376C0000000400000002000D000B002900000006
:10377C0000000000000000000000000000C001403C
:10378C0000000820004000000E0009003700000077
:10379C0000000000000000000E000000005000407F
:1037AC000100000007000000000000000000000005
:1037BC0000000000000000000000000000000000FD
:1037CC0000000000A8000020000000000000000025
:1037DC0000000000000000000000000000000000DD
:1037EC0000000000000000000000000000000000CD
:1037FC0000000000000000000000000000000000BD
:10380C0000000000000000000000000000000000AC
:10381C00000000000000000000000000000000009C
:0C382C00000000000000000032547698FC
:04000003000001797F
:00000001FF
