:10000000004000207D0D0000B90D000097020000A7
:10001000E1020000E50200002D030000C10E000017
:10002000C10E0000C10E0000C10E000075030000EB
:1000300079030000C10E00007D030000751F000061
:10004000291F0000011700000D17000019170000FC
:1000500025170000311700003D1700004917000068
:100060005517000061170000C50D0000BD17000006
:10007000CD1700003D160000DD1B0000191900001F
:1000800039190000D10D0000DD0D0000E90D000060
:1000900091190000A5190000491900005919000024
:1000A000691900007D190000F50D0000010E000027
:1000B0000D0E0000190E0000250E0000A112000018
:1000C000CD12000091140000310E00003D0E000022
:1000D000490E0000550E0000610E00006D0E00007C
:1000E000DD1700004D16000029190000790E0000F0
:1000F000C10E0000C5130000850E00006D17000042
:1001000079170000C10E0000B10F0000751000004B
:10011000F1100000ED110000551400005D16000004
:10012000910E00009D0E0000ED170000A90E0000CA
:10013000B50E0000004000208D0200009302000078
:1001400097020000E1020000E50200002D0300001C
:10015000000000000000000000000000000000009F
:100160007503000079030000000000007D0300001B
:10017000751F00009103000000B583B000F09CFBE8
:10018000304B314A1360314A1360314B314A03E03E
:1001900011681960043304322F498B42F8D32A4B7B
:1001A0001A682E4B9A4200D0FEE7284B1A682C4B57
:1001B0009A42F9D1234B2B4A13602B4A13602B4BE5
:1001C00002E000221A600433294A9342F9D3254BF6
:1001D0001B6813B9244B1B6803B1FEE700F078FBE2
:1001E000694601A800F044FB224B234CE41AA410FA
:1001F0000025AC4214DC214B214CE41AA41000254C
:10020000AC4213DC0099019801F0C0FE05461D4B7D
:100210001D4CE41AA410002C0EDC284600F004FB50
:10022000144B53F8253098470135E2E7134B53F848
:10023000253098470135E3E7013C124B53F8243051
:100240009847E8E7BABADECA00000020FC000020A8
:1002500000000020242F00000001002078563412F6
:1002600032547698000100204C0600200001002046
:100270005006002028080000280800002808000078
:1002800028080000280800002808000008B5FFF72B
:1002900073FF00BEFEE71EF0040F0CBFEFF30880F3
:1002A000EFF309807146374A10472DE9F04182B0DB
:1002B00004468846084B5E6B9F6B9D6A074800F0BA
:1002C000DFFACDF800803B4632462946204600F052
:1002D00003FB00BEFEE700BF00ED00E0F02D0000D4
:1002E00000BEFEE71EF0040F0CBFEFF30880EFF333
:1002F00009807146244A10472DE9F04182B0044636
:100300008846084B5E6B9F6B9D6A074800F0B8FA01
:10031000CDF800803B4632462946204600F0DCFA04
:1003200000BEFEE700ED00E0002E00001EF0040F0E
:100330000CBFEFF30880EFF309807146134A1047B2
:100340002DE9F04182B004468846084B5E6B9F6BF6
:100350009D6A074800F094FACDF800803B4632468B
:100360002946204600F0B8FA00BEFEE700ED00E0A6
:100370000C2E000000BEFEE700BEFEE700BEFEE75A
:1003800070470000AB020000F902000041030000CA
:02039000FEE786
:10080000242F0000000000200001002094030000BD
:100810000000001000000010000100205006002021
:080820000000001000000010B0
:10082800FEE7000008B503460C4A12685AB10B4AA5
:100838001068033323F003030344094A934206D89C
:10084800064A136008BD0749044A1160EFE701F042
:10085800FBFB0C2303604FF0FF3008BD04010020B0
:10086800003C00205006002001230360014B0B6070
:10087800704700BF040000200FB400B583B004AB7C
:1008880053F8042B01938021064801F091FC0028BD
:1008980003DD0146034800F007F803B05DF804EBF8
:1008A80004B070470C0100204FF0FF307047000083
:1008B80008B500F023F9024B024A9A6008BD00BF50
:1008C80000ED00E00000000008B500F07BF808BD6E
:1008D800F8B504460D4617461E462748FFF7CCFFD5
:1008E80021682648FFF7C8FF61682548FFF7C4FF5D
:1008F800A1682448FFF7C0FFE1682348FFF7BCFF61
:1009080021692248FFF7B8FF61692148FFF7B4FF62
:10091800A1692048FFF7B0FFE1691F48FFF7ACFF66
:100928001E48FFF7A9FF29461D48FFF7A5FF1D4CE4
:10093800E16A1D48FFF7A0FF216B1C48FFF79CFFE9
:10094800E16B1B48FFF798FF15F0800F0AD115F4EB
:10095800004F0CD11748FFF78FFF06991648FFF78D
:100968008BFFF8BD39461548FFF786FFEFE731469C
:100978001348FFF781FFEDE7D42C0000E42C0000BA
:10098800F42C0000042D0000142D0000242D00007C
:10099800342D0000442D0000542D0000642D00006B
:1009A800702D000000ED00E0802D0000902D00006B
:1009B800A02D0000D02D0000D82D0000B02D000083
:1009C800C02D0000184B1B8803F00303032B2AD803
:1009D800DFE803F002060A25144A154B1A6070472F
:1009E800124A134B1A6070470F4A1388938903F011
:1009F8003F010E4B03FB01F3928902F0C002402A2B
:100A08000BD0802A00D19B08074A928912F4807F74
:100A180000D05B08064A136070475B08F4E7054B93
:100A28001A68034B1A607047008002400024F400E3
:100A3800900100208C01002010B514284ED8DFE862
:100A480000F04A0B0F13171A1D202326292C2F32CA
:100A580035383B3E414447004FF400631C463DE0B7
:100A680000234FF4807439E04FF480731C4635E05E
:100A78000023F02432E01023F0242FE02023F02478
:100A88002CE03023F02429E04023F02426E05023F2
:100A9800F02423E06023F02420E07023F0241DE0FC
:100AA8008023F0241AE09023F02417E0A023F024F8
:100AB80014E0B023F02411E0C023F0240EE000235A
:100AC80003240BE00123032408E00223032405E0A8
:100AD80003231C4602E000234FF4006472B6064963
:100AE8000A8892B222EA040213439BB20B8062B6D0
:100AF800FFF768FF10BD00BF0080024008B572B65E
:100B08001D4B1E4A9A604FF4E0225A62BFF36F8F62
:100B1800BFF34F8F62B61A4A4CF614339381138A87
:100B28009BB243F003031382154B1B8A13F4007F17
:100B3800FAD0144B1A8892B222F0030292B21A80A9
:100B480000221A8041F210029A8088229A818F220C
:100B58001A824FF4C0729A820120FFF76DFF084A8B
:100B68004CF614339381138A9BB223F008039BB28B
:100B78001382FFF727FF08BD00ED00E0000000002A
:100B8800002400400080024070B50546FFF71AFFB8
:100B98000F2D20D8DFE805F00808191919191919B7
:100BA8002222222222222222124B9B8803F03F0378
:100BB800012B1AD00F4B9C8804F03F049B8813F03C
:100BC800800F15D0A4080C4E05E00C4B1E68094B8D
:100BD8009C88C4F30524B6FBF4F070BD074B1E686F
:100BE800044B9C8804F03F04F5E70124024EF2E729
:100BF800014EF0E700800240008793039001002037
:100C0800072815D8DFE800F0120406080A0C0E10B1
:100C180080230DE020230BE0102309E0082307E0E0
:100C2800042305E0022303E0012301E04FF480736D
:100C380072B641B907498A8A92B213439BB28B8232
:100C480062B60020704703498A8A92B222EA0303F7
:100C58008B82F5E70080024010B50F280BD8DFE83B
:100C680000F008081818181818181C1C1C1C1C1C44
:100C78001C1CCA01802472B609498B889BB223EADE
:100C8800040313439BB28B8062B6FFF79BFE0020E0
:100C980010BD0A024FF47C54EDE78AB23F24EAE71C
:100CA8000080024070B439B10C460021032806D8F0
:100CB800DFE800F0410B0B070221204CF6E7002685
:100CC80004E041F00401002600E0042672B61C4D41
:100CD80044F65903AB804FF27B23AB802B881BB2C1
:100CE80023F0030303439BB22B80164803690B438D
:100CF80023EA06030361EFF31181520182F311889D
:100D08000AE0114B1B8B03F00E03002BF9D1BFF344
:100D18004F8F30BF62B672B62378002BF1D0002314
:100D2800237081F31188074A136923F002031361C2
:100D3800BFF34F8F62B6002070BC7047940100204B
:100D48000024004000ED00E080250040034610B17B
:100D580001221A70704772B6044A136923F002031D
:100D68001361BFF34F8F62B6014BF1E700ED00E06E
:100D780094010020684620F007018D4681B400AF39
:100D8800094B1B6883F30888084A44F65903938083
:100D98004FF27B23938013886FEA43436FEA5343F0
:100DA8009BB21380FEE700BF000000000024004053
:100DB800684620F007018D4601B4FEE7684620F03A
:100DC80007018D4601B4FEE7684620F007018D460D
:100DD80001B4FEE7684620F007018D4601B4FEE73E
:100DE800684620F007018D4601B4FEE7684620F00A
:100DF80007018D4601B4FEE7684620F007018D46DD
:100E080001B4FEE7684620F007018D4601B4FEE70D
:100E1800684620F007018D4601B4FEE7684620F0D9
:100E280007018D4601B4FEE7684620F007018D46AC
:100E380001B4FEE7684620F007018D4601B4FEE7DD
:100E4800684620F007018D4601B4FEE7684620F0A9
:100E580007018D4601B4FEE7684620F007018D467C
:100E680001B4FEE7684620F007018D4601B4FEE7AD
:100E7800684620F007018D4601B4FEE7684620F079
:100E880007018D4601B4FEE7684620F007018D464C
:100E980001B4FEE7684620F007018D4601B4FEE77D
:100EA800684620F007018D4601B4FEE7684620F049
:100EB80007018D4601B4FEE7684620F007018D461C
:100EC80001B4FEE738B50446806C69B11546C160C7
:100ED800426000F001FB08B141F20B50A4F85450F5
:100EE800002384F84D3038BD00F07CFB0028F7D093
:100EF80041F20B50F4E7000010B5013903290ED870
:100F0800DFE801F00B0205083320154C07E0342018
:100F1800144C04E03520144C01E03220134C83B902
:100F2800236823EA020222602368B3B9430900F068
:100F38001F00012202FA00F020330D4A42F8230074
:100F48000BE023681A432260420900F01F000123C6
:100F580003FA00F0064B43F82200002010BD00BF42
:100F68009000084094000840980008408C00084011
:100F780000E100E00139032906D8DFE801F00207A3
:100F88000B0F084BC3F8A02000207047054BC3F88F
:100F9800A420F9E7034BC3F8A820F5E7014BC3F8F1
:100FA800AC20F1E70000084070B52F4BDA68D2F8A2
:100FB800A030D2F88C2013F0010F04D012F0010FEA
:100FC80022D1002400E0002413F0020F04D012F014
:100FD800020F01D044F0020413F0040F04D012F001
:100FE800040F01D044F0040413F0080F04D012F0E9
:100FF800080F01D044F0080413F0100F06D012F0C7
:10100800100F2AD1002502E00124DDE7002513F0A6
:10101800200F04D012F0200F01D045F0200513F066
:10102800400F04D012F0400F01D045F040050E4BA0
:101038005B6A2BB144EA05010B4A926A11420ED150
:10104800094E00232A4601213046FFF755FF224664
:1010580001213046FFF78EFF70BD1025D7E700222B
:1010680001489847ECE700BFBC04002010B51D4BB1
:10107800DA68D2F8A430D2F8902013F0010F04D027
:1010880012F0010F27D1002400E0002413F0020F12
:1010980004D012F0020F01D044F0020413F0040F40
:1010A80004D012F0040F01D044F0040413F0080F28
:1010B80004D012F0080F01D044F00804094BDB6A91
:1010C8001BB1084A126B144207D122460221054877
:1010D800FFF750FF10BD0124D8E700222146014840
:1010E8009847F2E7BC04002070B53C4BDA68D2F8A8
:1010F800A830D2F8942013F0010F06D012F0010F97
:101108001FD001243549CC7100E0002413F0020FF0
:1011180004D012F0020F01D044F0020413F0040FBF
:1011280004D012F0040F01D044F0040413F0080FA7
:1011380009D012F0080F49D00120284988710825E4
:1011480002E00024E2E7002513F0100F04D012F0AB
:10115800100F01D045F0100513F0200F04D012F045
:10116800200F01D045F0200513F0400F08D012F0F1
:10117800400F05D044F0400441F2085017498880D8
:1011880013F0800F08D012F0800F05D044F08004CF
:1011980041F20752114B9A80114E3046FFF7D6FDA7
:1011A800F36933B144EA0501A6F11802926B1142C2
:1011B8000ED10A4E00232A4603213046FFF79CFE33
:1011C800224603213046FFF7D5FE70BD0025BBE758
:1011D8000022A6F118009847EBE700BFBC040020E6
:1011E800D404002070B52B4BDA68D2F8AC30D2F8B2
:1011F800982013F0010F04D012F0010F1ED1002423
:1012080000E0002413F0020F04D012F0020F01D006
:1012180044F0020413F0040F04D012F0040F01D0BC
:1012280044F0040413F0080F0AD012F0080F2AD073
:1012380041F20A5017498880082502E00124E1E7B5
:10124800002513F0100F08D012F0100F05D045F04C
:10125800100541F209520F4B9A800E4BDB6B2BB1F4
:1012680045EA04010B4A126C11420ED1094E0023C3
:10127800224604213046FFF73FFE2A460421304625
:10128800FFF778FE70BD0025DBE70022014898478C
:10129800ECE700BFBC04002008B54FF00042074B44
:1012A800C3F88020064B012283F84C209A71DB6931
:1012B8001BB1002211460248984708BD00E100E032
:1012C800BC04002070B5314BB3F85460B3F8562015
:1012D800002A48D0B3F85C305BB32C4B196DB3F8D7
:1012E800583001EB43052A4801609A421BD8002177
:1012F800264BA3F856100021244BA3F85C10244B6E
:1013080019682248FFF7DEFD0122224B1A70224C91
:101318002046FFF71BFDA36823B12A463146A4F1F6
:101328001800984770BDD21A1849A1F856201A46D5
:10133800E1E7164B1D6DB3F8581005EB4101144851
:101348000160B3F85A309A4207D800200F49A1F833
:1013580056000E49A1F85C30D1E7D21A0B49A1F822
:1013680056201A46F5E70B4B1B7863B1084B1D68EE
:1013780001230A4AC2F88430044A82F84D30002218
:10138800044B1A70C3E7014B1D6DF1E7BC04002044
:101398009801002095010020D404002000E100E01D
:1013A80072B6406883889AB201F47C431BB2134337
:1013B8009BB2838062B600207047000010B5224BB4
:1013C8001B78002B32D0204BDB687BB372B61E4BE8
:1013D8005A68918813889BB20B4003F47C4262B62A
:1013E80012F4004F27D1002413F4804F02D044F4A4
:1013F8008044A4B213F4005F02D044F40054A4B2B1
:1014080013F4805F02D044F48054A4B213F4006F44
:1014180002D044F40064A4B213F4806F02D044F400
:101428008064A4B2084B1B8A1C4207D12146064897
:10143800FFF7B6FF10BD4FF40044D5E70248C36874
:10144800002221469847F1E79C01002008B50D4B82
:1014580001221A725A68516B1B783BB1CAB2094B08
:10146800DB681BB10748007C024206D1054B5B686C
:101478001A6B5A63BFF34F8F08BD0022C9B20148E7
:101488009847F3E7B001002038B5114B1C694CB9F7
:1014980072B6104A0023936053600D4A1372D360EA
:1014A80062B638BDB4F5806F28BF4FF480641D461E
:1014B800DB680848836044600123037500F00CF87A
:1014C800EB6803EB8403EB602B691B1B2B6138BDB6
:1014D8001C0500203405002010B443788BB903782C
:1014E8003C4A02EB031283681360C368536072B608
:1014F800037C062B11D8DFE803F009090910191934
:1015080019000378344A02EB0312ECE714684168C7
:10151800013901FA03F323441360437C062B15D8E1
:10152800DFE803F00D0D0D144242420014684168D3
:101538000139043B01FA03F3E31A1360EDE7546839
:101548004168013901FA03F32344536062B6417CD0
:10155800037C9B0643EA8173817843EA0163C17C7B
:1015680043EA81334168013943EA0113017D0B43A2
:101578009360027801239340027C032A1DD9174AFD
:10158800C2F81038427C032A1BD9144AC2F818380A
:10159800134A9268134218D1104AC2F804380F4A05
:1015A8009362002010BC7047546841680139043BBD
:1015B80001FA03F3E31A5360C8E7084AC2F814387B
:1015C800E0E7064AC2F81C38E2E7044AC2F80038E5
:1015D800E5E700BFD0010020D00200200000014054
:1015E800C401002010B403780B4A02EB0312012156
:1015F800994072B6936823F47F5323F03F034468FD
:10160800013C007D40EA04100343936062B6034B3B
:101618009962002010BC7047D001002000000140F2
:1016280008B543681B889BB283611C30FFF78EFBAB
:1016380008BD000008B50248FFF7F2FF08BD00BF6B
:101648000C00002008B50248FFF7EAFF08BD00BFFC
:101658002C00002008B50248FFF7E2FF08BD00BFD4
:101668004C000020431E0120984080B2014B188690
:1016780000207047002400400183002070478183C8
:1016880000207047F0B587B007460C4601AD184EEC
:101698000FCE0FC533682B60164B03EBC7035B688F
:1016A80033B1144800EBC7000022214680689847F0
:1016B800A4F12F03012B15D8002203E00B8D9BB258
:1016C8000BE00132042A10D806AB03EB820353F86F
:1016D800141C2F2CF2D08B8D9BB2088E0340F0D0B7
:1016E8000B86EEE72046FFF7BDFF07B0F0BD00BF51
:1016F8001C2E0000D003002008B501210020FFF7B0
:10170800C1FF08BD08B502210120FFF7BBFF08BDD6
:1017180008B503210220FFF7B5FF08BD08B504216D
:101728000320FFF7AFFF08BD08B505210420FFF728
:10173800A9FF08BD08B506210520FFF7A3FF08BDCE
:1017480008B507210620FFF79DFF08BD08B5082149
:101758000720FFF797FF08BD08B509210820FFF704
:1017680091FF08BD08B52F210920FFF78BFF08BDA1
:1017780008B530210A20FFF785FF08BD38B5C368D2
:101788009D8B01229A8143683BB1ADB2044615F0A6
:10179800010F03D115F0020F05D138BD0022012138
:1017A80080689847F6E7636800220221A068984796
:1017B800F3E7000008B50248FFF7E0FF08BD00BFE7
:1017C8002C04002008B50248FFF7D8FF08BD00BF69
:1017D8003C04002008B50248FFF7D0FF08BD00BF51
:1017E8004C040020104B1B78EBB10F4BDB68D3B1D6
:1017F80010B572B60C4B5B681B8903F0010362B627
:101808004BB90024084B1B69234206D1064B5B6881
:10181800A4B21C8110BD0124F4E70348C368002268
:1018280021469847F2E770475C04002008B5837C9E
:10183800A3B90A460346C068198A012A08D0FFF7E7
:101848001BFF003018BF012050B140F6054008BD0D
:10185800FFF715FF003018BF0120F5E7002008BD8D
:10186800002008BD10B5044643681A8892B2C2F336
:101878004201C1F1040189B2C2F3022200E0194613
:101888004B1E9BB281B1616A0029F8D06168A069DA
:101898000078088194F82000A1690144A161616A77
:1018A80001396162EBE71A46531E9BB27AB1A26A0C
:1018B800002AF8D0E26961688988117094F82110CB
:1018C800E2690A44E261A26A013AA262EBE7A36A0A
:1018D80083B9636A73B9012384F82C302378022B07
:1018E8000BD0637A012B0DD0236C1BB1002211465B
:1018F800606C984763681B8810BD00212046FFF77D
:1019080095FFEEE704F11500FFF720FAECE7000079
:1019180008B50248FFF7A6FF08BD00BF4C05002028
:1019280008B50248FFF79EFF08BD00BFA0050020CC
:1019380008B50248FFF796FF08BD00BFF405002070
:1019480008B5024BDB6B0220984708BD4C05002008
:1019580008B5024BDB6B0320984708BD4C050020F7
:1019680008B5034BD3F890300420984708BD00BF52
:101978004C05002008B5034BD3F890300520984754
:1019880008BD00BF4C05002008B5034BD3F8E43070
:101998000020984708BD00BF4C05002008B5034B40
:1019A800D3F8E4300120984708BD00BF4C0500205B
:1019B80001F00E01C17270472DE9F04105460E464F
:1019C8009046837A002B40D0818B438BC91A09B289
:1019D8009142A8BF1146002308E068696A8B541C2D
:1019E8006C83825C327001331BB201368B42F4DBAC
:1019F800884510DDA8EB010212B200236B8308E0D2
:101A08006869698B4C1C6C83415C317001331BB273
:101A180001369342F4DB95F90030590903F01F03AE
:101A2800012202FA03F31748203140F82130EB8BEA
:101A38009BB2A3EB08039BB2EB8395F900305909DD
:101A480003F01F039A4040F82120AB7ABBB9002766
:101A580013E014F0010F0AD16B689C8AE4B214F009
:101A68000E0FF6D021462846FFF7A2FFF1E76B6874
:101A78001B88337001373FB201364745ECDB002045
:101A8800BDE8F08100E100E0F0B4837A002B44D097
:101A9800058D838CED1A2DB29542A8BF15460023FB
:101AA80008E0066A848C671C87840F7837550133F1
:101AB8001BB20131AB42F4DBAA420FDD541B24B246
:101AC8000023838408E0066A858C6F1C87840F785E
:101AD800775501331BB20131A342F4DB90F9003092
:101AE8005E0903F01F03012404FA03F3144D2036A2
:101AF80045F82630438D9BB29B1A9BB243854668B6
:101B0800B3889BB243F00203B38090F900305E09BA
:101B180003F01F039C4045F82640837A63B90025EB
:101B280008E043689C8A14F0200FFAD00C781C80D7
:101B3800013501319542F4DB0020F0BC704700BF4D
:101B480000E100E0F8B5044615461F46837A5BB30A
:101B58005FB100F11406237AC3B13289B5F90030B8
:101B68009A420BDA40F6085012E000F12006F2E73C
:101B7800002204F111010120FFF794F873899BB248
:101B8800B5F900209342F3DB002001E04FF45060E8
:101B9800237A5BB973891BB2B5F900209342A8BFB9
:101BA80013462B80002001E04FF45060A37A53B90C
:101BB800237A03B1002033B937B163689B8A03F0F5
:101BC80001032B800020F8BD63689B8AC3F3401390
:101BD800F7E700002C4B5A681389DBB213F0010FAA
:101BE80051D110B503F00603042B10D0062B05D0F5
:101BF800022B28D02548FFF7A9F810BD918AC9B251
:101C080011F00E0FF6D02048FFF7D2FEF2E71E497A
:101C1800CB8B9BB2898B8B4210D01B4B1B8B994271
:101C28000DD01088184A5169138B5C1C1483C85452
:101C3800D38B9BB201339BB2D383DBE7FEE7002152
:101C4800114B1983EDE7104BD88C198D884201D3BD
:101C58000020D8840C4B5B8D9BB299420CD90A4961
:101C6800086ACB8C5C1CCC84C35C13804B8D9BB204
:101C780001339BB24B85BDE793889BB223F00203E7
:101C88009BB29380B6E770476C0000207D0000206F
:101C980070B504460D4616460023FFF753FF03466A
:101CA80008B1184670BDB6F9002029462046FFF74E
:101CB800EBFE0346F5E770B504460D4616460123CC
:101CC800FFF740FF034608B1184670BDB6F900207B
:101CD80029462046FFF770FE0346F5E730B597B072
:101CE80005460C465422174901A800F0B3F9042010
:101CF800FEF74AFF144B984206D0144B984219D06D
:101D080040F6045017B030BD04EB4404620001AB48
:101D18001A446B68118819856968B2F904305288C9
:101D280043EAC2236FEA43436FEA53439BB28B846F
:101D38000020E7E704EB440462002A3201AB1A44AE
:101D4800E7E700BF302E00000024F40040420F00F7
:101D58002DE9F047894600230B604FF02C08234BF0
:101D680008FB003892B11146002288F811200A6851
:101D7800C8F814208A88A8F81C208A68C8F8202087
:101D8800CA88A8F82820012288F80A20DFF85CA071
:101D98002C2707FB00F70AEB07040025658325833A
:101DA800E583E584A584238D638501266670217CFF
:101DB8004046FFF793FF6368A2899A816368E289C6
:101DC8001A82C9F8008031460320FEF719FF6368BC
:101DD80083F830601AF907305A0903F01F039E4050
:101DE800034B43F822602846BDE8F0876C000020CA
:101DF80000E100E001290ED021B102291AD040F6F5
:101E080004507047426893899BB223F038039BB211
:101E1800938100207047426893899BB223F0300376
:101E28009BB29381426893899BB243F008039381E4
:101E380000207047426893899BB243F0380393812E
:101E48000020704703290BD8426893899BB223F07E
:101E580003039BB29381426893899BB21943918192
:101E68000020704708B50A4661B9416891F83030DA
:101E780043F0010381F8303011460320FEF7C0FE1D
:101E8800002008BD416891F8303003F0FE0381F866
:101E98003030F1E7817271B9426893889BB223F0C0
:101EA80001039BB29380426893889BB243F004037A
:101EB800938000207047426893889BB243F00103E7
:101EC8009380F0E701720020704770B506460C4613
:101ED8000978FFF703FF054608B1284670BDA178C9
:101EE8003046FFF7AFFF05460028F6D16178304647
:101EF800FFF780FF05460028EFD1E1783046FFF76D
:101F0800E1FF05460028E8D121793046FFF7C2FFF6
:101F1800E3E7436801F01F011986002070470000BD
:101F280010B50C4B5A68948D04F01F04128D1440A0
:101F38001A7C14401B781BB1064BDB6803B124B92B
:101F480021460448FFF7E5FF10BD0022214601485D
:101F58009847F5E770040020034B1B681BB1024A41
:101F68001368013B136070474806002008B5FFF767
:101F7800F3FF08BD4FF42042014B1A600020704760
:101F88000000024030B589B0FEF7B8FD2A4AD36890
:101F980023F4E0631B041B0C43F0BF6343F40133D9
:101FA800D36001210920FEF757FE01210420FEF726
:101FB80053FEFFF7DFFF214B05931423ADF81830CC
:101FC8001F4A0792ADF81A301E4C0DEB030221464A
:101FD8000020FFF7BDFE04238DF8083001258DF899
:101FE8000B508DF80C5000238DF8093003228DF822
:101FF8000A208DF80D3002A92068FFF766FF2946F0
:102008002068FFF72FFF06E00D490B7001AA0D4B62
:102018001868FFF73DFE0123ADF80630ADF804302F
:10202800064C0DF106022146064B1868FFF743FEE1
:102038002378452BE8D1EEE700ED00E08804002086
:102048009C04002084040020014B1868704700BFDE
:1020580098000020844641EA000313F0030349D1A5
:10206800403A23D30B6803604B6843608B688360F6
:10207800CB68C3600B6903614B6943618B698361FA
:10208800CB69C3610B6A03624B6A43628B6A8362E2
:10209800CB6AC3620B6B03634B6B43638B6B8363CA
:1020A800CB6BC36340304031403ADBD230320BD384
:1020B8000B6803604B6843608B688360CB68C360C0
:1020C80010301031103AF3D20C3205D351F8043BDA
:1020D80040F8043B043AF9D2043208D0D2071CBFB6
:1020E80011F8013B00F8013B01D30B8803806046DF
:1020F800704700BF082A13D38B07B1D010F0030331
:10210800AED0C3F10403D21ADB071CBF11F8013BA0
:1021180000F8013BA4D331F8023B20F8023B9FE7CB
:10212800043AD9D3013A11F8013B00F8013BF9D23E
:102138000B7803704B7843708B78837060467047D8
:1021480070B5141E9AB005462CDB1A464FF402737C
:1021580000910491ADF80C304FF6FF760FD0013C9A
:102168001E9B694602940594ADF80E6000F06EF966
:10217800421C10DB0022009B1A701AB070BD1E9B17
:10218800694602940594ADF80E6000F05FF9431CAF
:1021980004DB1AB070BD8B232B60EBE78B232B601D
:1021A8001AB070BD8B234FF0FF302B60F1E700BFF2
:1021B80010B5064C82B00093246813460A460146BF
:1021C8002046FFF7BDFF02B010BD00BF98000020F9
:1021D80070B5CC1C24F0030408340C2C38BF0C2434
:1021E800002C06463BDBA14239D8274D296851B15E
:1021F8000B681B1B04D436E013681B1B1AD5114649
:102208004A68002AF8D16968002937D02146304643
:1022180000F026FC431C22D0C51C25F00305A8426B
:1022280005D0291A304600F01BFC013017D02A4689
:102238002C6004E00B2B0DD913601A44146002F1D2
:102248000B0020F00700131DC31A02D05942D150C9
:1022580070BD70BD8A420ED053684B60EFE70C2307
:102268000020336070BD0B2B03D80A464B682B60E7
:10227800E5E70A46E0E70B460A46F8E7304600F08D
:10228800EFFB6860C2E700BFB00400202DE9F0470B
:102298008E680C469E421D46174628D88046888977
:1022A80010F4906F32D04E692368096906EB460630
:1022B800A3EB010906EBD6766B1C76104B44B342B0
:1022C800324684BF1E463246430522D51146404653
:1022D800FFF77EFF824680B34A462169FFF7BAFEC0
:1022E800A38923F4906343F08003A38116E01E467C
:1022F80008682A46394600F00BFCA2682368961B3A
:102308002B44A66023600020BDE8F08708683546A6
:10231800EFE7404600F0A8FC824650B1A6EB09035F
:102328000AEB09006661C4F810A02060A3602E467D
:10233800DFE72169404600F04FFC0C23C8F8003065
:10234800A3894FF0FF3043F04003A381BDE8F08735
:102358002DE9F04F936883B09046002B70D08246E9
:102368000C4617688D68086842E0A38913F4906FDB
:102378002ED06569216905EB4505A0EB010B05EB3E
:10238800D5750BF101006D103044A8422A4684BF70
:1023980005462A465B0538D511465046FFF718FF13
:1023A80000283CD05A4621690190FFF753FEA289C4
:1023B800019B22F4906242F08002A281A5EB0B02FD
:1023C80003EB0B006561B346354623612060A260CC
:1023D8005A46494600F09CFBD8F80830A2682068A5
:1023E800551B58449E1BA5602060C8F808603EB382
:1023F8007E683B460837002EFAD0AE42D3F80090EC
:10240800AB46B2D23546B346E2E7504600F02CFC64
:1024180003460028D2D12169504600F0DDFB0C2389
:1024280000224FF0FF30CAF80030A38943F0400380
:10243800A381C8F80820C8F8042003B0BDE8F08FCD
:102448000020C8F8040003B0BDE8F08F2DE9F04F74
:102458000F4689899DB00C0691460393804603D5A3
:102468003B69002B00F0FC803023002020218DF8F0
:102478002A3099F800300125814C09908DF82910EF
:10248800002B00F09180252BCA4603D119E0252B9B
:1024980000F093801AF8013F002BF8D1BAEB090B32
:1024A80000F082804A465B4639464046FFF7EEFE1A
:1024B800013079D0099B9AF800205B440993002ADF
:1024C80072D000234FF0FF320AF1010A04930793F8
:1024D80006938DF853301A93059205E0049B001B70
:1024E80005FA00F0184304909AF8001005222046D7
:1024F80000F0C8FAD1460AF1010A0028EED1049B7F
:10250800D80644BF20228DF85320190748BF2B2234
:1025180099F8001048BF8DF853202A2971D0A1F1ED
:102528003002092A0BD8079B19F8011F03EB830314
:1025380002EB4303A1F13002092AF5D907932E29AA
:1025480046D0DFF84CA10322504600F09BFA48B170
:102558004022049BA0EB0A0002FA00F0034309F1B1
:102568000109049399F800300622194645488DF868
:10257800283009F1010900F085FA00284DD0424BB6
:10258800FBB103AB00933A46404B04A94046AFF376
:1025980000800646721C07D0099B3344099399F8BA
:1025A8000030002B7FF46FAFBB895B064CBF4FF048
:1025B800FF3009981DB0BDE8F08FBAEB090B80D049
:1025C80070E7039B073323F0070308330393E3E71C
:1025D80099F8011009F101002A2928D00023A1F156
:1025E8003002092A05938146ABD819F8011F03EB7D
:1025F800830302EB4303A1F13002092AF5D90593BD
:102608009FE7039A116804320029039222DB07919D
:1026180099F8011009F1010991E703AB00933A46D3
:102628001A4B04A9404600F0CDF80646B2E7039BD2
:1026380009F102001A680433002A0393B8BF4FF067
:10264800FF330592AEBF99F8021099F8021005936E
:10265800814676E7494243F0020307910493D7E79E
:102668004021FFF7B5FD3860386110B140237B6128
:10267800FAE60C234FF0FF30C8F800309AE700BFA5
:10268800E82E0000F42E0000000000009522000053
:10269800F02E00002DE9F0470C460969A56891461F
:1026A8008D42B8BF0D46156094F8431006461F4684
:1026B800DDF8208011B16A1CC9F80020236899064A
:1026C8005DD5D9F800200232C9F80020236813F03C
:1026D800060F19461DD1E1688A1A002AD8BF194683
:1026E80017DD002504F1190A05E0E368D9F8002090
:1026F8009B1AAB420CDD0123524639463046C0478F
:10270800013005F10105F0D14FF0FF30BDE8F08749
:10271800216894F84330003318BF01238A060AD58C
:102728003021E21882F8431094F845105A1C2244CC
:1027380082F84310023304F1430239463046C04759
:102748000130E1D0236803F00603042B29D0A368E5
:1027580022699342C8BF4FF0000930DD9B1A9944A3
:1027680000251A3401E04D4529D001232246394677
:102778003046C047013005F10105F4D1C4E713F034
:10278800060F08D1E168D9F800208A1A002AD8BFB4
:102798001946A6DCBDE794F84330003318BF01237F
:1027A800C9E7D9F80010E068A3682269A0EB01091D
:1027B800934229EAE979D1DCB9F1000FD0D10020A0
:1027C800BDE8F0872DE9F0430C46097E85B06E29F7
:1027D80006461746984604F1430C0C9855D00FD876
:1027E800632900F0198100F2D48000295CD05829AF
:1027F80040F0E68084F845102268DFF85CE213E0D8
:10280800732900F0FB8000F289806F2900F0E280D4
:10281800702940F0D580226842F020022260782397
:10282800DFF838E284F845300368150603F104013F
:1028380000F1FD8055064BBF1B881B6801600160D5
:10284800D00744BF42F020022260002B40F0938062
:102858001021226822F020022260002284F84320FE
:1028680060680028A060C0F28B80226822F0040211
:102878002260002B66D1002840F084806546082934
:102888006ED0ACEB0503236111E023681A0600F152
:10289800D18013F0400F0368626903F104010160FD
:1028A8001B6814BF1A801A60002365462361CDF89F
:1028B80000803B4603AA21463046FFF7EBFE013075
:1028C80021D02A46236939463046C04701301AD0FC
:1028D8002368E06813F0020F039B19D0C21A002A7C
:1028E80016DD002504F1190904E0E068039BC21A0B
:1028F800AA420DDD01234A4639463046C047013019
:1029080005F10105F1D14FF0FF3005B0BDE8F083C6
:102918009842B8BF184605B0BDE8F083752959D06C
:1029280078294DD122687AE72D2061685B42002919
:1029380084F84300A16020DB0A2122F00402DFF8BA
:1029480018E122606546B3FBF1F201FB12331EF871
:102958000300134605F8010D002AF4D1082990D187
:102968002368D9078DD5626823699A4289DC3023A8
:10297800013D2B7085E710216FE70A21DFF8D8E0C9
:10298800002BDFD19EF8003004F1420584F8423074
:1029980075E7642901D0692912D1226803681506F0
:1029A80003F1040152D455064BBFB3F900301B683C
:1029B80001600160002BB7DB0A21DFF89CE04FE7DC
:1029C800012384F84210236104F14205002384F8AE
:1029D80043306CE723681A0633D413F0400F0368BA
:1029E80003F1040215BF1B881B68026002606F298F
:1029F80014BF0A210821DFF860E02EE70368626847
:102A0800191D01601D680021284600F03BF800B33D
:102A1800401B60602061D9E70122036804F1420588
:102A2800191D1B68016084F842302261CEE70160FD
:102A38001B6805E703686269191D01601B681A6055
:102A480032E703681A1D02601B68D0E701601B6843
:102A5800B0E76068DEE700BFFC2E0000102F000022
:102A680038B50023064C054608462360FDF7DAFE14
:102A7800431C00D038BD2368002BFBD02B6038BD29
:102A8800B8040020830770B4CDB23DD0541E0AB3F9
:102A98000378AB421FD0431C05E014F1FF3419D36F
:102AA8000278AA4217D013F0030F184603F1010366
:102AB800F3D1032C11D84CB30378AB420BD00444A8
:102AC800431C02E00278AA4205D09C42184603F152
:102AD8000103F7D1002070BC7047090289B229436D
:102AE80041EA0141036806464B40A3F1013222EA5C
:102AF800030313F0803F00F1040003D1043C032CCE
:102B0800F0D8D8E73046D7E71446D2E72046E2E7C0
:102B18008842F0B50DD98B1898420AD28418002A39
:102B280051D0224613F8014D994202F8014DF9D1CE
:102B3800F0BD0F2A48D941EA00039B0746D1154644
:102B480000F1100401F1100353F8106C103D44F823
:102B5800106C53F80C6C0F2D44F80C6C53F8086C7F
:102B680004F1100444F8186C53F8046C03F11003D2
:102B780044F8146CE8D8A2F1100323F00F0302F014
:102B88000F0E1033BEF1030F1944034421D90E462A
:102B980074461D1F56F8047B043C032C45F8047F3B
:102BA800F8D8AEF1040424F0030404342144234487
:102BB80002F0030262B1013B0A4411F8014B8A4258
:102BC80003F8014FF9D1F0BD0346F3E70346F2E7F6
:102BD800F0BD7246EEE700BF91B151F8043C0439EC
:102BE800002BB8BFC9181F4B1A68FAB18A4230B413
:102BF8000AD908680C18A24226D04A60196030BC6D
:102C080070478B4203D81A465368002BF9D11468D1
:102C180015198D420DD006D808680C189C4219D099
:102C28004B605160EBE70C230360E8E74A601960EA
:102C3800704709680C44111999421460DFD10ACB16
:102C48000C4414605360DAE714685268204481E841
:102C58000500D3E71C685B68204481E809005160DF
:102C6800CDE700BFB0040020F8B51446F9B1C2B1F1
:102C780006460D4600F020F8844201D82846F8BDE3
:102C880021463046FFF7A4FA074670B12246294686
:102C9800FFF7E0F929463D463046FFF79DFF2846F5
:102CA800F8BDFFF799FF2546E8E70546E6E7114630
:102CB800BDE8F840FFF78CBA51F8040C0028A0F1E1
:102CC8000400BCBF0B58C018704700BF5374616341
:102CD8006B206672616D653A0A0000002052302050
:102CE8003D2020253038580A0000000020523120AD
:102CF8003D2020253038580A00000000205232209C
:102D08003D2020253038580A00000000205233208A
:102D18003D2020253038580A00000000205231326A
:102D2800203D20253038580A00000000204C522051
:102D38003D2020253038580A00000000205043204C
:102D48003D2020253038580A0000000020505352FA
:102D5800203D20253038580A000000004653522FE5
:102D68004641523A0A0000002043465352203D2073
:102D780020253038580A00002048465352203D206C
:102D880020253038580A00002044465352203D2060
:102D980020253038580A00002041465352203D2053
:102DA80020253038580A0000204D4D464152203D1C
:102DB80020253038580A00002042464152203D2044
:102DC80020253038580A00004D6973630A00000056
:102DD800204C522F4558435F52455455524E3D2082
:102DE800253038580A0000005B48617264466175F6
:102DF8006C745D0A000000005B4275734661756C77
:102E0800745D0A005B55736167654661756C745D36
:102E18000A0000000000024040000240800002401A
:102E2800C00002400001024031000100810013008F
:102E38000100F702040003000B0208000100AE00C5
:102E480003000100930302000100AE00010001002D
:102E5800AE00010003000B0201000100050501009E
:102E68000100000001000100000001000100000055
:102E78000100010000000100010000004300000003
:102E8800000000000000000000000000000000003A
:102E9800000000000000000000000000000000002A
:102EA800000000000000000000000000000000001A
:102EB800000000000000000000000000000000000A
:102EC80000000000000000000000000000000000FA
:102ED80000000000000000000000000000000000EA
:102EE800232D302B20000000686C4C006566674578
:102EF80046470000303132333435363738394142AD
:102F0800434445460000000030313233343536370B
:0C2F1800383961626364656600000000E7
:102F24007856341208010020000000000000000060
:102F34000080014000000000000004000E000B00AF
:102F44000D00000000000000000000000000000070
:102F54000081014000000400000002000D000B008D
:102F64002900000000000000000000000000000034
:102F740000C0014000000820004000000E000900CD
:102F84003700000000000000000000000E000000F8
:102F94000050004001000000070000000000000095
:102FA400000000000000000000000000000000001D
:102FB40000000000000000009C0000200000000051
:102FC400C82E0000A82E0000882E0000000000007B
:102FD400000000000000000000000000842E00003B
:102FE40000000000000000000000000000000000DD
:102FF40000000000000000000000000000000000CD
:1030040000000000000000000000000000000000BC
:103014000000000000000000000000003254769818
:04000003000001797F
:00000001FF
